{
  "_format": "hh-sol-artifact-1",
  "contractName": "BMCService",
  "sourceName": "solidity/contracts/bmc/BMCService.sol",
  "abi": [
    {
      "anonymous": false,
      "inputs": [
        {
          "indexed": false,
          "internalType": "uint8",
          "name": "version",
          "type": "uint8"
        }
      ],
      "name": "Initialized",
      "type": "event"
    },
    {
      "inputs": [
        {
          "internalType": "int256",
          "name": "_nsn",
          "type": "int256"
        },
        {
          "internalType": "string",
          "name": "_dst",
          "type": "string"
        },
        {
          "internalType": "address",
          "name": "_sender",
          "type": "address"
        },
        {
          "internalType": "uint256",
          "name": "_amount",
          "type": "uint256"
        }
      ],
      "name": "addRequest",
      "outputs": [],
      "stateMutability": "nonpayable",
      "type": "function"
    },
    {
      "inputs": [
        {
          "internalType": "string",
          "name": "_network",
          "type": "string"
        },
        {
          "internalType": "address",
          "name": "_addr",
          "type": "address"
        },
        {
          "internalType": "uint256",
          "name": "_amount",
          "type": "uint256"
        }
      ],
      "name": "addReward",
      "outputs": [],
      "stateMutability": "nonpayable",
      "type": "function"
    },
    {
      "inputs": [
        {
          "internalType": "string",
          "name": "_network",
          "type": "string"
        },
        {
          "internalType": "address",
          "name": "_addr",
          "type": "address"
        }
      ],
      "name": "clearReward",
      "outputs": [
        {
          "internalType": "uint256",
          "name": "",
          "type": "uint256"
        }
      ],
      "stateMutability": "nonpayable",
      "type": "function"
    },
    {
      "inputs": [
        {
          "internalType": "bytes",
          "name": "_rlp",
          "type": "bytes"
        }
      ],
      "name": "decodeResponseMessage",
      "outputs": [
        {
          "components": [
            {
              "internalType": "uint256",
              "name": "code",
              "type": "uint256"
            },
            {
              "internalType": "string",
              "name": "message",
              "type": "string"
            }
          ],
          "internalType": "struct Types.ResponseMessage",
          "name": "",
          "type": "tuple"
        }
      ],
      "stateMutability": "pure",
      "type": "function"
    },
    {
      "inputs": [],
      "name": "getBMCManagement",
      "outputs": [
        {
          "internalType": "address",
          "name": "",
          "type": "address"
        }
      ],
      "stateMutability": "view",
      "type": "function"
    },
    {
      "inputs": [],
      "name": "getBMCPeriphery",
      "outputs": [
        {
          "internalType": "address",
          "name": "",
          "type": "address"
        }
      ],
      "stateMutability": "view",
      "type": "function"
    },
    {
      "inputs": [
        {
          "internalType": "string",
          "name": "_network",
          "type": "string"
        },
        {
          "internalType": "address",
          "name": "_addr",
          "type": "address"
        }
      ],
      "name": "getReward",
      "outputs": [
        {
          "internalType": "uint256",
          "name": "",
          "type": "uint256"
        }
      ],
      "stateMutability": "view",
      "type": "function"
    },
    {
      "inputs": [
        {
          "internalType": "string",
          "name": "_src",
          "type": "string"
        },
        {
          "internalType": "string",
          "name": "_svc",
          "type": "string"
        },
        {
          "internalType": "uint256",
          "name": "_sn",
          "type": "uint256"
        },
        {
          "internalType": "uint256",
          "name": "_code",
          "type": "uint256"
        },
        {
          "internalType": "string",
          "name": "_msg",
          "type": "string"
        }
      ],
      "name": "handleBTPError",
      "outputs": [],
      "stateMutability": "nonpayable",
      "type": "function"
    },
    {
      "inputs": [
        {
          "internalType": "string",
          "name": "_from",
          "type": "string"
        },
        {
          "internalType": "string",
          "name": "_svc",
          "type": "string"
        },
        {
          "internalType": "uint256",
          "name": "_sn",
          "type": "uint256"
        },
        {
          "internalType": "bytes",
          "name": "_msg",
          "type": "bytes"
        }
      ],
      "name": "handleBTPMessage",
      "outputs": [],
      "stateMutability": "nonpayable",
      "type": "function"
    },
    {
      "inputs": [
        {
          "internalType": "string",
          "name": "_network",
          "type": "string"
        },
        {
          "internalType": "uint256[]",
          "name": "_values",
          "type": "uint256[]"
        }
      ],
      "name": "handleDropFee",
      "outputs": [
        {
          "components": [
            {
              "internalType": "string",
              "name": "network",
              "type": "string"
            },
            {
              "internalType": "uint256[]",
              "name": "values",
              "type": "uint256[]"
            }
          ],
          "internalType": "struct Types.FeeInfo",
          "name": "",
          "type": "tuple"
        }
      ],
      "stateMutability": "nonpayable",
      "type": "function"
    },
    {
      "inputs": [
        {
          "internalType": "string",
          "name": "_src",
          "type": "string"
        },
        {
          "internalType": "int256",
          "name": "_sn",
          "type": "int256"
        },
        {
          "components": [
            {
              "internalType": "string",
              "name": "network",
              "type": "string"
            },
            {
              "internalType": "uint256[]",
              "name": "values",
              "type": "uint256[]"
            }
          ],
          "internalType": "struct Types.FeeInfo",
          "name": "_feeInfo",
          "type": "tuple"
        }
      ],
      "name": "handleErrorFee",
      "outputs": [
        {
          "components": [
            {
              "internalType": "string",
              "name": "network",
              "type": "string"
            },
            {
              "internalType": "uint256[]",
              "name": "values",
              "type": "uint256[]"
            }
          ],
          "internalType": "struct Types.FeeInfo",
          "name": "",
          "type": "tuple"
        }
      ],
      "stateMutability": "nonpayable",
      "type": "function"
    },
    {
      "inputs": [
        {
          "internalType": "address",
          "name": "_addr",
          "type": "address"
        },
        {
          "internalType": "bytes",
          "name": "_msg",
          "type": "bytes"
        }
      ],
      "name": "handleFee",
      "outputs": [
        {
          "components": [
            {
              "internalType": "string",
              "name": "src",
              "type": "string"
            },
            {
              "internalType": "string",
              "name": "dst",
              "type": "string"
            },
            {
              "internalType": "string",
              "name": "svc",
              "type": "string"
            },
            {
              "internalType": "int256",
              "name": "sn",
              "type": "int256"
            },
            {
              "internalType": "bytes",
              "name": "message",
              "type": "bytes"
            },
            {
              "internalType": "int256",
              "name": "nsn",
              "type": "int256"
            },
            {
              "components": [
                {
                  "internalType": "string",
                  "name": "network",
                  "type": "string"
                },
                {
                  "internalType": "uint256[]",
                  "name": "values",
                  "type": "uint256[]"
                }
              ],
              "internalType": "struct Types.FeeInfo",
              "name": "feeInfo",
              "type": "tuple"
            }
          ],
          "internalType": "struct Types.BTPMessage",
          "name": "",
          "type": "tuple"
        }
      ],
      "stateMutability": "nonpayable",
      "type": "function"
    },
    {
      "inputs": [
        {
          "internalType": "address",
          "name": "_bmcManagementAddr",
          "type": "address"
        }
      ],
      "name": "initialize",
      "outputs": [],
      "stateMutability": "nonpayable",
      "type": "function"
    },
    {
      "inputs": [
        {
          "internalType": "string",
          "name": "_to",
          "type": "string"
        },
        {
          "internalType": "string",
          "name": "_svc",
          "type": "string"
        },
        {
          "internalType": "int256",
          "name": "_sn",
          "type": "int256"
        }
      ],
      "name": "removeResponse",
      "outputs": [
        {
          "components": [
            {
              "internalType": "int256",
              "name": "nsn",
              "type": "int256"
            },
            {
              "components": [
                {
                  "internalType": "string",
                  "name": "network",
                  "type": "string"
                },
                {
                  "internalType": "uint256[]",
                  "name": "values",
                  "type": "uint256[]"
                }
              ],
              "internalType": "struct Types.FeeInfo",
              "name": "feeInfo",
              "type": "tuple"
            }
          ],
          "internalType": "struct Types.Response",
          "name": "",
          "type": "tuple"
        }
      ],
      "stateMutability": "nonpayable",
      "type": "function"
    },
    {
      "inputs": [
        {
          "internalType": "address",
          "name": "_addr",
          "type": "address"
        }
      ],
      "name": "setBMCPeriphery",
      "outputs": [],
      "stateMutability": "nonpayable",
      "type": "function"
    }
  ],
  "bytecode": "0x608060405234801561001057600080fd5b50613edc806100206000396000f3fe608060405234801561001057600080fd5b50600436106100c55760003560e01c80630a823dea146100ca5780632926498e146100df578063350147011461010557806351d288521461011857806364945d5d1461013857806364cd37501461015857806376bf87671461016b57806387df8a9a1461018b5780639ac0340a146101ab578063ae86c53d146101cb578063b70eeb8d146101dc578063c4d66de8146101ef578063c620234c14610202578063ce5cef5a14610215578063e04fc02514610228575b600080fd5b6100dd6100d8366004613142565b61023b565b005b6100f26100ed36600461320a565b610257565b6040519081526020015b60405180910390f35b6100dd610113366004613350565b610333565b61012b6101263660046133a6565b61034b565b6040516100fc91906134cf565b61014b6101463660046134f4565b610580565b6040516100fc9190613535565b6100f261016636600461320a565b6105d0565b6000546201000090046001600160a01b03165b6040516100fc919061355a565b61019e61019936600461356e565b610610565b6040516100fc91906135cf565b6101be6101b93660046136fe565b61090e565b6040516100fc91906137be565b6001546001600160a01b031661017e565b6100dd6101ea3660046137d1565b610af9565b6100dd6101fd366004613874565b61109f565b6100dd610210366004613874565b6111c4565b6101be61022336600461388f565b61136f565b6100dd6102363660046138e8565b6113b2565b610243611445565b61024d84846114a0565b5050505050505050565b6000610261611445565b6001600160a01b03821660009081526005602052604080822090516102899087908790613946565b908152602001604051809103902054905060008111604051806040016040528060128152602001710c4c0e939bdd115e1a5cdd1cd4995dd85c9960721b815250906102f05760405162461bcd60e51b81526004016102e79190613956565b60405180910390fd5b506001600160a01b03831660009081526005602052604080822090516103199088908890613946565b9081526040519081900360200190205590505b9392505050565b61033b611445565b6103468383836116a1565b505050565b610353612f25565b61035b611445565b600060038560405161036d9190613969565b9081526020016040518091039020846040516103899190613969565b9081526020016040518091039020600084815260200190815260200160002060405180604001604052908160008201548152602001600182016040518060400160405290816000820180546103dd90613985565b80601f016020809104026020016040519081016040528092919081815260200182805461040990613985565b80156104565780601f1061042b57610100808354040283529160200191610456565b820191906000526020600020905b81548152906001019060200180831161043957829003601f168201915b50505050508152602001600182018054806020026020016040519081016040528092919081815260200182805480156104ae57602002820191906000526020600020905b81548152602001906001019080831161049a575b50505091909252505050905250805160408051808201909152601481527331303a4e6f74457869737473526573706f6e736560601b602082015291925060001261050b5760405162461bcd60e51b81526004016102e79190613956565b5060038560405161051c9190613969565b9081526020016040518091039020846040516105389190613969565b90815260408051602092819003830190206000868152925281208181559060018201816105658282612f44565b610573600183016000612f7e565b5092979650505050505050565b610588612f9c565b6105c783838080601f01602080910402602001604051908101604052809392919081815260200183838082843760009201919091525061172692505050565b90505b92915050565b6001600160a01b03811660009081526005602052604080822090516105f89086908690613946565b90815260200160405180910390205490509392505050565b610618612fb6565b610620611445565b600061062b836117a2565b905061063b848260c00151611897565b60c0820152600280546106dc919061065290613985565b80601f016020809104026020016040519081016040528092919081815260200182805461067e90613985565b80156106cb5780601f106106a0576101008083540402835291602001916106cb565b820191906000526020600020905b8154815290600101906020018083116106ae57829003601f168201915b50505060208501519291505061199e565b156105c7576000816060015113156108f55761083d600382600001516040516107059190613969565b908152602001604051809103902082604001516040516107259190613969565b90815260408051918290036020908101832060608601516000908152915281902082820190915260010180548290829061075e90613985565b80601f016020809104026020016040519081016040528092919081815260200182805461078a90613985565b80156107d75780601f106107ac576101008083540402835291602001916107d7565b820191906000526020600020905b8154815290600101906020018083116107ba57829003601f168201915b505050505081526020016001820180548060200260200160405190810160405280929190818152602001828054801561082f57602002820191906000526020600020905b81548152602001906001019080831161081b575b505050505081525050611a05565b5060405180604001604052808260a0015181526020018260c001518152506003826000015160405161086f9190613969565b9081526020016040518091039020826040015160405161088f9190613969565b908152604080516020928190038301902060608501516000908152908352208251815582820151805180519293919260018501926108d1928492910190612ff3565b5060208281015180516108ea9260018501920190613077565b5050509050506105c7565b6109028160c00151611a05565b60c08201529392505050565b6109166130b1565b61091e611445565b6000831315610ae95760015460405162d2c16f60e61b81526000916001600160a01b0316906334b05bc090610957908890600401613956565b602060405180830381865afa158015610974573d6000803e3d6000fd5b505050506040513d601f19601f8201168201806040525081019061099891906139ba565b90506000811180156109ae575080836020015151115b15610ae0576000818460200151516109c691906139e9565b905060008460200151516001600160401b038111156109e7576109e761325d565b604051908082528060200260200182016040528015610a10578160200160208202803683370190505b50905060005b83811015610a74576020860151610a2d8285613a00565b81518110610a3d57610a3d613a18565b6020026020010151828281518110610a5757610a57613a18565b602090810291909101015280610a6c81613a2e565b915050610a16565b5060005b82811015610ad85785602001518181518110610a9657610a96613a18565b6020026020010151828286610aab9190613a00565b81518110610abb57610abb613a18565b602090810291909101015280610ad081613a2e565b915050610a78565b506020850152505b8291505061032c565b610af282611a05565b905061032c565b610b01611445565b6000610b4283838080601f016020809104026020016040519081016040528093929190818152602001838380828437600092019190915250611a5292505050565b905060008160000151604051602001610b5b9190613969565b60408051601f19818403018152828252805160209182012083830183526005845264436c61696d60d81b848301529151919350610b99929101613969565b60405160208183030381529060405280519060200120811415610db0576000610bc58360200151611a97565b9050610c9d60028054610bd790613985565b80601f0160208091040260200160405190810160405280929190818152602001828054610c0390613985565b8015610c505780601f10610c2557610100808354040283529160200191610c50565b820191906000526020600020905b815481529060010190602001808311610c3357829003601f168201915b5050505050610c96604051806040016040528060128152602001710c4c0e925b9d985b1a59105c99dd5b595b9d60721b8152508460200151611ab190919063ffffffff16565b83516116a1565b600060029054906101000a90046001600160a01b03166001600160a01b031663522a901e8b8b60405180604001604052806003815260200162626d6360e81b8152508a600019610ced9190613a49565b60408051608081018252600881830190815267526573706f6e736560c01b606083015281528151808301835260008082528351602081810190955290815281840152610d4692820190610d3f90611d94565b9052611e09565b6040518663ffffffff1660e01b8152600401610d66959493929190613af7565b6020604051808303816000875af1158015610d85573d6000803e3d6000fd5b505050506040513d601f19601f82011682018060405250810190610da991906139ba565b5050611094565b60405180604001604052806008815260200167526573706f6e736560c01b815250604051602001610de19190613969565b60405160208183030381529060405280519060200120811415610e1a57610e1585610e0f8460200151611726565b516114a0565b611094565b604051806040016040528060048152602001634c696e6b60e01b815250604051602001610e479190613969565b60405160208183030381529060405280519060200120811415610ee05760015460208301516001600160a01b039091169063acc3a7a5908b908b90610e8b90611e27565b6040518463ffffffff1660e01b8152600401610ea993929190613b43565b600060405180830381600087803b158015610ec357600080fd5b505af1158015610ed7573d6000803e3d6000fd5b50505050611094565b60405180604001604052806006815260200165556e6c696e6b60d01b815250604051602001610f0f9190613969565b60405160208183030381529060405280519060200120811415610f535760015460208301516001600160a01b039091169063766639ce908b908b90610e8b90611e27565b60405180604001604052806004815260200163125b9a5d60e21b815250604051602001610f809190613969565b60405160208183030381529060405280519060200120811415611052576000610fac8360200151611e4f565b905060005b8151811015610da95760015482516001600160a01b039091169063acc3a7a5908d908d90869086908110610fe757610fe7613a18565b60200260200101516040518463ffffffff1660e01b815260040161100d93929190613b43565b600060405180830381600087803b15801561102757600080fd5b505af115801561103b573d6000803e3d6000fd5b50505050808061104a90613a2e565b915050610fb1565b60408051808201825260148152730c4c0e939bdd115e1a5cdd1cd25b9d195c9b985b60621b6020820152905162461bcd60e51b81526102e79190600401613956565b505050505050505050565b600054610100900460ff16158080156110bf5750600054600160ff909116105b806110d95750303b1580156110d9575060005460ff166001145b61113c5760405162461bcd60e51b815260206004820152602e60248201527f496e697469616c697a61626c653a20636f6e747261637420697320616c72656160448201526d191e481a5b9a5d1a585b1a5e995960921b60648201526084016102e7565b6000805460ff19166001179055801561115f576000805461ff0019166101001790555b600180546001600160a01b0319166001600160a01b03841617905580156111c0576000805461ff0019169055604051600181527f7f26b83ff96e1f2b6a682f133852f6798a09c465da95921460cefb38474024989060200160405180910390a15b5050565b6001546040516317aa5fb760e11b81526001600160a01b0390911690632f54bf6e906111f490339060040161355a565b602060405180830381865afa158015611211573d6000803e3d6000fd5b505050506040513d601f19601f820116820180604052508101906112359190613b73565b6040518060400160405280600f81526020016e0c4c4e955b985d5d1a1bdc9a5e9959608a1b8152509061127b5760405162461bcd60e51b81526004016102e79190613956565b506040805180820190915260128152710c4c0e925b9d985b1a59105c99dd5b595b9d60721b60208201526001600160a01b0382166112cc5760405162461bcd60e51b81526004016102e79190613956565b506000805462010000600160b01b031916620100006001600160a01b0384811682029290921780845560408051636bf459cb60e01b815290519290910490921692636bf459cb92600480820193918290030181865afa158015611333573d6000803e3d6000fd5b505050506040513d6000823e601f3d908101601f1916820160405261135b9190810190613b95565b80516111c091600291602090910190612ff3565b6113776130b1565b61137f611f30565b6105c7600060029054906101000a90046001600160a01b0316604051806040016040528086815260200185815250611897565b6113ba611445565b6040805160808101825285815260208082018681526001600160a01b038616838501526060830185905260008881526004835293909320825181559251805192939261140c9260018501920190612ff3565b5060408201516002820180546001600160a01b0319166001600160a01b0390921691909117905560609091015160039091015550505050565b60005460408051808201909152600f81526e0c4c4e955b985d5d1a1bdc9a5e9959608a1b6020820152906201000090046001600160a01b0316331461149d5760405162461bcd60e51b81526004016102e79190613956565b50565b600060046000848152602001908152602001600020604051806080016040529081600082015481526020016001820180546114da90613985565b80601f016020809104026020016040519081016040528092919081815260200182805461150690613985565b80156115535780601f1061152857610100808354040283529160200191611553565b820191906000526020600020905b81548152906001019060200180831161153657829003601f168201915b505050918352505060028201546001600160a01b03166020808301919091526003909201546040918201528251815180830190925260138252720c4c0e939bdd115e1a5cdd1cd4995c5d595cdd606a1b928201929092529192506000126115cd5760405162461bcd60e51b81526004016102e79190613956565b5080516000908152600460205260408120818155906115ef6001830182612f44565b506002810180546001600160a01b031916905560006003909101558115611627576116278160200151826040015183606001516116a1565b600054604082810151602084015184519251634a3efd6160e11b8152620100009094046001600160a01b03169363947dfac29361166a9392918890600401613c02565b600060405180830381600087803b15801561168457600080fd5b505af1158015611698573d6000803e3d6000fd5b50505050505050565b8015610346576001600160a01b0382166000908152600560205260409081902090518291906116d1908690613969565b9081526020016040518091039020546116ea9190613a00565b6001600160a01b038316600090815260056020526040908190209051611711908690613969565b90815260405190819003602001902055505050565b61172e612f9c565b600061174161173c84611f82565b611fa8565b905060405180604001604052806117718360008151811061176457611764613a18565b60200260200101516120e5565b81526020016117998360018151811061178c5761178c613a18565b6020026020010151612199565b90529392505050565b6117aa612fb6565b60006117b861173c84611f82565b90506040518060e001604052806117db8360008151811061178c5761178c613a18565b81526020016117f68360018151811061178c5761178c613a18565b81526020016118118360028151811061178c5761178c613a18565b81526020016118398360038151811061182c5761182c613a18565b6020026020010151612269565b81526020016118548360048151811061178c5761178c613a18565b815260200161186f8360058151811061182c5761182c613a18565b81526020016117998360068151811061188a5761188a613a18565b60200260200101516122d5565b61189f6130b1565b60208201515115611998576118d782600001518484602001516000815181106118ca576118ca613a18565b60200260200101516116a1565b600060018360200151516118eb91906139e9565b6001600160401b038111156119025761190261325d565b60405190808252806020026020018201604052801561192b578160200160208202803683370190505b50905060005b815181101561199157602084015161194a826001613a00565b8151811061195a5761195a613a18565b602002602001015182828151811061197457611974613a18565b60209081029190910101528061198981613a2e565b915050611931565b5060208301525b50919050565b6000816040516020016119b19190613969565b60405160208183030381529060405280519060200120836040516020016119d89190613969565b6040516020818303038152906040528051906020012014156119fc575060016105ca565b50600092915050565b611a0d6130b1565b81516000546020840151611a3a92916201000090046001600160a01b031690611a3590612409565b6116a1565b50604080516000815260208082019092529082015290565b60408051808201909152606080825260208201526000611a7461173c84611f82565b905060405180604001604052806117718360008151811061178c5761178c613a18565b60408051808201909152600081526060602082015261172e565b81516000908390602a148015611af55750600360fc1b6001600160f81b03191681600081518110611ae457611ae4613a18565b01602001516001600160f81b031916145b8015611b2f5750600f60fb1b6001600160f81b03191681600181518110611b1e57611b1e613a18565b01602001516001600160f81b031916145b8390611b4e5760405162461bcd60e51b81526004016102e79190613956565b5060408051601480825281830190925260009160208201818036833701905050905060008080805b6028811015611ce55785611b8b826002613a00565b81518110611b9b57611b9b613a18565b016020015160f81c935060016030851015611bb4575060005b8460ff166039108015611bca575060418560ff16105b15611bd3575060005b8460ff166046108015611be9575060618560ff16105b15611bf2575060005b8460ff1660661015611c02575060005b80611c21578860405162461bcd60e51b81526004016102e79190613956565b60418560ff161015611c365760309250611c50565b8460ff1660461015611c4b5760579250611c50565b603792505b611c5b600283613c4f565b611c7057611c698386613c63565b9350611cd2565b611c7a8386613c63565b611c85856010613c86565b611c8f9190613caf565b60f81b866002611ca06001866139e9565b611caa9190613cd4565b81518110611cba57611cba613a18565b60200101906001600160f81b031916908160001a9053505b5080611cdd81613a2e565b915050611b76565b50600084604051602001611cf99190613969565b60408051601f198184030181529190526014810151975090506001600160a01b038716611d885760025b8651811015611d8657868181518110611d3e57611d3e613a18565b60209101015189906001600160f81b031916600360fc1b14611d735760405162461bcd60e51b81526004016102e79190613956565b5080611d7e81613a2e565b915050611d23565b505b50505050505092915050565b60606000611da58360000151612457565b611db284602001516124d6565b604051602001611dc3929190613ce8565b6040516020818303038152906040529050611de0815160006124e1565b81604051602001611df2929190613ce8565b604051602081830303815290604052915050919050565b60606000611e1a83600001516124d6565b611db284602001516125af565b60606000611e3761173c84611f82565b905061032c8160008151811061178c5761178c613a18565b60606000611e5f61173c84611f82565b90506000611e8682600081518110611e7957611e79613a18565b6020026020010151611fa8565b905080516001600160401b03811115611ea157611ea161325d565b604051908082528060200260200182016040528015611ed457816020015b6060815260200190600190039081611ebf5790505b50925060005b8151811015611f2857611ef882828151811061178c5761178c613a18565b848281518110611f0a57611f0a613a18565b60200260200101819052508080611f2090613a2e565b915050611eda565b505050919050565b60015460408051808201909152600f81526e0c4c4e955b985d5d1a1bdc9a5e9959608a1b6020820152906001600160a01b0316331461149d5760405162461bcd60e51b81526004016102e79190613956565b611f8a6130cb565b50604080518082019091528151815260209182019181019190915290565b6060611fb3826125ff565b611ff05760405162461bcd60e51b815260206004820152600e60248201526d135d5cdd0818994818481b1a5cdd60921b60448201526064016102e7565b6000611ffb83612638565b90506000816001600160401b038111156120175761201761325d565b60405190808252806020026020018201604052801561205057816020015b61203d6130cb565b8152602001906001900390816120355790505b509050600061206285602001516126bb565b85602001516120719190613a00565b90506000805b848110156120da5761208883612736565b91506040518060400160405280838152602001848152508482815181106120b1576120b1613a18565b60209081029190910101526120c68284613a00565b9250806120d281613a2e565b915050612077565b509195945050505050565b8051600090158015906120fa57508151602110155b61213c5760405162461bcd60e51b815260206004820152601360248201527224b73b30b634b2103ab4b73a10373ab6b132b960691b60448201526064016102e7565b600061214b83602001516126bb565b9050600081846000015161215f91906139e9565b90506000808386602001516121749190613a00565b905080519150602083101561219057826020036101000a820491505b50949350505050565b80516060906121db5760405162461bcd60e51b815260206004820152600e60248201526d092dcecc2d8d2c840d8cadccee8d60931b60448201526064016102e7565b60006121ea83602001516126bb565b905060008184600001516121fe91906139e9565b90506000816001600160401b0381111561221a5761221a61325d565b6040519080825280601f01601f191660200182016040528015612244576020820181803683370190505b50905060008160200190506121908487602001516122629190613a00565b82856127da565b600061227482612199565b60008151811061228657612286613a18565b0160200151600160ff1b90811614156122cc576122a282612199565b516122ae906008613d17565b6122b9906002613e12565b6122c2836120e5565b6105ca9190613e1e565b6105ca826120e5565b6122dd6130b1565b6122e682612859565b156123185750506040805160608101825260008183018181528252825190815260208082019093529181019190915290565b600061232383611fa8565b9050600061233d82600181518110611e7957611e79613a18565b9050600081516001600160401b0381111561235a5761235a61325d565b604051908082528060200260200182016040528015612383578160200160208202803683370190505b50905060005b82518110156123d6576123a783828151811061176457611764613a18565b8282815181106123b9576123b9613a18565b6020908102919091010152806123ce81613a2e565b915050612389565b5060405180604001604052806123f88560008151811061178c5761178c613a18565b815260200191909152949350505050565b600080805b83518110156124505783818151811061242957612429613a18565b60200260200101518261243c9190613a00565b91508061244881613a2e565b91505061240e565b5092915050565b606060006008612466846128b0565b6124709190613cd4565b61247b906001613a00565b90506000612488846128d3565b9050600081518361249991906139e9565b11156124c5576040516124b3906000908390602001613e5d565b60405160208183030381529060405290505b6124ce816125af565b949350505050565b60606105ca826125af565b60606037831180156124f1575081155b15612538576000612501846128d3565b905061250f815160016124e1565b81604051602001612521929190613ce8565b6040516020818303038152906040529150506105ca565b60378311158015612547575081155b1561257d576125578360c0613a00565b6040516020016125679190613e8e565b60405160208183030381529060405290506105ca565b6125888360f7613a00565b6040516020016125989190613e8e565b604051602081830303815290604052905092915050565b606080825160011480156125de57506080836000815181106125d3576125d3613a18565b016020015160f81c11155b156125ea5750816105ca565b6105c76125f984516080612cf1565b84612ea8565b805160009061261057506000919050565b6020820151805160001a9060c082101561262e575060009392505050565b5060019392505050565b805160009061264957506000919050565b60008061265984602001516126bb565b84602001516126689190613a00565b90506000846000015185602001516126809190613a00565b90505b808210156126b25761269482612736565b61269e9083613a00565b9150826126aa81613a2e565b935050612683565b50909392505050565b8051600090811a60808110156126d45750600092915050565b60b88110806126ef575060c081108015906126ef575060f881105b156126fd5750600192915050565b60c081101561272a57612712600160b8613c63565b61271f9060ff16826139e9565b61032c906001613a00565b612712600160f8613c63565b80516000908190811a60808110156127515760019150612450565b60b8811015612777576127656080826139e9565b612770906001613a00565b9150612450565b60c08110156127a45760b78103600185019450806020036101000a85510460018201810193505050612450565b60f88110156127b85761276560c0826139e9565b60019390930151602084900360f7016101000a900490920160f5190192915050565b806127e457505050565b6020811061281c57825182526127fb602084613a00565b9250612808602083613a00565b91506128156020826139e9565b90506127e4565b801561034657600060016128318360206139e9565b61283d90610100613e12565b61284791906139e9565b84518451821691191617835250505050565b805160009060021461286d57506000919050565b6020820151805160019091018051600092831a921a9060f883141580612895575060ff821615155b156128a557506000949350505050565b506001949350505050565b6000805b82156105ca576128c5600182613a00565b9050600183901c92506128b4565b606060ff82101561290557816040516020016128ef9190613e8e565b6040516020818303038152906040529050919050565b60ff8210801590612917575061ffff82105b1561293b576040516001600160f01b031960f084901b1660208201526022016128ef565b61ffff821080159061294f575062ffffff82105b15612973576040516001600160e81b031960e884901b1660208201526023016128ef565b62ffffff8210801590612989575063ffffffff82105b156129ad576040516001600160e01b031960e084901b1660208201526024016128ef565b63ffffffff82108015906129c5575064ffffffffff82105b156129e9576040516001600160d81b031960d884901b1660208201526025016128ef565b64ffffffffff8210801590612a03575065ffffffffffff82105b15612a27576040516001600160d01b031960d084901b1660208201526026016128ef565b65ffffffffffff8210801590612a43575066ffffffffffffff82105b15612a67576040516001600160c81b031960c884901b1660208201526027016128ef565b66ffffffffffffff8210801590612a8457506001600160401b0382105b15612aa8576040516001600160c01b031960c084901b1660208201526028016128ef565b6001600160401b038210801590612ac557506001600160481b0382105b15612ae9576040516001600160b81b031960b884901b1660208201526029016128ef565b6001600160481b038210801590612b0657506001600160501b0382105b15612b2a576040516001600160b01b031960b084901b166020820152602a016128ef565b6001600160501b038210801590612b4757506001600160581b0382105b15612b6b576040516001600160a81b031960a884901b166020820152602b016128ef565b6001600160581b038210801590612b8857506001600160601b0382105b15612bac576040516001600160a01b031960a084901b166020820152602c016128ef565b6001600160601b038210801590612bc957506001600160681b0382105b15612bed576040516001600160981b0319609884901b166020820152602d016128ef565b6001600160681b038210801590612c0a57506001600160701b0382105b15612c2e576040516001600160901b0319609084901b166020820152602e016128ef565b6001600160701b038210801590612c4b57506001600160781b0382105b15612c6f576040516001600160881b0319608884901b166020820152602f016128ef565b6001600160781b038210801590612c8c57506001600160801b0382105b612cd25760405162461bcd60e51b81526020600482015260176024820152766f75744f66426f756e64733a205b302c20325e3132385d60481b60448201526064016102e7565b6040516001600160801b0319608084901b1660208201526030016128ef565b6060806038841015612d5b5760408051600180825281830190925290602082018180368337019050509050612d268385613a00565b601f1a60f81b81600081518110612d3f57612d3f613a18565b60200101906001600160f81b031916908160001a9053506105c7565b600060015b612d6a8187613cd4565b15612d905781612d7981613a2e565b9250612d89905061010082613d17565b9050612d60565b612d9b826001613a00565b6001600160401b03811115612db257612db261325d565b6040519080825280601f01601f191660200182016040528015612ddc576020820181803683370190505b509250612de98583613a00565b612df4906037613a00565b601f1a60f81b83600081518110612e0d57612e0d613a18565b60200101906001600160f81b031916908160001a905350600190505b818111612e9e57610100612e3d82846139e9565b612e4990610100613e12565b612e539088613cd4565b612e5d9190613c4f565b601f1a60f81b838281518110612e7557612e75613a18565b60200101906001600160f81b031916908160001a90535080612e9681613a2e565b915050612e29565b5050905092915050565b6060806040519050835180825260208201818101602087015b81831015612ed9578051835260209283019201612ec1565b50855184518101855292509050808201602086015b81831015612f06578051835260209283019201612eee565b508651929092011591909101601f01601f191660405250905092915050565b604051806040016040528060008152602001612f3f6130b1565b905290565b508054612f5090613985565b6000825580601f10612f60575050565b601f01602090049060005260206000209081019061149d91906130e5565b508054600082559060005260206000209081019061149d91906130e5565b604051806040016040528060008152602001606081525090565b6040518060e00160405280606081526020016060815260200160608152602001600081526020016060815260200160008152602001612f3f6130b1565b828054612fff90613985565b90600052602060002090601f0160209004810192826130215760008555613067565b82601f1061303a57805160ff1916838001178555613067565b82800160010185558215613067579182015b8281111561306757825182559160200191906001019061304c565b506130739291506130e5565b5090565b828054828255906000526020600020908101928215613067579160200282018281111561306757825182559160200191906001019061304c565b604051806040016040528060608152602001606081525090565b604051806040016040528060008152602001600081525090565b5b8082111561307357600081556001016130e6565b60008083601f84011261310c57600080fd5b5081356001600160401b0381111561312357600080fd5b60208301915083602082850101111561313b57600080fd5b9250929050565b60008060008060008060008060a0898b03121561315e57600080fd5b88356001600160401b038082111561317557600080fd5b6131818c838d016130fa565b909a50985060208b013591508082111561319a57600080fd5b6131a68c838d016130fa565b909850965060408b0135955060608b0135945060808b01359150808211156131cd57600080fd5b506131da8b828c016130fa565b999c989b5096995094979396929594505050565b80356001600160a01b038116811461320557600080fd5b919050565b60008060006040848603121561321f57600080fd5b83356001600160401b0381111561323557600080fd5b613241868287016130fa565b90945092506132549050602085016131ee565b90509250925092565b634e487b7160e01b600052604160045260246000fd5b604080519081016001600160401b03811182821017156132955761329561325d565b60405290565b604051601f8201601f191681016001600160401b03811182821017156132c3576132c361325d565b604052919050565b60006001600160401b038211156132e4576132e461325d565b50601f01601f191660200190565b6000613305613300846132cb565b61329b565b905082815283838301111561331957600080fd5b828260208301376000602084830101529392505050565b600082601f83011261334157600080fd5b6105c7838335602085016132f2565b60008060006060848603121561336557600080fd5b83356001600160401b0381111561337b57600080fd5b61338786828701613330565b935050613396602085016131ee565b9150604084013590509250925092565b6000806000606084860312156133bb57600080fd5b83356001600160401b03808211156133d257600080fd5b6133de87838801613330565b945060208601359150808211156133f457600080fd5b5061340186828701613330565b925050604084013590509250925092565b60005b8381101561342d578181015183820152602001613415565b8381111561343c576000848401525b50505050565b6000815180845261345a816020860160208601613412565b601f01601f19169290920160200192915050565b60008151604084526134836040850182613442565b60208481015186830387830152805180845290820193509091600091908301905b808310156134c457845182529383019360019290920191908301906134a4565b509695505050505050565b6020815281516020820152600060208301516040808401526124ce606084018261346e565b6000806020838503121561350757600080fd5b82356001600160401b0381111561351d57600080fd5b613529858286016130fa565b90969095509350505050565b6020815281516020820152600060208301516040808401526124ce6060840182613442565b6001600160a01b0391909116815260200190565b6000806040838503121561358157600080fd5b61358a836131ee565b915060208301356001600160401b038111156135a557600080fd5b8301601f810185136135b657600080fd5b6135c5858235602084016132f2565b9150509250929050565b602081526000825160e060208401526135ec610100840182613442565b90506020840151601f198085840301604086015261360a8383613442565b925060408601519150808584030160608601526136278383613442565b92506060860151608086015260808601519150808584030160a086015261364e8383613442565b925060a086015160c086015260c08601519150808584030160e086015250613676828261346e565b95945050505050565b600082601f83011261369057600080fd5b813560206001600160401b038211156136ab576136ab61325d565b8160051b6136ba82820161329b565b92835284810182019282810190878511156136d457600080fd5b83870192505b848310156136f3578235825291830191908301906136da565b979650505050505050565b60008060006060848603121561371357600080fd5b83356001600160401b038082111561372a57600080fd5b61373687838801613330565b945060208601359350604086013591508082111561375357600080fd5b908501906040828803121561376757600080fd5b61376f613273565b82358281111561377e57600080fd5b61378a89828601613330565b82525060208301358281111561379f57600080fd5b6137ab8982860161367f565b6020830152508093505050509250925092565b6020815260006105c7602083018461346e565b60008060008060008060006080888a0312156137ec57600080fd5b87356001600160401b038082111561380357600080fd5b61380f8b838c016130fa565b909950975060208a013591508082111561382857600080fd5b6138348b838c016130fa565b909750955060408a0135945060608a013591508082111561385457600080fd5b506138618a828b016130fa565b989b979a50959850939692959293505050565b60006020828403121561388657600080fd5b6105c7826131ee565b600080604083850312156138a257600080fd5b82356001600160401b03808211156138b957600080fd5b6138c586838701613330565b935060208501359150808211156138db57600080fd5b506135c58582860161367f565b600080600080608085870312156138fe57600080fd5b8435935060208501356001600160401b0381111561391b57600080fd5b61392787828801613330565b935050613936604086016131ee565b9396929550929360600135925050565b8183823760009101908152919050565b6020815260006105c76020830184613442565b6000825161397b818460208701613412565b9190910192915050565b600181811c9082168061399957607f821691505b6020821081141561199857634e487b7160e01b600052602260045260246000fd5b6000602082840312156139cc57600080fd5b5051919050565b634e487b7160e01b600052601160045260246000fd5b6000828210156139fb576139fb6139d3565b500390565b60008219821115613a1357613a136139d3565b500190565b634e487b7160e01b600052603260045260246000fd5b6000600019821415613a4257613a426139d3565b5060010190565b60006001600160ff1b0381841382841380821686840486111615613a6f57613a6f6139d3565b600160ff1b6000871282811687830589121615613a8e57613a8e6139d3565b60008712925087820587128484161615613aaa57613aaa6139d3565b87850587128184161615613ac057613ac06139d3565b505050929093029392505050565b81835281816020850137506000828201602090810191909152601f909101601f19169091010190565b608081526000613b0b608083018789613ace565b8281036020840152613b1d8187613442565b90508460408401528281036060840152613b378185613442565b98975050505050505050565b604081526000613b57604083018587613ace565b8281036020840152613b698185613442565b9695505050505050565b600060208284031215613b8557600080fd5b815180151581146105c757600080fd5b600060208284031215613ba757600080fd5b81516001600160401b03811115613bbd57600080fd5b8201601f81018413613bce57600080fd5b8051613bdc613300826132cb565b818152856020838501011115613bf157600080fd5b613676826020830160208601613412565b6001600160a01b0385168152608060208201819052600090613c2690830186613442565b6040830194909452506060015292915050565b634e487b7160e01b600052601260045260246000fd5b600082613c5e57613c5e613c39565b500690565b600060ff821660ff841680821015613c7d57613c7d6139d3565b90039392505050565b600060ff821660ff84168160ff0481118215151615613ca757613ca76139d3565b029392505050565b600060ff821660ff84168060ff03821115613ccc57613ccc6139d3565b019392505050565b600082613ce357613ce3613c39565b500490565b60008351613cfa818460208801613412565b835190830190613d0e818360208801613412565b01949350505050565b6000816000190483118215151615613d3157613d316139d3565b500290565b600181815b80851115613d71578160001904821115613d5757613d576139d3565b80851615613d6457918102915b93841c9390800290613d3b565b509250929050565b600082613d88575060016105ca565b81613d95575060006105ca565b8160018114613dab5760028114613db557613dd1565b60019150506105ca565b60ff841115613dc657613dc66139d3565b50506001821b6105ca565b5060208310610133831016604e8410600b8410161715613df4575081810a6105ca565b613dfe8383613d36565b8060001904821115613ca757613ca76139d3565b60006105c78383613d79565b60008083128015600160ff1b850184121615613e3c57613e3c6139d3565b6001600160ff1b0384018313811615613e5757613e576139d3565b50500390565b6001600160f81b0319831681528151600090613e80816001850160208701613412565b919091016001019392505050565b60f89190911b6001600160f81b03191681526001019056fea26469706673582212207776e5823c48cb2fb4e1d42e865944d12c298b8c2f822fc87c5f559000d35db064736f6c634300080c0033",
  "linkReferences": {},
  "deployedLinkReferences": {}
}