{
  "_format": "hh-sol-artifact-1",
  "contractName": "BMCPeriphery",
  "sourceName": "solidity/contracts/bmc/BMCPeriphery.sol",
  "abi": [
    {
      "anonymous": false,
      "inputs": [
        {
          "indexed": false,
          "internalType": "string",
          "name": "_src",
          "type": "string"
        },
        {
          "indexed": false,
          "internalType": "int256",
          "name": "_nsn",
          "type": "int256"
        },
        {
          "indexed": false,
          "internalType": "string",
          "name": "_next",
          "type": "string"
        },
        {
          "indexed": false,
          "internalType": "string",
          "name": "_event",
          "type": "string"
        }
      ],
      "name": "BTPEvent",
      "type": "event"
    },
    {
      "anonymous": false,
      "inputs": [
        {
          "indexed": false,
          "internalType": "address",
          "name": "_sender",
          "type": "address"
        },
        {
          "indexed": false,
          "internalType": "string",
          "name": "_network",
          "type": "string"
        },
        {
          "indexed": false,
          "internalType": "string",
          "name": "_receiver",
          "type": "string"
        },
        {
          "indexed": false,
          "internalType": "uint256",
          "name": "_amount",
          "type": "uint256"
        },
        {
          "indexed": false,
          "internalType": "int256",
          "name": "_nsn",
          "type": "int256"
        }
      ],
      "name": "ClaimReward",
      "type": "event"
    },
    {
      "anonymous": false,
      "inputs": [
        {
          "indexed": false,
          "internalType": "address",
          "name": "_sender",
          "type": "address"
        },
        {
          "indexed": false,
          "internalType": "string",
          "name": "_network",
          "type": "string"
        },
        {
          "indexed": false,
          "internalType": "int256",
          "name": "_nsn",
          "type": "int256"
        },
        {
          "indexed": false,
          "internalType": "uint256",
          "name": "_result",
          "type": "uint256"
        }
      ],
      "name": "ClaimRewardResult",
      "type": "event"
    },
    {
      "anonymous": false,
      "inputs": [
        {
          "indexed": false,
          "internalType": "uint8",
          "name": "version",
          "type": "uint8"
        }
      ],
      "name": "Initialized",
      "type": "event"
    },
    {
      "anonymous": false,
      "inputs": [
        {
          "indexed": false,
          "internalType": "string",
          "name": "_next",
          "type": "string"
        },
        {
          "indexed": false,
          "internalType": "uint256",
          "name": "_seq",
          "type": "uint256"
        },
        {
          "indexed": false,
          "internalType": "bytes",
          "name": "_msg",
          "type": "bytes"
        }
      ],
      "name": "Message",
      "type": "event"
    },
    {
      "anonymous": false,
      "inputs": [
        {
          "indexed": false,
          "internalType": "string",
          "name": "_prev",
          "type": "string"
        },
        {
          "indexed": false,
          "internalType": "uint256",
          "name": "_seq",
          "type": "uint256"
        },
        {
          "indexed": false,
          "internalType": "bytes",
          "name": "_msg",
          "type": "bytes"
        },
        {
          "indexed": false,
          "internalType": "uint256",
          "name": "_ecode",
          "type": "uint256"
        },
        {
          "indexed": false,
          "internalType": "string",
          "name": "_emsg",
          "type": "string"
        }
      ],
      "name": "MessageDropped",
      "type": "event"
    },
    {
      "inputs": [
        {
          "internalType": "string",
          "name": "_network",
          "type": "string"
        },
        {
          "internalType": "string",
          "name": "_receiver",
          "type": "string"
        }
      ],
      "name": "claimReward",
      "outputs": [],
      "stateMutability": "payable",
      "type": "function"
    },
    {
      "inputs": [
        {
          "internalType": "string",
          "name": "_link",
          "type": "string"
        }
      ],
      "name": "clearSeq",
      "outputs": [],
      "stateMutability": "nonpayable",
      "type": "function"
    },
    {
      "inputs": [
        {
          "internalType": "string",
          "name": "_prev",
          "type": "string"
        },
        {
          "internalType": "uint256",
          "name": "_seq",
          "type": "uint256"
        },
        {
          "components": [
            {
              "internalType": "string",
              "name": "src",
              "type": "string"
            },
            {
              "internalType": "string",
              "name": "dst",
              "type": "string"
            },
            {
              "internalType": "string",
              "name": "svc",
              "type": "string"
            },
            {
              "internalType": "int256",
              "name": "sn",
              "type": "int256"
            },
            {
              "internalType": "bytes",
              "name": "message",
              "type": "bytes"
            },
            {
              "internalType": "int256",
              "name": "nsn",
              "type": "int256"
            },
            {
              "components": [
                {
                  "internalType": "string",
                  "name": "network",
                  "type": "string"
                },
                {
                  "internalType": "uint256[]",
                  "name": "values",
                  "type": "uint256[]"
                }
              ],
              "internalType": "struct Types.FeeInfo",
              "name": "feeInfo",
              "type": "tuple"
            }
          ],
          "internalType": "struct Types.BTPMessage",
          "name": "_msg",
          "type": "tuple"
        }
      ],
      "name": "dropMessage",
      "outputs": [],
      "stateMutability": "nonpayable",
      "type": "function"
    },
    {
      "inputs": [
        {
          "internalType": "address",
          "name": "_sender",
          "type": "address"
        },
        {
          "internalType": "string",
          "name": "_network",
          "type": "string"
        },
        {
          "internalType": "int256",
          "name": "_nsn",
          "type": "int256"
        },
        {
          "internalType": "uint256",
          "name": "_result",
          "type": "uint256"
        }
      ],
      "name": "emitClaimRewardResult",
      "outputs": [],
      "stateMutability": "nonpayable",
      "type": "function"
    },
    {
      "inputs": [],
      "name": "getBtpAddress",
      "outputs": [
        {
          "internalType": "string",
          "name": "",
          "type": "string"
        }
      ],
      "stateMutability": "view",
      "type": "function"
    },
    {
      "inputs": [
        {
          "internalType": "string",
          "name": "_to",
          "type": "string"
        },
        {
          "internalType": "bool",
          "name": "_response",
          "type": "bool"
        }
      ],
      "name": "getFee",
      "outputs": [
        {
          "internalType": "uint256",
          "name": "",
          "type": "uint256"
        }
      ],
      "stateMutability": "view",
      "type": "function"
    },
    {
      "inputs": [],
      "name": "getNetworkAddress",
      "outputs": [
        {
          "internalType": "string",
          "name": "",
          "type": "string"
        }
      ],
      "stateMutability": "view",
      "type": "function"
    },
    {
      "inputs": [],
      "name": "getNetworkSn",
      "outputs": [
        {
          "internalType": "int256",
          "name": "",
          "type": "int256"
        }
      ],
      "stateMutability": "view",
      "type": "function"
    },
    {
      "inputs": [
        {
          "internalType": "string",
          "name": "_network",
          "type": "string"
        },
        {
          "internalType": "address",
          "name": "_addr",
          "type": "address"
        }
      ],
      "name": "getReward",
      "outputs": [
        {
          "internalType": "uint256",
          "name": "",
          "type": "uint256"
        }
      ],
      "stateMutability": "view",
      "type": "function"
    },
    {
      "inputs": [
        {
          "internalType": "string",
          "name": "_link",
          "type": "string"
        }
      ],
      "name": "getStatus",
      "outputs": [
        {
          "components": [
            {
              "internalType": "uint256",
              "name": "rxSeq",
              "type": "uint256"
            },
            {
              "internalType": "uint256",
              "name": "txSeq",
              "type": "uint256"
            },
            {
              "components": [
                {
                  "internalType": "uint256",
                  "name": "height",
                  "type": "uint256"
                },
                {
                  "internalType": "bytes",
                  "name": "extra",
                  "type": "bytes"
                }
              ],
              "internalType": "struct IBMV.VerifierStatus",
              "name": "verifier",
              "type": "tuple"
            },
            {
              "internalType": "uint256",
              "name": "currentHeight",
              "type": "uint256"
            }
          ],
          "internalType": "struct Types.LinkStatus",
          "name": "",
          "type": "tuple"
        }
      ],
      "stateMutability": "view",
      "type": "function"
    },
    {
      "inputs": [
        {
          "internalType": "string",
          "name": "_prev",
          "type": "string"
        },
        {
          "internalType": "bytes",
          "name": "_msg",
          "type": "bytes"
        }
      ],
      "name": "handleRelayMessage",
      "outputs": [],
      "stateMutability": "nonpayable",
      "type": "function"
    },
    {
      "inputs": [
        {
          "internalType": "string",
          "name": "_network",
          "type": "string"
        },
        {
          "internalType": "address",
          "name": "_bmcManagementAddr",
          "type": "address"
        },
        {
          "internalType": "address",
          "name": "_bmcServiceAddr",
          "type": "address"
        }
      ],
      "name": "initialize",
      "outputs": [],
      "stateMutability": "nonpayable",
      "type": "function"
    },
    {
      "inputs": [
        {
          "internalType": "string",
          "name": "_next",
          "type": "string"
        },
        {
          "internalType": "bytes",
          "name": "_msg",
          "type": "bytes"
        }
      ],
      "name": "sendInternal",
      "outputs": [],
      "stateMutability": "nonpayable",
      "type": "function"
    },
    {
      "inputs": [
        {
          "internalType": "string",
          "name": "_to",
          "type": "string"
        },
        {
          "internalType": "string",
          "name": "_svc",
          "type": "string"
        },
        {
          "internalType": "int256",
          "name": "_sn",
          "type": "int256"
        },
        {
          "internalType": "bytes",
          "name": "_msg",
          "type": "bytes"
        }
      ],
      "name": "sendMessage",
      "outputs": [
        {
          "internalType": "int256",
          "name": "",
          "type": "int256"
        }
      ],
      "stateMutability": "payable",
      "type": "function"
    },
    {
      "stateMutability": "payable",
      "type": "receive"
    }
  ],
  "bytecode": "0x608060405234801561001057600080fd5b50615da980620000216000396000f3fe6080604052600436106100b15760003560e01c8063019d2420146100bd57806321b1e9bb146100df57806322b05ed2146100ff57806339ff9dc114610135578063463fd1af146101555780634f63a21d14610175578063522a901e1461019757806364cd3750146101b8578063676286ba146101d85780636bf459cb146101ed5780637d4c4f4a14610202578063947dfac214610222578063cb7477b514610242578063df9ccb101461025557600080fd5b366100b857005b600080fd5b3480156100c957600080fd5b506100dd6100d836600461418e565b610275565b005b3480156100eb57600080fd5b506100dd6100fa366004614203565b6102c4565b34801561010b57600080fd5b5061011f61011a36600461426e565b610982565b60405161012c9190614307565b60405180910390f35b34801561014157600080fd5b506100dd61015036600461445a565b610b05565b34801561016157600080fd5b506100dd6101703660046145b3565b610be9565b34801561018157600080fd5b5061018a610d61565b60405161012c9190614616565b6101aa6101a5366004614629565b610df3565b60405190815260200161012c565b3480156101c457600080fd5b506101aa6101d33660046146ba565b610f01565b3480156101e457600080fd5b506007546101aa565b3480156101f957600080fd5b5061018a610f80565b34801561020e57600080fd5b506101aa61021d366004614713565b610f8f565b34801561022e57600080fd5b506100dd61023d36600461475e565b611017565b6100dd610250366004614203565b611054565b34801561026157600080fd5b506100dd6102703660046147bd565b61148d565b61027d61166d565b60068160405161028d9190614820565b9081526020016040518091039020600090556005816040516102af9190614820565b90815260200160405180910390206000905550565b600061030585858080601f0160208091040260200160405190810160405280939291908181526020018383808284376000920191909152506116c292505050565b905060006006868660405161031b92919061483c565b90815260405190819003602001812054600354630f7a555160e21b83529092506060916000916001600160a01b031690633de955449061035f908790600401614616565b602060405180830381865afa15801561037c573d6000803e3d6000fd5b505050506040513d601f19601f820116820180604052508101906103a0919061484c565b6040516355272d2f60e01b81529091506001600160a01b038216906355272d2f906103da906001908c908c9089908d908d906004016148cd565b6000604051808303816000875af192505050801561041a57506040513d6000823e601f3d908101601f191682016040526104179190810190614a02565b60015b6104d357610426614abd565b806308c379a01415610469575061043b614ad9565b80610446575061046b565b8060405162461bcd60e51b81526004016104609190614616565b60405180910390fd5b505b3d808015610495576040519150601f19603f3d011682016040523d82523d6000602084013e61049a565b606091505b50604080518082018252600a815269191a9d2ab735b737bbb760b11b6020820152905162461bcd60e51b81526104609190600401614616565b60035460405163c265ab8560e01b81529193506001600160a01b03169063c265ab8590610508908b908b903390600401614b62565b602060405180830381865afa158015610525573d6000803e3d6000fd5b505050506040513d601f19601f820116820180604052508101906105499190614b8e565b6040518060400160405280600f81526020016e0c4c4e955b985d5d1a1bdc9a5e9959608a1b8152509061058f5760405162461bcd60e51b81526004016104609190614616565b50610598613f0b565b60005b835181101561094057846105ae81614bc1565b60045486519197506001600160a01b031691506387df8a9a9033908790859081106105db576105db614bdc565b60200260200101516040518363ffffffff1660e01b8152600401610600929190614bf2565b6000604051808303816000875af192505050801561064057506040513d6000823e601f3d908101601f1916820160405261063d9190810190614cfd565b60015b6106db5761064c614abd565b806308c379a0141561066c5750610661614ad9565b80610446575061066e565b505b3d808015610698576040519150601f19603f3d011682016040523d82523d6000602084013e61069d565b606091505b50604080518082018252600f81526e31303a45727248616e646c6546656560881b6020820152905162461bcd60e51b81526104609190600401614616565b9150610777600280546106ed90614869565b80601f016020809104026020016040519081016040528092919081815260200182805461071990614869565b80156107665780601f1061073b57610100808354040283529160200191610766565b820191906000526020600020905b81548152906001019060200180831161074957829003601f168201915b5050506020860151929150506116d8565b15610846576000806107c08c8c8080601f01602080910402602001604051908101604052809392919081815260200183838082843760009201919091525088925061173f915050565b91509150600082141561080b576108068460405180602001604052806000815250604051806040016040528060078152602001665245434549564560c81b815250611b13565b61083f565b6000846060015113156108315761082f846000015185604001518660600151611b93565b505b61083f8c8c89878686611c15565b505061092e565b60035460208301516040516378ad5a7d60e01b81526001600160a01b03909216916378ad5a7d9161087991600401614616565b600060405180830381865afa9250505080156108b757506040513d6000823e601f3d908101601f191682016040526108b49190810190614e0d565b60015b610904576108c3614abd565b806308c379a014156108f857506108d8614ad9565b806108e357506108fa565b6108f28b8b8886600286611c15565b5061092e565b505b3d6000803e3d6000fd5b61092c818460405180604001604052806005815260200164524f55544560d81b815250611e9f565b505b8061093881614bc1565b91505061059b565b50825160068a8a60405161095592919061483c565b908152602001604051809103902060008282546109729190614e41565b9091555050505050505050505050565b61098a613f4d565b6040518060800160405280600685856040516109a792919061483c565b9081526020016040518091039020548152602001600585856040516109cd92919061483c565b90815260408051602092819003830190205483526003548151601f8801849004840281018401909252868252928201926001600160a01b031691633de9554491610a319189908990819084018382808284376000920191909152506116c292505050565b6040518263ffffffff1660e01b8152600401610a4d9190614616565b602060405180830381865afa158015610a6a573d6000803e3d6000fd5b505050506040513d601f19601f82011682018060405250810190610a8e919061484c565b6001600160a01b0316634e69d5606040518163ffffffff1660e01b8152600401600060405180830381865afa158015610acb573d6000803e3d6000fd5b505050506040513d6000823e601f3d908101601f19168201604052610af39190810190614e59565b81526020014381525090505b92915050565b610b0d61166d565b60068484604051610b1f92919061483c565b9081526020016040518091039020546001610b3a9190614e41565b82146040518060400160405280600d81526020016c31303a496e76616c696453657160981b81525090610b805760405162461bcd60e51b81526004016104609190614616565b5060068484604051610b9392919061483c565b9081526040519081900360200190208054906000610bb083614bc1565b9190505550610be384848484600160405180604001604052806007815260200166032323a44726f760cc1b815250611c15565b50505050565b600054610100900460ff1615808015610c095750600054600160ff909116105b80610c235750303b158015610c23575060005460ff166001145b610c865760405162461bcd60e51b815260206004820152602e60248201527f496e697469616c697a61626c653a20636f6e747261637420697320616c72656160448201526d191e481a5b9a5d1a585b1a5e995960921b6064820152608401610460565b6000805460ff191660011790558015610ca9576000805461ff0019166101001790555b8351610cbc906002906020870190613f90565b50610cd0610cc930611f3d565b8590611f48565b8051610ce491600191602090910190613f90565b50600380546001600160a01b038086166001600160a01b03199283161790925560048054928516929091169190911790558015610be3576000805461ff0019169055604051600181527f7f26b83ff96e1f2b6a682f133852f6798a09c465da95921460cefb3847402498906020015b60405180910390a150505050565b606060018054610d7090614869565b80601f0160208091040260200160405190810160405280929190818152602001828054610d9c90614869565b8015610de95780601f10610dbe57610100808354040283529160200191610de9565b820191906000526020600020905b815481529060010190602001808311610dcc57829003601f168201915b5050505050905090565b6004546000906001600160a01b03163314610ecb57600354604051633ca3ac5f60e11b815233916001600160a01b03169063794758be90610e38908890600401614616565b602060405180830381865afa158015610e55573d6000803e3d6000fd5b505050506040513d601f19601f82011682018060405250810190610e79919061484c565b6001600160a01b0316146040518060400160405280600f81526020016e0c4c4e955b985d5d1a1bdc9a5e9959608a1b81525090610ec95760405162461bcd60e51b81526004016104609190614616565b505b600080841215610ee857610ee184600019614ed3565b9350600190505b610ef786868686856000611faf565b9695505050505050565b6004805460405163064cd37560e41b81526000926001600160a01b03909216916364cd375091610f379188918891889101614b62565b602060405180830381865afa158015610f54573d6000803e3d6000fd5b505050506040513d601f19601f82011682018060405250810190610f789190614f58565b949350505050565b606060028054610d7090614869565b600354604051633ea627a560e11b815260009182916001600160a01b0390911690637d4c4f4a90610fc890889088908890600401614f71565b600060405180830381865afa158015610fe5573d6000803e3d6000fd5b505050506040513d6000823e601f3d908101601f1916820160405261100d9190810190614f97565b5095945050505050565b61101f61248f565b7fe4a536fde1966a83411167748abc5fbd80e0247bffe941ca4ddb5079fd73063684848484604051610d539493929190614fd4565b6003546040805163bef47adf60e01b8152905133926001600160a01b03169163bef47adf9160048083019260209291908290030181865afa15801561109d573d6000803e3d6000fd5b505050506040513d601f19601f820116820180604052508101906110c1919061484c565b6001600160a01b0316816001600160a01b031614156110dd5750305b6004805460405163149324c760e11b81526000926001600160a01b0390921691632926498e91611113918a918a91889101614b62565b6020604051808303816000875af1158015611132573d6000803e3d6000fd5b505050506040513d601f19601f820116820180604052508101906111569190614f58565b9050600061122e87878080601f01602080910402602001604051908101604052809392919081815260200183838082843760009201919091525050600280549092506111a29150614869565b80601f01602080910402602001604051908101604052809291908181526020018280546111ce90614869565b801561121b5780601f106111f05761010080835404028352916020019161121b565b820191906000526020600020905b8154815290600101906020018083116111fe57829003601f168201915b50505050506116d890919063ffffffff16565b156112de576112a0604051806040016040528060128152602001710c4c0e925b9d985b1a59105c99dd5b595b9d60721b81525086868080601f01602080910402602001604051908101604052809392919081815260200183838082843760009201919091525092939250506124e19050565b6001600160a01b03166108fc839081150290604051600060405180830381858888f193505050501580156112d8573d6000803e3d6000fd5b50611441565b6113d687878080601f016020809104026020016040519081016040528093929190818152602001838380828437600081840152601f19601f8201169050808301925050505050505060405180604001604052806003815260200162626d6360e81b81525060006113cd604051806040016040528060405180604001604052806005815260200164436c61696d60d81b81525081526020016113c660405180604001604052808b81526020018e8e8080601f01602080910402602001604051908101604052809392919081815260200183838082843760009201919091525050509152506127c4565b9052612839565b60006001611faf565b6004805460405163e04fc02560e01b81529293506001600160a01b03169163e04fc0259161140e9185918c918c918a918a910161500b565b600060405180830381600087803b15801561142857600080fd5b505af115801561143c573d6000803e3d6000fd5b505050505b7f92a1bf3ab6e4839bb58db5f99ae98936355e94c1223779807563d1a08a3bf4498388888888878760405161147c9796959493929190615042565b60405180910390a150505050505050565b61149561166d565b611669826040518060e00160405280600280546114b190614869565b80601f01602080910402602001604051908101604052809291908181526020018280546114dd90614869565b801561152a5780601f106114ff5761010080835404028352916020019161152a565b820191906000526020600020905b81548152906001019060200180831161150d57829003601f168201915b5050505050815260200161153d866116c2565b815260200160405180604001604052806003815260200162626d6360e81b815250815260200160008152602001848152602001611578612857565b815260200160405180604001604052806002805461159590614869565b80601f01602080910402602001604051908101604052809291908181526020018280546115c190614869565b801561160e5780601f106115e35761010080835404028352916020019161160e565b820191906000526020600020905b8154815290600101906020018083116115f157829003601f168201915b50505091835250506020016000604051908082528060200260200182016040528015611644578160200160208202803683370190505b509052905260408051808201909152600481526314d1539160e21b6020820152611e9f565b5050565b60035460408051808201909152600f81526e0c4c4e955b985d5d1a1bdc9a5e9959608a1b6020820152906001600160a01b031633146116bf5760405162461bcd60e51b81526004016104609190614616565b50565b6060610aff8260066116d385612872565b612a46565b6000816040516020016116eb9190614820565b60405160208183030381529060405280519060200120836040516020016117129190614820565b60405160208183030381529060405280519060200120141561173657506001610aff565b50600092915050565b6000606060008060006004905061177e60405180604001604052806003815260200162626d6360e81b81525087604001516116d890919063ffffffff16565b156117d95760045460608701516001600160a01b0390911692506000138015906117ac575060008660a00151125b156117c95760a08601516117c290600019614ed3565b92506117d1565b8560a0015192505b50600161188a565b6003546040808801519051633ca3ac5f60e11b81526001600160a01b039092169163794758be9161180c91600401614616565b602060405180830381865afa925050508015611845575060408051601f3d908101601f191682019092526118429181019061484c565b60015b61188057611851614abd565b806308c379a014156108f85750611866614ad9565b8061187157506108fa565b600395509350611b0c92505050565b9150856060015192505b6060600087606001511261197257865160408089015160808a0151915163b70eeb8d60e01b81526001600160a01b0387169363b70eeb8d936118d39391928a9190600401615091565b600060405180830381600087803b1580156118ed57600080fd5b505af19250505080156118fe575060015b6119695761190a614abd565b806308c379a01415611931575061191f614ad9565b8061192a5750611933565b9050611b04565b505b3d80801561195d576040519150601f19603f3d011682016040523d82523d6000602084013e611962565b606091505b5050611b04565b60009150611b04565b6004805460808901516040516364945d5d60e01b81526001600160a01b03909216926364945d5d926119a5929101614616565b600060405180830381865afa9250505080156119e357506040513d6000823e601f3d908101601f191682016040526119e09190810190614e59565b60015b611a1757505060408051808201909152600f81526e31303a50617273654661696c75726560881b6020820152600190611b04565b875160408901516001600160a01b03861691630a823dea91611a3b89600019614ed3565b855160208701516040516001600160e01b031960e088901b168152611a679594939291906004016150db565b600060405180830381600087803b158015611a8157600080fd5b505af1925050508015611a92575060015b611afd57611a9e614abd565b806308c379a01415611ac55750611ab3614ad9565b80611abe5750611ac7565b9150611b02565b505b3d808015611af1576040519150601f19603f3d011682016040523d82523d6000602084013e611af6565b606091505b5050611b02565b600092505b505b909450925050505b9250929050565b60008360a001511215611b6557600080516020615d5483398151915283602001518460a00151600019611b469190614ed3565b8484604051611b58949392919061512c565b60405180910390a1505050565b825160a0840151604051600080516020615d5483398151915292611b589290918690869061512c565b505050565b611b9b614014565b600480546040516328e9442960e11b81526001600160a01b03909116916351d2885291611bce918891889188910161516b565b6000604051808303816000875af1158015611bed573d6000803e3d6000fd5b505050506040513d6000823e601f3d908101601f19168201604052610f7891908101906151a1565b600480548451606086015160c0870151604051634d601a0560e11b81526001600160a01b0390941694639ac0340a94611c51949392910161520c565b6000604051808303816000875af1158015611c70573d6000803e3d6000fd5b505050506040513d6000823e601f3d908101601f19168201604052611c98919081019061528e565b60c0840152606083015160001215611e1757611e1286868080601f016020809104026020016040519081016040528093929190818152602001838380828437600092019190915250506040805160e081019091526002805491935083925090611d0090614869565b80601f0160208091040260200160405190810160405280929190818152602001828054611d2c90614869565b8015611d795780601f10611d4e57610100808354040283529160200191611d79565b820191906000526020600020905b815481529060010190602001808311611d5c57829003601f168201915b5050505050815260200186600001518152602001866040015181526020018660600151600019611da99190614ed3565b8152602001611dcb6040518060400160405280888152602001878152506127c4565b81526020018660a00151600019611de29190614ed3565b81526020018660c001518152506040518060400160405280600581526020016422a92927a960d91b815250611e9f565b611e97565b611e4d836040518060200160405280600081525060405180604001604052806004815260200163044524f560e41b815250611b13565b7f35348898083dc8da7eb4e604320d7cc250732cc1f584d2596f670b5d6bab8de5868686611e7a87612b15565b8686604051611e8e969594939291906152c2565b60405180910390a15b505050505050565b600583604051611eaf9190614820565b9081526040519081900360200190208054906000611ecc83614bc1565b91905055507f37be353f216cf7e33639101fd610c542e6a0c0109173fa1c1d8b04d34edb7c1b83600585604051611f039190614820565b908152602001604051809103902054611f1b85612b15565b604051611f2a93929190615308565b60405180910390a1611b8e828483611b13565b6060610aff82612b8a565b6060604051806040016040528060068152602001656274703a2f2f60d01b81525083604051806040016040528060018152602001602f60f81b81525084604051602001611f989493929190615333565b604051602081830303815290604052905092915050565b6003546040516378ad5a7d60e01b815260009182916001600160a01b03909116906378ad5a7d90611fe4908b90600401614616565b600060405180830381865afa158015612001573d6000803e3d6000fd5b505050506040513d6000823e601f3d908101601f191682016040526120299190810190614e0d565b905060006040518060e001604052806002805461204590614869565b80601f016020809104026020016040519081016040528092919081815260200182805461207190614869565b80156120be5780601f10612093576101008083540402835291602001916120be565b820191906000526020600020905b8154815290600101906020018083116120a157829003601f168201915b505050505081526020018a8152602001898152602001888152602001878152602001600081526020016040518060400160405280600280546120ff90614869565b80601f016020809104026020016040519081016040528092919081815260200182805461212b90614869565b80156121785780601f1061214d57610100808354040283529160200191612178565b820191906000526020600020905b81548152906001019060200180831161215b57829003601f168201915b505050918352505060200160006040519080825280602002602001820160405280156121ae578160200160208202803683370190505b50905290529050606085156122aa5760006121ca8b8b8b611b93565b9050612260600280546121dc90614869565b80601f016020809104026020016040519081016040528092919081815260200182805461220890614869565b80156122555780601f1061222a57610100808354040283529160200191612255565b820191906000526020600020905b81548152906001019060200180831161223857829003601f168201915b505050505034612d5f565b60006060840152805161227590600019614ed3565b60a084015260209081015160c08401526040805180820190915260058152645245504c5960d81b918101919091529050612473565b6122b2612857565b60a083015284156122c85760a082015160608301525b6004546001600160a01b0316331461245657600354604051633ea627a560e11b815260009182916001600160a01b0390911690637d4c4f4a90612313908f90858f139060040161538a565b600060405180830381865afa158015612330573d6000803e3d6000fd5b505050506040513d6000823e601f3d908101601f191682016040526123589190810190614f97565b91509150808460c0015160200181905250813410156040518060400160405280600f81526020016e31303a4e6f74456e6f75676846656560881b815250906123b35760405162461bcd60e51b81526004016104609190614616565b50612453600280546123c490614869565b80601f01602080910402602001604051908101604052809291908181526020018280546123f090614869565b801561243d5780601f106124125761010080835404028352916020019161243d565b820191906000526020600020905b81548152906001019060200180831161242057829003601f168201915b5050505050833461244e91906153ae565b612d5f565b50505b5060408051808201909152600481526314d1539160e21b60208201525b61247e838383611e9f565b5060a0015198975050505050505050565b60045460408051808201909152600f81526e0c4c4e955b985d5d1a1bdc9a5e9959608a1b6020820152906001600160a01b031633146116bf5760405162461bcd60e51b81526004016104609190614616565b81516000908390602a1480156125255750600360fc1b6001600160f81b0319168160008151811061251457612514614bdc565b01602001516001600160f81b031916145b801561255f5750600f60fb1b6001600160f81b0319168160018151811061254e5761254e614bdc565b01602001516001600160f81b031916145b839061257e5760405162461bcd60e51b81526004016104609190614616565b5060408051601480825281830190925260009160208201818036833701905050905060008080805b602881101561271557856125bb826002614e41565b815181106125cb576125cb614bdc565b016020015160f81c9350600160308510156125e4575060005b8460ff1660391080156125fa575060418560ff16105b15612603575060005b8460ff166046108015612619575060618560ff16105b15612622575060005b8460ff1660661015612632575060005b80612651578860405162461bcd60e51b81526004016104609190614616565b60418560ff1610156126665760309250612680565b8460ff166046101561267b5760579250612680565b603792505b61268b6002836153db565b6126a05761269983866153ef565b9350612702565b6126aa83866153ef565b6126b5856010615412565b6126bf919061543b565b60f81b8660026126d06001866153ae565b6126da9190615460565b815181106126ea576126ea614bdc565b60200101906001600160f81b031916908160001a9053505b508061270d81614bc1565b9150506125a6565b506000846040516020016127299190614820565b60408051601f198184030181529190526014810151975090506001600160a01b0387166127b85760025b86518110156127b65786818151811061276e5761276e614bdc565b60209101015189906001600160f81b031916600360fc1b146127a35760405162461bcd60e51b81526004016104609190614616565b50806127ae81614bc1565b915050612753565b505b50505050505092915050565b606060006127d58360000151612dc6565b6127e28460200151612e3d565b6040516020016127f3929190615474565b604051602081830303815290604052905061281081516000612e48565b81604051602001612822929190615474565b604051602081830303815290604052915050919050565b6060600061284a8360000151612e3d565b6127e28460200151612eff565b6000600760008154612868906154a3565b9182905550919050565b600081815b600681101561293c57604051806040016040528060068152602001656274703a2f2f60d01b81525081815181106128b0576128b0614bdc565b602001015160f81c60f81b6001600160f81b0319168282815181106128d7576128d7614bdc565b01602001516001600160f81b0319161461292a576040805180820182526011815270696e76616c69644254504164647265737360781b6020820152905162461bcd60e51b81526104609190600401614616565b8061293481614bc1565b915050612877565b8151811015612a07576040805180820190915260018152602f60f81b6020909101819052825183908390811061297457612974614bdc565b01602001516001600160f81b03191614156129f5576006811180156129a55750600182516129a291906153ae565b81105b60405180604001604052806011815260200170696e76616c69644254504164647265737360781b815250906129ed5760405162461bcd60e51b81526004016104609190614616565b509392505050565b806129ff81614bc1565b91505061293c565b6040805180820182526011815270696e76616c69644254504164647265737360781b6020820152905162461bcd60e51b81526104609190600401614616565b6060836000612a5585856153ae565b6001600160401b03811115612a6c57612a6c61407c565b6040519080825280601f01601f191660200182016040528015612a96576020820181803683370190505b5090508460005b8251811015612b09578382612ab181614bc1565b935081518110612ac357612ac3614bdc565b602001015160f81c60f81b838281518110612ae057612ae0614bdc565b60200101906001600160f81b031916908160001a90535080612b0181614bc1565b915050612a9d565b50909695505050505050565b60606000612b268360000151612e3d565b612b338460200151612e3d565b612b408560400151612e3d565b612b4d8660600151612f56565b612b5a8760800151612eff565b612b678860a00151612f56565b612b748960c00151612f69565b6040516020016127f397969594939291906154bc565b604080516028808252606082810190935283831b916000916020820181803683370190505090506000806000806000806000612bc58b613070565b905060005b6014811015612d2e57612bde8160136153ae565b612be990600861554e565b612bf4906002615649565b612c029060608c901c615460565b9750612c0f601089615655565b9650612c1c876010615412565b612c2690896153ef565b955081612c3482600261554e565b60288110612c4457612c44614bdc565b6020020151945081612c5782600261554e565b612c62906001614e41565b60288110612c7257612c72614bdc565b60200201519350612c838786613201565b9250612c8f838861543b565b60f81b89612c9e83600261554e565b81518110612cae57612cae614bdc565b60200101906001600160f81b031916908160001a905350612ccf8685613201565b9250612cdb838761543b565b60f81b89612cea83600261554e565b612cf5906001614e41565b81518110612d0557612d05614bdc565b60200101906001600160f81b031916908160001a90535080612d2681614bc1565b915050612bca565b5087604051602001612d409190615677565b6040516020818303038152906040529950505050505050505050919050565b80156116695760048054604051633501470160e01b81526001600160a01b0390911691633501470191612d9891869130918791016156a1565b600060405180830381600087803b158015612db257600080fd5b505af1158015611e97573d6000803e3d6000fd5b606060006008612dd58461322e565b612ddf9190615460565b612dea906001614e41565b90506000612df784613251565b90506000815183612e0891906153ae565b1115612e3457604051612e229060009083906020016156cf565b60405160208183030381529060405290505b610f7881612eff565b6060610aff82612eff565b6060603783118015612e58575081155b15612e9f576000612e6884613251565b9050612e7681516001612e48565b81604051602001612e88929190615474565b604051602081830303815290604052915050610aff565b60378311158015612eae575081155b15612ee457612ebe8360c0614e41565b604051602001612ece9190615700565b6040516020818303038152906040529050610aff565b612eef8360f7614e41565b604051602001611f989190615700565b60608082516001148015612f2e5750608083600081518110612f2357612f23614bdc565b016020015160f81c11155b15612f3a575081610aff565b612f4f612f498451608061366f565b84613825565b9392505050565b6060610aff612f64836138a2565b612eff565b60608060005b836020015151811015612fd85781612fa385602001518381518110612f9657612f96614bdc565b6020026020010151612dc6565b604051602001612fb4929190615474565b60405160208183030381529060405291508080612fd090614bc1565b915050612f6f565b50612fe581516000612e48565b81604051602001612ff7929190615474565b604051602081830303815290604052905060006130178460000151612e3d565b82604051602001613029929190615474565b604051602081830303815290604052905061304681516000612e48565b81604051602001613058929190615474565b60405160208183030381529060405292505050919050565b61307861402e565b606082901b600061308882613db1565b6040516020016130989190614820565b60405160208183030381529060405280519060200120905060008060008060005b60148110156131f55760108782601481106130d6576130d6614bdc565b6130e29291901a615718565b93506010848883601481106130f9576130f9614bdc565b6131059291901a6153ef565b61310f9190615655565b9450601086826020811061312557613125614bdc565b6131319291901a615718565b915060108287836020811061314857613148614bdc565b6131549291901a6153ef565b61315e9190615655565b925060098560ff16118015613176575060078360ff16115b8861318283600261554e565b6028811061319257613192614bdc565b91151560209092020152600960ff85161180156131b2575060078260ff16115b886131be83600261554e565b6131c9906001614e41565b602881106131d9576131d9614bdc565b91151560209092020152806131ed81614bc1565b9150506130b9565b50505050505050919050565b6000600a8360ff16101561321757506030610aff565b811561322557506037610aff565b50605792915050565b6000805b8215610aff57613243600182614e41565b9050600183901c9250613232565b606060ff821015613283578160405160200161326d9190615700565b6040516020818303038152906040529050919050565b60ff8210801590613295575061ffff82105b156132b9576040516001600160f01b031960f084901b16602082015260220161326d565b61ffff82108015906132cd575062ffffff82105b156132f1576040516001600160e81b031960e884901b16602082015260230161326d565b62ffffff8210801590613307575063ffffffff82105b1561332b576040516001600160e01b031960e084901b16602082015260240161326d565b63ffffffff8210801590613343575064ffffffffff82105b15613367576040516001600160d81b031960d884901b16602082015260250161326d565b64ffffffffff8210801590613381575065ffffffffffff82105b156133a5576040516001600160d01b031960d084901b16602082015260260161326d565b65ffffffffffff82108015906133c1575066ffffffffffffff82105b156133e5576040516001600160c81b031960c884901b16602082015260270161326d565b66ffffffffffffff821080159061340257506001600160401b0382105b15613426576040516001600160c01b031960c084901b16602082015260280161326d565b6001600160401b03821080159061344357506001600160481b0382105b15613467576040516001600160b81b031960b884901b16602082015260290161326d565b6001600160481b03821080159061348457506001600160501b0382105b156134a8576040516001600160b01b031960b084901b166020820152602a0161326d565b6001600160501b0382108015906134c557506001600160581b0382105b156134e9576040516001600160a81b031960a884901b166020820152602b0161326d565b6001600160581b03821080159061350657506001600160601b0382105b1561352a576040516001600160a01b031960a084901b166020820152602c0161326d565b6001600160601b03821080159061354757506001600160681b0382105b1561356b576040516001600160981b0319609884901b166020820152602d0161326d565b6001600160681b03821080159061358857506001600160701b0382105b156135ac576040516001600160901b0319609084901b166020820152602e0161326d565b6001600160701b0382108015906135c957506001600160781b0382105b156135ed576040516001600160881b0319608884901b166020820152602f0161326d565b6001600160781b03821080159061360a57506001600160801b0382105b6136505760405162461bcd60e51b81526020600482015260176024820152766f75744f66426f756e64733a205b302c20325e3132385d60481b6044820152606401610460565b6040516001600160801b0319608084901b16602082015260300161326d565b60608060388410156136d957604080516001808252818301909252906020820181803683370190505090506136a48385614e41565b601f1a60f81b816000815181106136bd576136bd614bdc565b60200101906001600160f81b031916908160001a905350612f4f565b600060015b6136e88187615460565b1561370e57816136f781614bc1565b925061370790506101008261554e565b90506136de565b613719826001614e41565b6001600160401b038111156137305761373061407c565b6040519080825280601f01601f19166020018201604052801561375a576020820181803683370190505b5092506137678583614e41565b613772906037614e41565b601f1a60f81b8360008151811061378b5761378b614bdc565b60200101906001600160f81b031916908160001a905350600190505b81811161381c576101006137bb82846153ae565b6137c790610100615649565b6137d19088615460565b6137db91906153db565b601f1a60f81b8382815181106137f3576137f3614bdc565b60200101906001600160f81b031916908160001a9053508061381481614bc1565b9150506137a7565b50509392505050565b6060806040519050835180825260208201818101602087015b8183101561385657805183526020928301920161383e565b50855184518101855292509050808201602086015b8183101561388357805183526020928301920161386b565b508651929092011591909101601f01601f191660405250905092915050565b60608160016138b1607f61573a565b6138bb919061575a565b60000b131580156138cd5750607f8213155b156138e75760405160f883901b602082015260210161326d565b8160016138f5617fff61579b565b6138ff91906157b4565b60010b131580156139125750617fff8213155b1561392c5760405160f083901b602082015260220161326d565b81600161393b627fffff6157f0565b613945919061580a565b60020b131580156139595750627fffff8213155b156139735760405160e883901b602082015260230161326d565b816001613983637fffffff615848565b61398d9190615863565b60030b131580156139a25750637fffffff8213155b156139bc5760405160e083901b602082015260240161326d565b8160016139cd647fffffffff6158a3565b6139d791906158bf565b60040b131580156139ed5750647fffffffff8213155b15613a075760405160d883901b602082015260250161326d565b816001613a19657fffffffffff615901565b613a23919061591e565b60050b13158015613a3a5750657fffffffffff8213155b15613a545760405160d083901b602082015260260161326d565b816001613a67667fffffffffffff615962565b613a719190615980565b60060b13158015613a895750667fffffffffffff8213155b15613aa35760405160c883901b602082015260270161326d565b816001613ab660016001603f1b036159c6565b613ac091906159e5565b60070b13158015613ad8575060016001603f1b038213155b15613af25760405160c083901b602082015260280161326d565b816001613b056001600160471b03615a2b565b613b0f9190615a4a565b60080b13158015613b2757506001600160471b038213155b15613b415760405160b883901b602082015260290161326d565b816001613b5460016001604f1b03615a90565b613b5e9190615aaf565b60090b13158015613b76575060016001604f1b038213155b15613b905760405160b083901b6020820152602a0161326d565b816001613ba36001600160571b03615af5565b613bad9190615b14565b600a0b13158015613bc557506001600160571b038213155b15613bdf5760405160a883901b6020820152602b0161326d565b816001613bf260016001605f1b03615b5a565b613bfc9190615b79565b600b0b13158015613c14575060016001605f1b038213155b15613c2e5760405160a083901b6020820152602c0161326d565b816001613c416001600160671b03615bbf565b613c4b9190615bde565b600c0b13158015613c6357506001600160671b038213155b15613c7d57604051609883901b6020820152602d0161326d565b816001613c9060016001606f1b03615c24565b613c9a9190615c43565b600d0b13158015613cb2575060016001606f1b038213155b15613ccc57604051609083901b6020820152602e0161326d565b816001613cdf6001600160771b03615c89565b613ce99190615ca8565b600e0b13158015613d0157506001600160771b038213155b15613d1b57604051608883901b6020820152602f0161326d565b816001613d2e60016001607f1b03615cee565b613d389190615d0d565b600f0b13158015613d50575060016001607f1b038213155b613d9c5760405162461bcd60e51b815260206004820152601e60248201527f6f75744f66426f756e64733a205b2d325e3132382d312c20325e3132385d00006044820152606401610460565b604051608083901b602082015260300161326d565b60408051602880825260608281019093526000919060208201818036833701905050905060008080805b6014811015613f0057613def8160136153ae565b613dfa90600861554e565b613e05906002615649565b613e1390606089901c615460565b9350613e20601085615655565b9250613e2d836010615412565b613e3790856153ef565b9150600a8360ff1610613e4b576057613e4e565b60305b613e58908461543b565b60f81b85613e6783600261554e565b81518110613e7757613e77614bdc565b60200101906001600160f81b031916908160001a905350600a8260ff1610613ea0576057613ea3565b60305b613ead908361543b565b60f81b85613ebc83600261554e565b613ec7906001614e41565b81518110613ed757613ed7614bdc565b60200101906001600160f81b031916908160001a90535080613ef881614bc1565b915050613ddb565b509295945050505050565b6040518060e00160405280606081526020016060815260200160608152602001600081526020016060815260200160008152602001613f4861404d565b905290565b60405180608001604052806000815260200160008152602001613f83604051806040016040528060008152602001606081525090565b8152602001600081525090565b828054613f9c90614869565b90600052602060002090601f016020900481019282613fbe5760008555614004565b82601f10613fd757805160ff1916838001178555614004565b82800160010185558215614004579182015b82811115614004578251825591602001919060010190613fe9565b50614010929150614067565b5090565b604051806040016040528060008152602001613f4861404d565b6040518061050001604052806028906020820280368337509192915050565b604051806040016040528060608152602001606081525090565b5b808211156140105760008155600101614068565b634e487b7160e01b600052604160045260246000fd5b604081016001600160401b03811182821017156140b1576140b161407c565b60405250565b601f8201601f191681016001600160401b03811182821017156140dc576140dc61407c565b6040525050565b60405160e081016001600160401b03811182821017156141055761410561407c565b60405290565b60006001600160401b038211156141245761412461407c565b50601f01601f191660200190565b600082601f83011261414357600080fd5b813561414e8161410b565b60405161415b82826140b7565b82815285602084870101111561417057600080fd5b82602086016020830137600092810160200192909252509392505050565b6000602082840312156141a057600080fd5b81356001600160401b038111156141b657600080fd5b610f7884828501614132565b60008083601f8401126141d457600080fd5b5081356001600160401b038111156141eb57600080fd5b602083019150836020828501011115611b0c57600080fd5b6000806000806040858703121561421957600080fd5b84356001600160401b038082111561423057600080fd5b61423c888389016141c2565b9096509450602087013591508082111561425557600080fd5b50614262878288016141c2565b95989497509550505050565b6000806020838503121561428157600080fd5b82356001600160401b0381111561429757600080fd5b6142a3858286016141c2565b90969095509350505050565b60005b838110156142ca5781810151838201526020016142b2565b83811115610be35750506000910152565b600081518084526142f38160208601602086016142af565b601f01601f19169290920160200192915050565b6020815281516020820152602082015160408201526000604083015160806060840152805160a084015260208101519050604060c084015261434c60e08401826142db565b9050606084015160808401528091505092915050565b60006001600160401b0382111561437b5761437b61407c565b5060051b60200190565b60006040828403121561439757600080fd5b6040516143a381614092565b90508082356001600160401b03808211156143bd57600080fd5b6143c986838701614132565b83526020915081850135818111156143e057600080fd5b85019050601f810186136143f357600080fd5b80356143fe81614362565b60405161440b82826140b7565b82815260059290921b830184019184810191508883111561442b57600080fd5b928401925b8284101561444957833582529284019290840190614430565b808587015250505050505092915050565b6000806000806060858703121561447057600080fd5b84356001600160401b038082111561448757600080fd5b614493888389016141c2565b90965094506020870135935060408701359150808211156144b357600080fd5b9086019060e082890312156144c757600080fd5b6144cf6140e3565b8235828111156144de57600080fd5b6144ea8a828601614132565b8252506020830135828111156144ff57600080fd5b61450b8a828601614132565b60208301525060408301358281111561452357600080fd5b61452f8a828601614132565b6040830152506060830135606082015260808301358281111561455157600080fd5b61455d8a828601614132565b60808301525060a083013560a082015260c08301358281111561457f57600080fd5b61458b8a828601614385565b60c0830152509598949750929550505050565b6001600160a01b03811681146116bf57600080fd5b6000806000606084860312156145c857600080fd5b83356001600160401b038111156145de57600080fd5b6145ea86828701614132565b93505060208401356145fb8161459e565b9150604084013561460b8161459e565b809150509250925092565b602081526000612f4f60208301846142db565b6000806000806080858703121561463f57600080fd5b84356001600160401b038082111561465657600080fd5b61466288838901614132565b9550602087013591508082111561467857600080fd5b61468488838901614132565b94506040870135935060608701359150808211156146a157600080fd5b506146ae87828801614132565b91505092959194509250565b6000806000604084860312156146cf57600080fd5b83356001600160401b038111156146e557600080fd5b6146f1868287016141c2565b909450925050602084013561460b8161459e565b80151581146116bf57600080fd5b60008060006040848603121561472857600080fd5b83356001600160401b0381111561473e57600080fd5b61474a868287016141c2565b909450925050602084013561460b81614705565b6000806000806080858703121561477457600080fd5b843561477f8161459e565b935060208501356001600160401b0381111561479a57600080fd5b6147a687828801614132565b949794965050505060408301359260600135919050565b600080604083850312156147d057600080fd5b82356001600160401b03808211156147e757600080fd5b6147f386838701614132565b9350602085013591508082111561480957600080fd5b5061481685828601614132565b9150509250929050565b600082516148328184602087016142af565b9190910192915050565b8183823760009101908152919050565b60006020828403121561485e57600080fd5b8151612f4f8161459e565b600181811c9082168061487d57607f821691505b6020821081141561489e57634e487b7160e01b600052602260045260246000fd5b50919050565b81835281816020850137506000828201602090810191909152601f909101601f19169091010190565b608081526000808854818160011c905060018216806148ed57607f821691505b602080831082141561490d57634e487b7160e01b85526022600452602485fd5b6080870183905260a0870182801561492c576001811461493d5761496a565b60ff1986168252828201965061496a565b60008f81526020902060005b86811015614964578154848201526001909101908401614949565b83019750505b5050868503818801525050505061498281888a6148a4565b9050856040840152828103606084015261499d8185876148a4565b9998505050505050505050565b600082601f8301126149bb57600080fd5b81516149c68161410b565b6040516149d382826140b7565b8281528560208487010111156149e857600080fd5b6149f98360208301602088016142af565b95945050505050565b60006020808385031215614a1557600080fd5b82516001600160401b0380821115614a2c57600080fd5b818501915085601f830112614a4057600080fd5b8151614a4b81614362565b604051614a5882826140b7565b82815260059290921b8401850191858101915088831115614a7857600080fd5b8585015b83811015614ab057805185811115614a945760008081fd5b614aa28b89838a01016149aa565b845250918601918601614a7c565b5098975050505050505050565b600060033d1115614ad65760046000803e5060005160e01c5b90565b600060443d1015614ae75790565b6040516003193d81016004833e81513d6001600160401b038083116024840183101715614b1657505050505090565b8285019150815181811115614b2e5750505050505090565b843d8701016020828501011115614b485750505050505090565b614b57602082860101876140b7565b509095945050505050565b604081526000614b766040830185876148a4565b905060018060a01b0383166020830152949350505050565b600060208284031215614ba057600080fd5b8151612f4f81614705565b634e487b7160e01b600052601160045260246000fd5b6000600019821415614bd557614bd5614bab565b5060010190565b634e487b7160e01b600052603260045260246000fd5b6001600160a01b0383168152604060208201819052600090610f78908301846142db565b600082601f830112614c2757600080fd5b81516020614c3482614362565b604051614c4182826140b7565b83815260059390931b8501820192828101915086841115614c6157600080fd5b8286015b84811015614c7c5780518352918301918301614c65565b509695505050505050565b600060408284031215614c9957600080fd5b604051614ca581614092565b825190915081906001600160401b0380821115614cc157600080fd5b614ccd868387016149aa565b83526020850151915080821115614ce357600080fd5b50614cf085828601614c16565b6020830152505092915050565b600060208284031215614d0f57600080fd5b81516001600160401b0380821115614d2657600080fd5b9083019060e08286031215614d3a57600080fd5b614d426140e3565b825182811115614d5157600080fd5b614d5d878286016149aa565b825250602083015182811115614d7257600080fd5b614d7e878286016149aa565b602083015250604083015182811115614d9657600080fd5b614da2878286016149aa565b60408301525060608301516060820152608083015182811115614dc457600080fd5b614dd0878286016149aa565b60808301525060a083015160a082015260c083015182811115614df257600080fd5b614dfe87828601614c87565b60c08301525095945050505050565b600060208284031215614e1f57600080fd5b81516001600160401b03811115614e3557600080fd5b610f78848285016149aa565b60008219821115614e5457614e54614bab565b500190565b600060208284031215614e6b57600080fd5b81516001600160401b0380821115614e8257600080fd5b9083019060408286031215614e9657600080fd5b604051614ea281614092565b82518152602083015182811115614eb857600080fd5b614ec4878286016149aa565b60208301525095945050505050565b60006001600160ff1b0381841382841380821686840486111615614ef957614ef9614bab565b600160ff1b6000871282811687830589121615614f1857614f18614bab565b60008712925087820587128484161615614f3457614f34614bab565b87850587128184161615614f4a57614f4a614bab565b505050929093029392505050565b600060208284031215614f6a57600080fd5b5051919050565b604081526000614f856040830185876148a4565b90508215156020830152949350505050565b60008060408385031215614faa57600080fd5b825160208401519092506001600160401b03811115614fc857600080fd5b61481685828601614c16565b6001600160a01b0385168152608060208201819052600090614ff8908301866142db565b6040830194909452506060015292915050565b8581526080602082015260006150256080830186886148a4565b6001600160a01b0394909416604083015250606001529392505050565b6001600160a01b038816815260a060208201819052600090615067908301888a6148a4565b828103604084015261507a8187896148a4565b606084019590955250506080015295945050505050565b6080815260006150a460808301876142db565b82810360208401526150b681876142db565b905084604084015282810360608401526150d081856142db565b979650505050505050565b60a0815260006150ee60a08301886142db565b828103602084015261510081886142db565b9050856040840152846060840152828103608084015261512081856142db565b98975050505050505050565b60808152600061513f60808301876142db565b856020840152828103604084015261515781866142db565b905082810360608401526150d081856142db565b60608152600061517e60608301866142db565b828103602084015261519081866142db565b915050826040830152949350505050565b6000602082840312156151b357600080fd5b81516001600160401b03808211156151ca57600080fd5b90830190604082860312156151de57600080fd5b6040516151ea81614092565b8251815260208301518281111561520057600080fd5b614ec487828601614c87565b60608152600061521f60608301866142db565b60208581850152838203604085015284516040835261524160408401826142db565b8683015184820394840194909452835180825290830193830191506000905b808210156152805782518552938301939183019160019190910190615260565b509298975050505050505050565b6000602082840312156152a057600080fd5b81516001600160401b038111156152b657600080fd5b610f7884828501614c87565b60a0815260006152d660a08301888a6148a4565b86602084015282810360408401526152ee81876142db565b9050846060840152828103608084015261499d81856142db565b60608152600061531b60608301866142db565b8460208401528281036040840152610ef781856142db565b60008551615345818460208a016142af565b855190830190615359818360208a016142af565b855191019061536c8183602089016142af565b845191019061537f8183602088016142af565b019695505050505050565b60408152600061539d60408301856142db565b905082151560208301529392505050565b6000828210156153c0576153c0614bab565b500390565b634e487b7160e01b600052601260045260246000fd5b6000826153ea576153ea6153c5565b500690565b600060ff821660ff84168082101561540957615409614bab565b90039392505050565b600060ff821660ff84168160ff048111821515161561543357615433614bab565b029392505050565b600060ff821660ff84168060ff0382111561545857615458614bab565b019392505050565b60008261546f5761546f6153c5565b500490565b600083516154868184602088016142af565b83519083019061549a8183602088016142af565b01949350505050565b60006001600160ff1b03821415614bd557614bd5614bab565b6000885160206154cf8285838e016142af565b8951918401916154e28184848e016142af565b89519201916154f48184848d016142af565b88519201916155068184848c016142af565b87519201916155188184848b016142af565b865192019161552a8184848a016142af565b855192019161553c81848489016142af565b919091019a9950505050505050505050565b600081600019048311821515161561556857615568614bab565b500290565b600181815b808511156155a857816000190482111561558e5761558e614bab565b8085161561559b57918102915b93841c9390800290615572565b509250929050565b6000826155bf57506001610aff565b816155cc57506000610aff565b81600181146155e257600281146155ec57615608565b6001915050610aff565b60ff8411156155fd576155fd614bab565b50506001821b610aff565b5060208310610133831016604e8410600b841016171561562b575081810a610aff565b615635838361556d565b806000190482111561543357615433614bab565b6000612f4f83836155b0565b600060ff831680615668576156686153c5565b8060ff84160491505092915050565b61060f60f31b8152600082516156948160028501602087016142af565b9190910160020192915050565b6060815260006156b460608301866142db565b6001600160a01b039490941660208301525060400152919050565b6001600160f81b03198316815281516000906156f28160018501602087016142af565b919091016001019392505050565b60f89190911b6001600160f81b031916815260010190565b600060ff83168061572b5761572b6153c5565b8060ff84160691505092915050565b600081810b607f1981141561575157615751614bab565b60000392915050565b600081810b83820b8281128015607f1983018412161561577c5761577c614bab565b81607f01831381161561579157615791614bab565b5090039392505050565b60008160010b617fff1981141561575157615751614bab565b60008160010b8360010b6000811281617fff19018312811516156157da576157da614bab565b81617fff01831381161561579157615791614bab565b60008160020b627fffff1981141561575157615751614bab565b60008160020b8360020b6000811281627fffff190183128115161561583157615831614bab565b81627fffff01831381161561579157615791614bab565b60008160030b637fffffff1981141561575157615751614bab565b60008160030b8360030b6000811281637fffffff190183128115161561588b5761588b614bab565b81637fffffff01831381161561579157615791614bab565b60008160040b647fffffffff1981141561575157615751614bab565b60008160040b8360040b6000811281647fffffffff19018312811516156158e8576158e8614bab565b81647fffffffff01831381161561579157615791614bab565b60008160050b657fffffffffff1981141561575157615751614bab565b60008160050b8360050b6000811281657fffffffffff190183128115161561594857615948614bab565b81657fffffffffff01831381161561579157615791614bab565b60008160060b667fffffffffffff1981141561575157615751614bab565b60008160060b8360060b6000811281667fffffffffffff19018312811516156159ab576159ab614bab565b81667fffffffffffff01831381161561579157615791614bab565b6000600782900b60016001603f1b031981141561575157615751614bab565b6000600782810b9084900b828112801560016001603f1b0319830184121615615a1057615a10614bab565b60016001603f1b038201831381161561579157615791614bab565b6000600882900b6001600160471b031981141561575157615751614bab565b6000600882810b9084900b82811280156001600160471b0319830184121615615a7557615a75614bab565b6001600160471b038201831381161561579157615791614bab565b6000600982900b60016001604f1b031981141561575157615751614bab565b6000600982810b9084900b828112801560016001604f1b0319830184121615615ada57615ada614bab565b60016001604f1b038201831381161561579157615791614bab565b6000600a82900b6001600160571b031981141561575157615751614bab565b6000600a82810b9084900b82811280156001600160571b0319830184121615615b3f57615b3f614bab565b6001600160571b038201831381161561579157615791614bab565b6000600b82900b60016001605f1b031981141561575157615751614bab565b6000600b82810b9084900b828112801560016001605f1b0319830184121615615ba457615ba4614bab565b60016001605f1b038201831381161561579157615791614bab565b6000600c82900b6001600160671b031981141561575157615751614bab565b6000600c82810b9084900b82811280156001600160671b0319830184121615615c0957615c09614bab565b6001600160671b038201831381161561579157615791614bab565b6000600d82900b60016001606f1b031981141561575157615751614bab565b6000600d82810b9084900b828112801560016001606f1b0319830184121615615c6e57615c6e614bab565b60016001606f1b038201831381161561579157615791614bab565b6000600e82900b6001600160771b031981141561575157615751614bab565b6000600e82810b9084900b82811280156001600160771b0319830184121615615cd357615cd3614bab565b6001600160771b038201831381161561579157615791614bab565b6000600f82900b60016001607f1b031981141561575157615751614bab565b6000600f82810b9084900b828112801560016001607f1b0319830184121615615d3857615d38614bab565b60016001607f1b038201831381161561579157615791614bab56fe51f135d1c44e53689ca91af3b1bce4918d2b590d92bb76a854ab30e7de741828a26469706673582212207d5958c1d4f1ca85424f7626988d824cdf1a4af8abe211489fddf50c3e3a04a964736f6c634300080c0033",
  "linkReferences": {},
  "deployedLinkReferences": {}
}