{
  "_format": "hh-sol-artifact-1",
  "contractName": "BtpMessageVerifier",
  "sourceName": "solidity/contracts/bmv/BtpMessageVerifier.sol",
  "abi": [
    {
      "inputs": [
        {
          "internalType": "address",
          "name": "_bmc",
          "type": "address"
        },
        {
          "internalType": "string",
          "name": "_srcNetworkId",
          "type": "string"
        },
        {
          "internalType": "uint256",
          "name": "_networkTypeId",
          "type": "uint256"
        },
        {
          "internalType": "bytes",
          "name": "_firstBlockHeader",
          "type": "bytes"
        },
        {
          "internalType": "uint256",
          "name": "_sequenceOffset",
          "type": "uint256"
        }
      ],
      "stateMutability": "nonpayable",
      "type": "constructor"
    },
    {
      "inputs": [],
      "name": "getHeight",
      "outputs": [
        {
          "internalType": "uint256",
          "name": "",
          "type": "uint256"
        }
      ],
      "stateMutability": "view",
      "type": "function"
    },
    {
      "inputs": [],
      "name": "getMessageCount",
      "outputs": [
        {
          "internalType": "uint256",
          "name": "",
          "type": "uint256"
        }
      ],
      "stateMutability": "view",
      "type": "function"
    },
    {
      "inputs": [],
      "name": "getMessageRoot",
      "outputs": [
        {
          "internalType": "bytes32",
          "name": "",
          "type": "bytes32"
        }
      ],
      "stateMutability": "view",
      "type": "function"
    },
    {
      "inputs": [],
      "name": "getNetworkId",
      "outputs": [
        {
          "internalType": "uint256",
          "name": "",
          "type": "uint256"
        }
      ],
      "stateMutability": "view",
      "type": "function"
    },
    {
      "inputs": [],
      "name": "getNetworkSectionHash",
      "outputs": [
        {
          "internalType": "bytes32",
          "name": "",
          "type": "bytes32"
        }
      ],
      "stateMutability": "view",
      "type": "function"
    },
    {
      "inputs": [],
      "name": "getNetworkTypeId",
      "outputs": [
        {
          "internalType": "uint256",
          "name": "",
          "type": "uint256"
        }
      ],
      "stateMutability": "view",
      "type": "function"
    },
    {
      "inputs": [],
      "name": "getNextMessageSn",
      "outputs": [
        {
          "internalType": "uint256",
          "name": "",
          "type": "uint256"
        }
      ],
      "stateMutability": "view",
      "type": "function"
    },
    {
      "inputs": [],
      "name": "getRemainMessageCount",
      "outputs": [
        {
          "internalType": "uint256",
          "name": "",
          "type": "uint256"
        }
      ],
      "stateMutability": "view",
      "type": "function"
    },
    {
      "inputs": [],
      "name": "getSrcNetworkId",
      "outputs": [
        {
          "internalType": "string",
          "name": "",
          "type": "string"
        }
      ],
      "stateMutability": "view",
      "type": "function"
    },
    {
      "inputs": [],
      "name": "getStatus",
      "outputs": [
        {
          "components": [
            {
              "internalType": "uint256",
              "name": "height",
              "type": "uint256"
            },
            {
              "internalType": "bytes",
              "name": "extra",
              "type": "bytes"
            }
          ],
          "internalType": "struct IBMV.VerifierStatus",
          "name": "",
          "type": "tuple"
        }
      ],
      "stateMutability": "view",
      "type": "function"
    },
    {
      "inputs": [
        {
          "internalType": "uint256",
          "name": "nth",
          "type": "uint256"
        }
      ],
      "name": "getValidators",
      "outputs": [
        {
          "internalType": "address",
          "name": "",
          "type": "address"
        }
      ],
      "stateMutability": "view",
      "type": "function"
    },
    {
      "inputs": [],
      "name": "getValidatorsCount",
      "outputs": [
        {
          "internalType": "uint256",
          "name": "",
          "type": "uint256"
        }
      ],
      "stateMutability": "view",
      "type": "function"
    },
    {
      "inputs": [
        {
          "internalType": "string",
          "name": "",
          "type": "string"
        },
        {
          "internalType": "string",
          "name": "_prev",
          "type": "string"
        },
        {
          "internalType": "uint256",
          "name": "_sn",
          "type": "uint256"
        },
        {
          "internalType": "bytes",
          "name": "_msg",
          "type": "bytes"
        }
      ],
      "name": "handleRelayMessage",
      "outputs": [
        {
          "internalType": "bytes[]",
          "name": "messages",
          "type": "bytes[]"
        }
      ],
      "stateMutability": "nonpayable",
      "type": "function"
    }
  ],
  "bytecode": "0x6101006040523480156200001257600080fd5b5060405162005d8a38038062005d8a833981016040819052620000359162001cb5565b6001600160a01b03851660805283516200005790600090602087019062001ad3565b5060a083905260e081905260006200007b836200019e602090811b6200097317901c565b9050600081610140015151116040518060400160405280600a815260200169191a9d2ab735b737bbb760b11b81525090620000d45760405162461bcd60e51b8152600401620000cb919062001d6b565b60405180910390fd5b50806080015160c081815250506040518060e0016040528062000102836200053c60201b62000c0a1760201c565b8152610120830151602080830191909152835160408084019190915261010085015160608085019190915260a0808701805160808088019190915290518287015261014088015160c09687015286516001908155878601516002559387015160035591860151600455908501516005558401516006559183015180516200018e92600792019062001b62565b5090505050505050505062002045565b62000207604051806101600160405280600081526020016000815260200160008019168152602001606081526020016000815260200160008152602001600015158152602001600080191681526020016000815260200160008019168152602001606081525090565b60006200021f836200074960201b62000da31760201c565b9050600062000239826200077660201b62000dc91760201c565b90506040518061016001604052806200027a8360008151811062000261576200026162001da0565b6020026020010151620008df60201b62000f061760201c565b8152602001620002998360018151811062000261576200026162001da0565b8152602001620002d183600281518110620002b857620002b862001da0565b6020026020010151620009ad60201b62000fba1760201c565b620002dc9062001db6565b815260200160006200031684600381518110620002fd57620002fd62001da0565b602002602001015162000a9160201b6200108a1760201c565b11620003625760408051600080825260208201909252906200035b565b6040805180820190915260008082526020820152815260200190600190039081620003335790505b506200039f565b6200039f620003998460038151811062000380576200038062001da0565b602002602001015162000abc60201b620010ab1760201c565b62000b3f565b8152602001620003be8360048151811062000261576200026162001da0565b81526020016001620003df8460058151811062000261576200026162001da0565b901c8152602001620004008360058151811062000261576200026162001da0565b6001166001141515815260200160006200042984600681518110620002fd57620002fd62001da0565b11620004375760006200045c565b6200045183600681518110620002b857620002b862001da0565b6200045c9062001db6565b81526020016200047b8360078151811062000261576200026162001da0565b815260200160006200049c84600881518110620002fd57620002fd62001da0565b11620004aa576000620004cf565b620004c483600881518110620002b857620002b862001da0565b620004cf9062001db6565b8152602001620004ee8360058151811062000261576200026162001da0565b6001166001146200050e5760408051600081526020810190915262000532565b620005326200052c84600981518110620002b857620002b862001da0565b62000cac565b9052949350505050565b60408051600580825260c08201909252600091829190816020015b60608152602001906001900390816200055757905050905062000589836080015162000dca60201b6200112a1760201c565b816000815181106200059f576200059f62001da0565b6020026020010181905250620005e18360c00151620005c0576000620005c3565b60015b60ff1660018560a00151901b1762000dca60201b6200112a1760201c565b81600181518110620005f757620005f762001da0565b602090810291909101015260e083015162000627576200062162000e5860201b620011a91760201c565b62000663565b620006638360e001516040516020016200064391815260200190565b60405160208183030381529060405262000e7360201b620011c41760201c565b8160028151811062000679576200067962001da0565b60200260200101819052506200069f83610100015162000dca60201b6200112a1760201c565b81600381518110620006b557620006b562001da0565b6020908102919091010152610120830151620006e657620006e062000e5860201b620011a91760201c565b62000703565b620007038361012001516040516020016200064391815260200190565b8160048151811062000719576200071962001da0565b60200260200101819052506200073a8162000eda60201b6200121b1760201c565b80519060200120915050919050565b60408051808201825260008082526020918201528151808301909252825182529182019181019190915290565b6060620007838262000f0a565b620007c25760405162461bcd60e51b815260206004820152600e60248201526d135d5cdd0818994818481b1a5cdd60921b6044820152606401620000cb565b6000620007cf8362000f45565b90506000816001600160401b03811115620007ee57620007ee62001bd1565b6040519080825280602002602001820160405280156200083557816020015b60408051808201909152600080825260208201528152602001906001900390816200080d5790505b50905060006200084f856020015162000fdd60201b60201c565b856020015162000860919062001df1565b90506000805b84811015620008d4576200087a836200106b565b9150604051806040016040528083815260200184815250848281518110620008a657620008a662001da0565b6020908102919091010152620008bd828462001df1565b925080620008cb8162001e0c565b91505062000866565b509195945050505050565b805160009015801590620008f557508151602110155b620009435760405162461bcd60e51b815260206004820152601360248201527f496e76616c69642075696e74206e756d626572000000000000000000000000006044820152606401620000cb565b60006200095a836020015162000fdd60201b60201c565b9050600081846000015162000970919062001e2a565b905060008083866020015162000987919062001df1565b9050805191506020831015620009a457826020036101000a820491505b50949350505050565b8051606090620009f15760405162461bcd60e51b815260206004820152600e60248201526d092dcecc2d8d2c840d8cadccee8d60931b6044820152606401620000cb565b600062000a08836020015162000fdd60201b60201c565b9050600081846000015162000a1e919062001e2a565b90506000816001600160401b0381111562000a3d5762000a3d62001bd1565b6040519080825280601f01601f19166020018201604052801562000a68576020820181803683370190505b5090506000816020019050620009a484876020015162000a89919062001df1565b82856200111c565b600062000aa8826020015162000fdd60201b60201c565b825162000ab6919062001e2a565b92915050565b6060600082600001516001600160401b0381111562000adf5762000adf62001bd1565b6040519080825280601f01601f19166020018201604052801562000b0a576020820181803683370190505b50905080516000141562000b1e5792915050565b60208381015184519183019162000b38919083906200111c565b5092915050565b6060600062000b6e62000b5d846200074960201b62000da31760201c565b6200077660201b62000dc91760201c565b9050600081516001600160401b0381111562000b8e5762000b8e62001bd1565b60405190808252806020026020018201604052801562000bd557816020015b604080518082019091526000808252602082015281526020019060019003908162000bad5790505b50905060005b825181101562000ca457600062000c1984838151811062000c005762000c0062001da0565b60200260200101516200077660201b62000dc91760201c565b9050604051806040016040528062000c408360008151811062000261576200026162001da0565b815260200162000c5f83600181518110620002b857620002b862001da0565b62000c6a9062001db6565b81525083838151811062000c825762000c8262001da0565b602002602001018190525050808062000c9b9062001e0c565b91505062000bdb565b509392505050565b6060600062000cc6836200074960201b62000da31760201c565b9050600062000ce0826200077660201b62000dc91760201c565b905062000cfc8160008151811062000c005762000c0062001da0565b9050600081516001600160401b0381111562000d1c5762000d1c62001bd1565b60405190808252806020026020018201604052801562000d46578160200160208202803683370190505b50905060005b8251811015620009a45762000d8883828151811062000d6f5762000d6f62001da0565b6020026020010151620011ac60201b6200123f1760201c565b82828151811062000d9d5762000d9d62001da0565b6001600160a01b03909216602092830291909101909101528062000dc18162001e0c565b91505062000d4c565b60606000600862000ddb846200120d565b62000de7919062001e5a565b62000df490600162001df1565b9050600062000e038462001234565b9050600081518362000e16919062001e2a565b111562000e455760405162000e3390600090839060200162001e71565b60405160208183030381529060405290505b62000e508162000e73565b949350505050565b6040805180820190915260028152601f60fb1b602082015290565b6060808251600114801562000ea6575060808360008151811062000e9b5762000e9b62001da0565b016020015160f81c11155b1562000eb457508162000ab6565b62000ed362000ecc845160806200169160201b60201c565b8462001873565b9392505050565b6060600062000ee983620018f4565b905062000ed362000f03825160c06200169160201b60201c565b8262001873565b805160009062000f1c57506000919050565b6020820151805160001a9060c082101562000f3b575060009392505050565b5060019392505050565b805160009062000f5757506000919050565b60008062000f6f846020015162000fdd60201b60201c565b846020015162000f80919062001df1565b905060008460000151856020015162000f9a919062001df1565b90505b8082101562000fd45762000fb1826200106b565b62000fbd908362001df1565b91508262000fcb8162001e0c565b93505062000f9d565b50909392505050565b8051600090811a608081101562000ff75750600092915050565b60b881108062001014575060c0811080159062001014575060f881105b15620010235750600192915050565b60c081101562001057576200103b600160b862001ea4565b6200104a9060ff168262001e2a565b62000ed390600162001df1565b6200103b600160f862001ea4565b50919050565b80516000908190811a608081101562001088576001915062000b38565b60b8811015620010b4576200109f60808262001e2a565b620010ac90600162001df1565b915062000b38565b60c0811015620010e35760b78103600185019450806020036101000a8551046001820181019350505062000b38565b60f8811015620010fa576200109f60c08262001e2a565b60019390930151602084900360f7016101000a900490920160f5190192915050565b806200112757505050565b602081106200116757825182526200114160208462001df1565b92506200115060208362001df1565b91506200115f60208262001e2a565b905062001127565b8015620011a757600060016200117f83602062001e2a565b6200118d9061010062001fc7565b62001199919062001e2a565b845184518216911916178352505b505050565b8051600090601514620012025760405162461bcd60e51b815260206004820152601360248201527f4d7573742068617665206c656e677468203231000000000000000000000000006044820152606401620000cb565b62000ab682620008df565b6000805b821562000ab6576200122560018262001df1565b9050600183901c925062001211565b606060ff82101562001271576040516001600160f81b031960f884901b1660208201526021015b6040516020818303038152906040529050919050565b60ff821080159062001284575061ffff82105b15620012aa576040516001600160f01b031960f084901b1660208201526022016200125b565b61ffff8210801590620012bf575062ffffff82105b15620012e5576040516001600160e81b031960e884901b1660208201526023016200125b565b62ffffff8210801590620012fc575063ffffffff82105b1562001322576040516001600160e01b031960e084901b1660208201526024016200125b565b63ffffffff82108015906200133b575064ffffffffff82105b1562001361576040516001600160d81b031960d884901b1660208201526025016200125b565b64ffffffffff82108015906200137c575065ffffffffffff82105b15620013a2576040516001600160d01b031960d084901b1660208201526026016200125b565b65ffffffffffff8210801590620013bf575066ffffffffffffff82105b15620013e5576040516001600160c81b031960c884901b1660208201526027016200125b565b66ffffffffffffff82108015906200140357506001600160401b0382105b1562001429576040516001600160c01b031960c084901b1660208201526028016200125b565b6001600160401b0382108015906200144757506001600160481b0382105b156200146d576040516001600160b81b031960b884901b1660208201526029016200125b565b6001600160481b0382108015906200148b57506001600160501b0382105b15620014b1576040516001600160b01b031960b084901b166020820152602a016200125b565b6001600160501b038210801590620014cf57506001600160581b0382105b15620014f5576040516001600160a81b031960a884901b166020820152602b016200125b565b6001600160581b0382108015906200151357506001600160601b0382105b1562001539576040516001600160a01b031960a084901b166020820152602c016200125b565b6001600160601b0382108015906200155757506001600160681b0382105b156200157d576040516001600160981b0319609884901b166020820152602d016200125b565b6001600160681b0382108015906200159b57506001600160701b0382105b15620015c1576040516001600160901b0319609084901b166020820152602e016200125b565b6001600160701b038210801590620015df57506001600160781b0382105b1562001605576040516001600160881b0319608884901b166020820152602f016200125b565b6001600160781b0382108015906200162357506001600160801b0382105b620016715760405162461bcd60e51b815260206004820152601760248201527f6f75744f66426f756e64733a205b302c20325e3132385d0000000000000000006044820152606401620000cb565b6040516001600160801b0319608084901b1660208201526030016200125b565b6060806038841015620017025760408051600180825281830190925290602082018180368337019050509050620016c9838562001df1565b601f1a60f81b81600081518110620016e557620016e562001da0565b60200101906001600160f81b031916908160001a90535062000ed3565b600060015b62001713818762001e5a565b156200173f5781620017258162001e0c565b92506200173790506101008262001fd5565b905062001707565b6200174c82600162001df1565b6001600160401b0381111562001766576200176662001bd1565b6040519080825280601f01601f19166020018201604052801562001791576020820181803683370190505b509250620017a0858362001df1565b620017ad90603762001df1565b601f1a60f81b83600081518110620017c957620017c962001da0565b60200101906001600160f81b031916908160001a905350600190505b8181116200186957610100620017fc828462001e2a565b6200180a9061010062001fc7565b62001816908862001e5a565b62001822919062001ff7565b601f1a60f81b8382815181106200183d576200183d62001da0565b60200101906001600160f81b031916908160001a90535080620018608162001e0c565b915050620017e5565b5050905092915050565b6060806040519050835180825260208201818101602087015b81831015620018a65780518352602092830192016200188c565b50855184518101855292509050808201602086015b81831015620018d5578051835260209283019201620018bb565b508651929092011591909101601f01601f191660405250905092915050565b60608151600014156200191857604080516000808252602082019092529062000b38565b6000805b835181101562001968578381815181106200193b576200193b62001da0565b6020026020010151518262001951919062001df1565b9150806200195f8162001e0c565b9150506200191c565b6000826001600160401b0381111562001985576200198562001bd1565b6040519080825280601f01601f191660200182016040528015620019b0576020820181803683370190505b50600092509050602081015b8551831015620009a4576000868481518110620019dd57620019dd62001da0565b60200260200101519050600060208201905062001a038382845162001a4860201b60201c565b87858151811062001a185762001a1862001da0565b6020026020010151518362001a2e919062001df1565b92505050828062001a3f9062001e0c565b935050620019bc565b6020811062001a88578151835262001a6260208462001df1565b925062001a7160208362001df1565b915062001a8060208262001e2a565b905062001a48565b600019811562001acd57600162001aa183602062001e2a565b62001aaf9061010062001fc7565b62001abb919062001e2a565b83518551821682199190911617855290505b50505050565b82805462001ae1906200200e565b90600052602060002090601f01602090048101928262001b05576000855562001b50565b82601f1062001b2057805160ff191683800117855562001b50565b8280016001018555821562001b50579182015b8281111562001b5057825182559160200191906001019062001b33565b5062001b5e92915062001bba565b5090565b82805482825590600052602060002090810192821562001b50579160200282015b8281111562001b5057825182546001600160a01b0319166001600160a01b0390911617825560209092019160019091019062001b83565b5b8082111562001b5e576000815560010162001bbb565b634e487b7160e01b600052604160045260246000fd5b60005b8381101562001c0457818101518382015260200162001bea565b8381111562001acd5750506000910152565b60006001600160401b038084111562001c335762001c3362001bd1565b604051601f8501601f19908116603f0116810190828211818310171562001c5e5762001c5e62001bd1565b8160405280935085815286868601111562001c7857600080fd5b62001c8886602083018762001be7565b5050509392505050565b600082601f83011262001ca457600080fd5b62000ed38383516020850162001c16565b600080600080600060a0868803121562001cce57600080fd5b85516001600160a01b038116811462001ce657600080fd5b60208701519095506001600160401b038082111562001d0457600080fd5b818801915088601f83011262001d1957600080fd5b62001d2a8983516020850162001c16565b955060408801519450606088015191508082111562001d4857600080fd5b5062001d578882890162001c92565b925050608086015190509295509295909350565b602081526000825180602084015262001d8c81604085016020870162001be7565b601f01601f19169190910160400192915050565b634e487b7160e01b600052603260045260246000fd5b80516020808301519190811015620010655760001960209190910360031b1b16919050565b634e487b7160e01b600052601160045260246000fd5b6000821982111562001e075762001e0762001ddb565b500190565b600060001982141562001e235762001e2362001ddb565b5060010190565b60008282101562001e3f5762001e3f62001ddb565b500390565b634e487b7160e01b600052601260045260246000fd5b60008262001e6c5762001e6c62001e44565b500490565b6001600160f81b031983168152815160009062001e9681600185016020870162001be7565b919091016001019392505050565b600060ff821660ff84168082101562001ec15762001ec162001ddb565b90039392505050565b600181815b8085111562001f0b57816000190482111562001eef5762001eef62001ddb565b8085161562001efd57918102915b93841c939080029062001ecf565b509250929050565b60008262001f245750600162000ab6565b8162001f335750600062000ab6565b816001811462001f4c576002811462001f575762001f77565b600191505062000ab6565b60ff84111562001f6b5762001f6b62001ddb565b50506001821b62000ab6565b5060208310610133831016604e8410600b841016171562001f9c575081810a62000ab6565b62001fa8838362001eca565b806000190482111562001fbf5762001fbf62001ddb565b029392505050565b600062000ed3838362001f13565b600081600019048311821515161562001ff25762001ff262001ddb565b500290565b60008262002009576200200962001e44565b500690565b600181811c908216806200202357607f821691505b602082108114156200106557634e487b7160e01b600052602260045260246000fd5b60805160a05160c05160e051613cf762002093600039600081816102ca015261054d01526000818160e5015261069a01526000818161019001526115f9015260006103bf0152613cf76000f3fe608060405234801561001057600080fd5b50600436106100af5760003560e01c806319efb11d146100b457806327498240146100cb578063287e3fd4146100d357806331933916146100db57806339c5f3fc146100e35780633eecc1cf14610109578063471f40fb1461011e5780634e69d5601461014957806355272d2f1461015e578063934f16271461017e5780639b49f78f14610186578063be5e0f571461018e578063d179a196146101b4575b600080fd5b6003545b6040519081526020015b60405180910390f35b6007546100b8565b6001546100b8565b6004546100b8565b7f00000000000000000000000000000000000000000000000000000000000000006100b8565b6101116101bc565b6040516100c29190613715565b61013161012c366004613728565b61024e565b6040516001600160a01b0390911681526020016100c2565b610151610281565b6040516100c29190613741565b61017161016c366004613811565b61038b565b6040516100c291906138b6565b6100b861094f565b6006546100b8565b7f00000000000000000000000000000000000000000000000000000000000000006100b8565b6002546100b8565b6060600080546101cb90613918565b80601f01602080910402602001604051908101604052809291908181526020018280546101f790613918565b80156102445780601f1061021957610100808354040283529160200191610244565b820191906000526020600020905b81548152906001019060200180831161022757829003601f168201915b5050505050905090565b6000600160060182815481106102665761026661394d565b6000918252602090912001546001600160a01b031692915050565b60408051808201825260008082526060602083015282516003808252608082019094529192909190816020015b60608152602001906001900390816102ae5790505090506102ee7f000000000000000000000000000000000000000000000000000000000000000061112a565b816000815181106103015761030161394d565b602002602001018190525061031a60016004015461112a565b8160018151811061032d5761032d61394d565b602002602001018190525061034660016003015461112a565b816002815181106103595761035961394d565b6020026020010181905250604051806040016040528060016002015481526020016103838361121b565b905292915050565b60408051808201909152600f81526e0c8d4e955b985d5d1a1bdc9a5e9959608a1b6020820152606090336001600160a01b037f000000000000000000000000000000000000000000000000000000000000000016146104065760405162461bcd60e51b81526004016103fd9190613715565b60405180910390fd5b5083600061041382611292565b509050806040516020016104279190613963565b60405160208183030381529060405280519060200120600060405160200161044f919061397f565b60405160208183030381529060405280519060200120146040518060400160405280600f81526020016e0c8d4e955b985d5d1a1bdc9a5e9959608a1b815250906104ac5760405162461bcd60e51b81526004016103fd9190613715565b506040805160e081018252600180548252600254602080840191909152600354838501526004546060840152600554608084015260065460a08401526007805485518184028101840190965280865260009560c08601939092919083018282801561054057602002820191906000526020600020905b81546001600160a01b03168152600190910190602001808311610522575b50505050508152505090507f0000000000000000000000000000000000000000000000000000000000000000866105779190613a31565b8160a00151146040518060400160405280600e81526020016d32353a496e76616c69644172677360901b815250906105c25760405162461bcd60e51b81526004016103fd9190613715565b50600081608001518260a001516105d99190613a31565b82606001516105e89190613a31565b905060006105f5876112fc565b905060005b81518110156108f25760018282815181106106175761061761394d565b60200260200101516000015114156107eb5760408051808201909152600a815269191a9d2ab735b737bbb760b11b602082015283156106695760405162461bcd60e51b81526004016103fd9190613715565b5060008061068f8484815181106106825761068261394d565b6020026020010151611449565b9150915081608001517f0000000000000000000000000000000000000000000000000000000000000000146040518060400160405280600a815260200169191a9d2ab735b737bbb760b11b815250906106fb5760405162461bcd60e51b81526004016103fd9190613715565b5060e0820151865160408051808201909152600a815269191a9d2ab735b737bbb760b11b602082015291146107435760405162461bcd60e51b81526004016103fd9190613715565b506107568660a001518360a001516114d4565b61076582828860c00151611566565b8151604087015261077582610c0a565b865260c08201511561078d5761014082015160c08701525b610120820151156107e4576000866060015187608001516107ae9190613a48565b90506107be818460a001516114d4565b50610120820151602087015260a082015160808701526101008201516060870181905294505b50506108e0565b60028282815181106107ff576107ff61394d565b60200260200101516000015114156108e05760006108358383815181106108285761082861394d565b602002602001015161171f565b90506000806108438361179a565b9150915086602001518214801561085d5750866060015181145b6040518060400160405280600a815260200169191a9d2ab735b737bbb760b11b8152509061089e5760405162461bcd60e51b81526004016103fd9190613715565b506108ad8a84602001516118d0565b9950826020015151866108c09190613a31565b95508260200151518760a0018181516108d99190613a48565b9052505050505b806108ea81613a60565b9150506105fa565b506040830151156109065760408301516003555b82516001556020808401516002556060840151600455608084015160055560a084015160065560c08401518051610941926007920190613555565b505050505050949350505050565b60055460065460009161096191613a31565b60045461096e9190613a31565b905090565b61097b6135ba565b600061098683610da3565b9050600061099382610dc9565b90506040518061016001604052806109c4836000815181106109b7576109b761394d565b6020026020010151610f06565b81526020016109df836001815181106109b7576109b761394d565b8152602001610a07836002815181106109fa576109fa61394d565b6020026020010151610fba565b610a1090613a7b565b81526020016000610a3a84600381518110610a2d57610a2d61394d565b602002602001015161108a565b11610a76576040805160008082526020820190925290610a70565b610a5d61361f565b815260200190600190039081610a555790505b50610aa1565b610aa1610a9c84600381518110610a8f57610a8f61394d565b60200260200101516110ab565b611a01565b8152602001610abc836004815181106109b7576109b761394d565b81526020016001610ad9846005815181106109b7576109b761394d565b901c8152602001610af6836005815181106109b7576109b761394d565b600116600114151581526020016000610b1b84600681518110610a2d57610a2d61394d565b11610b27576000610b46565b610b3d836006815181106109fa576109fa61394d565b610b4690613a7b565b8152602001610b61836007815181106109b7576109b761394d565b81526020016000610b7e84600881518110610a2d57610a2d61394d565b11610b8a576000610ba9565b610ba0836008815181106109fa576109fa61394d565b610ba990613a7b565b8152602001610bc4836005815181106109b7576109b761394d565b600116600114610be257604080516000815260208101909152610c00565b610c00610bfb846009815181106109fa576109fa61394d565b611b15565b9052949350505050565b60408051600580825260c08201909252600091829190816020015b6060815260200190600190039081610c25579050509050610c49836080015161112a565b81600081518110610c5c57610c5c61394d565b6020026020010181905250610c8f8360c00151610c7a576000610c7d565b60015b60ff1660018560a00151901b1761112a565b81600181518110610ca257610ca261394d565b602090810291909101015260e0830151610cc357610cbe6111a9565b610cf1565b610cf18360e00151604051602001610cdd91815260200190565b6040516020818303038152906040526111c4565b81600281518110610d0457610d0461394d565b6020026020010181905250610d1d83610100015161112a565b81600381518110610d3057610d3061394d565b6020908102919091010152610120830151610d5257610d4d6111a9565b610d6d565b610d6d836101200151604051602001610cdd91815260200190565b81600481518110610d8057610d8061394d565b6020026020010181905250610d948161121b565b80519060200120915050919050565b610dab613636565b50604080518082019091528151815260209182019181019190915290565b6060610dd482611bfa565b610e115760405162461bcd60e51b815260206004820152600e60248201526d135d5cdd0818994818481b1a5cdd60921b60448201526064016103fd565b6000610e1c83611c33565b90506000816001600160401b03811115610e3857610e38613766565b604051908082528060200260200182016040528015610e7157816020015b610e5e613636565b815260200190600190039081610e565790505b5090506000610e838560200151611cb6565b8560200151610e929190613a48565b90506000805b84811015610efb57610ea983611d37565b9150604051806040016040528083815260200184815250848281518110610ed257610ed261394d565b6020908102919091010152610ee78284613a48565b925080610ef381613a60565b915050610e98565b509195945050505050565b805160009015801590610f1b57508151602110155b610f5d5760405162461bcd60e51b815260206004820152601360248201527224b73b30b634b2103ab4b73a10373ab6b132b960691b60448201526064016103fd565b6000610f6c8360200151611cb6565b90506000818460000151610f809190613a31565b9050600080838660200151610f959190613a48565b9050805191506020831015610fb157826020036101000a820491505b50949350505050565b8051606090610ffc5760405162461bcd60e51b815260206004820152600e60248201526d092dcecc2d8d2c840d8cadccee8d60931b60448201526064016103fd565b600061100b8360200151611cb6565b9050600081846000015161101f9190613a31565b90506000816001600160401b0381111561103b5761103b613766565b6040519080825280601f01601f191660200182016040528015611065576020820181803683370190505b5090506000816020019050610fb18487602001516110839190613a48565b8285611ddb565b60006110998260200151611cb6565b82516110a59190613a31565b92915050565b6060600082600001516001600160401b038111156110cb576110cb613766565b6040519080825280601f01601f1916602001820160405280156110f5576020820181803683370190505b5090508051600014156111085792915050565b60008160200190506111238460200151828660000151611ddb565b5092915050565b60606000600861113984611e5b565b6111439190613ab5565b61114e906001613a48565b9050600061115b84611e7e565b9050600081518361116c9190613a31565b111561119857604051611186906000908390602001613ac9565b60405160208183030381529060405290505b6111a1816111c4565b949350505050565b6040805180820190915260028152601f60fb1b602082015290565b606080825160011480156111f357506080836000815181106111e8576111e861394d565b016020015160f81c11155b156111ff5750816110a5565b61121461120e845160806122a6565b8461245c565b9392505050565b60606000611228836124d9565b9050611214611239825160c06122a6565b8261245c565b80516000906015146112895760405162461bcd60e51b81526020600482015260136024820152724d7573742068617665206c656e67746820323160681b60448201526064016103fd565b6110a582610f06565b60608060006112ba84604051806040016040528060018152602001602f60f81b81525061260a565b9050806002815181106112cf576112cf61394d565b6020026020010151816003815181106112ea576112ea61394d565b60200260200101519250925050915091565b6060600061130983610da3565b9050600061131682610dc9565b905061133b8160008151811061132e5761132e61394d565b6020026020010151610dc9565b9050600081516001600160401b0381111561135857611358613766565b60405190808252806020026020018201604052801561139e57816020015b6040805180820190915260008152606060208201528152602001906001900390816113765790505b50905060005b8251811015610fb15760006113c484838151811061132e5761132e61394d565b90506113dc816000815181106109b7576109b761394d565b8383815181106113ee576113ee61394d565b60200260200101516000018181525050611414816001815181106109fa576109fa61394d565b8383815181106114265761142661394d565b60200260200101516020018190525050808061144190613a60565b9150506113a4565b6114516135ba565b611459613650565b82516001146114be5760405162461bcd60e51b815260206004820152602b60248201527f52656c61794d6573736167653a20537570706f7274206f6e6c7920426c6f636b60448201526a557064617465207479706560a81b60648201526084016103fd565b6114cb83602001516127fd565b91509150915091565b8082101561151a57604080518082018252601081526f32363a4e6f7456657269666961626c6560801b6020820152905162461bcd60e51b81526103fd9190600401613715565b808211156115625760408051808201825260128152710c8dce905b1c9958591e55995c9a599a595960721b6020820152905162461bcd60e51b81526103fd9190600401613715565b5050565b6000806116286000805461157990613918565b80601f01602080910402602001604051908101604052809291908181526020018280546115a590613918565b80156115f25780601f106115c7576101008083540402835291602001916115f2565b820191906000526020600020905b8154815290600101906020018083116115d557829003601f168201915b50505050507f00000000000000000000000000000000000000000000000000000000000000008761286e9092919063ffffffff16565b905060005b84515181108015611646575061164484518461299a565b155b156116ca57600061167483876000015184815181106116675761166761394d565b60200260200101516129ba565b90508482815181106116885761168861394d565b60200260200101516001600160a01b0316816001600160a01b031614156116b757836116b381613a60565b9450505b50806116c281613a60565b91505061162d565b506116d683518361299a565b6040518060400160405280600a815260200169191a9d2ab735b737bbb760b11b815250906117175760405162461bcd60e51b81526004016103fd9190613715565b505050505050565b611727613663565b815160021461178d5760405162461bcd60e51b815260206004820152602c60248201527f52656c61794d6573736167653a20537570706f7274206f6e6c79204d6573736160448201526b676550726f6f66207479706560a01b60648201526084016103fd565b6110a58260200151612a42565b60008060006117a884612b81565b905060006117b98260600151612d4a565b90508060015b81156117de57806117cf81613a60565b915050600182901c91506117bf565b6000805b828110156118a0576040860151935083915060005b8481101561188d57600061180a88612d94565b90508361181681613afa565b94506118259050836001613a48565b8151118015906118355750600084115b1561187057600061184589612d94565b90506118518282612e0a565b91508461185d81613afa565b955050828061186b90613a60565b935050505b61187a8882612f39565b508061188581613a60565b9150506117f7565b508061189881613a60565b9150506117e2565b5084604001516001146118b5576118b5613b11565b6118be85612d94565b60400151989397509295505050505050565b606060008251116118e25750816110a5565b825182518491906118f39082613a48565b6001600160401b0381111561190a5761190a613766565b60405190808252806020026020018201604052801561193d57816020015b60608152602001906001900390816119285790505b50945060005b818110156119955782818151811061195d5761195d61394d565b60200260200101518682815181106119775761197761394d565b6020026020010181905250808061198d90613a60565b915050611943565b5060005b84518110156119f7578481815181106119b4576119b461394d565b60200260200101518682846119c99190613a48565b815181106119d9576119d961394d565b602002602001018190525080806119ef90613a60565b915050611999565b5093949350505050565b60606000611a16611a1184610da3565b610dc9565b9050600081516001600160401b03811115611a3357611a33613766565b604051908082528060200260200182016040528015611a6c57816020015b611a5961361f565b815260200190600190039081611a515790505b50905060005b8251811015611b0d576000611a9284838151811061132e5761132e61394d565b90506040518060400160405280611ab5836000815181106109b7576109b761394d565b8152602001611ad0836001815181106109fa576109fa61394d565b611ad990613a7b565b815250838381518110611aee57611aee61394d565b6020026020010181905250508080611b0590613a60565b915050611a72565b509392505050565b60606000611b2283610da3565b90506000611b2f82610dc9565b9050611b478160008151811061132e5761132e61394d565b9050600081516001600160401b03811115611b6457611b64613766565b604051908082528060200260200182016040528015611b8d578160200160208202803683370190505b50905060005b8251811015610fb157611bbe838281518110611bb157611bb161394d565b602002602001015161123f565b828281518110611bd057611bd061394d565b6001600160a01b039092166020928302919091019091015280611bf281613a60565b915050611b93565b8051600090611c0b57506000919050565b6020820151805160001a9060c0821015611c29575060009392505050565b5060019392505050565b8051600090611c4457506000919050565b600080611c548460200151611cb6565b8460200151611c639190613a48565b9050600084600001518560200151611c7b9190613a48565b90505b80821015611cad57611c8f82611d37565b611c999083613a48565b915082611ca581613a60565b935050611c7e565b50909392505050565b8051600090811a6080811015611ccf5750600092915050565b60b8811080611cea575060c08110801590611cea575060f881105b15611cf85750600192915050565b60c0811015611d2557611d0d600160b8613b27565b611d1a9060ff1682613a31565b611214906001613a48565b611d0d600160f8613b27565b50919050565b80516000908190811a6080811015611d525760019150611123565b60b8811015611d7857611d66608082613a31565b611d71906001613a48565b9150611123565b60c0811015611da55760b78103600185019450806020036101000a85510460018201810193505050611123565b60f8811015611db957611d6660c082613a31565b60019390930151602084900360f7016101000a900490920160f5190192915050565b80611de557505050565b60208110611e1d5782518252611dfc602084613a48565b9250611e09602083613a48565b9150611e16602082613a31565b9050611de5565b8015611e565760006001611e32836020613a31565b611e3e90610100613c2e565b611e489190613a31565b845184518216911916178352505b505050565b6000805b82156110a557611e70600182613a48565b9050600183901c9250611e5f565b606060ff821015611eba576040516001600160f81b031960f884901b1660208201526021015b6040516020818303038152906040529050919050565b60ff8210801590611ecc575061ffff82105b15611ef0576040516001600160f01b031960f084901b166020820152602201611ea4565b61ffff8210801590611f04575062ffffff82105b15611f28576040516001600160e81b031960e884901b166020820152602301611ea4565b62ffffff8210801590611f3e575063ffffffff82105b15611f62576040516001600160e01b031960e084901b166020820152602401611ea4565b63ffffffff8210801590611f7a575064ffffffffff82105b15611f9e576040516001600160d81b031960d884901b166020820152602501611ea4565b64ffffffffff8210801590611fb8575065ffffffffffff82105b15611fdc576040516001600160d01b031960d084901b166020820152602601611ea4565b65ffffffffffff8210801590611ff8575066ffffffffffffff82105b1561201c576040516001600160c81b031960c884901b166020820152602701611ea4565b66ffffffffffffff821080159061203957506001600160401b0382105b1561205d576040516001600160c01b031960c084901b166020820152602801611ea4565b6001600160401b03821080159061207a57506001600160481b0382105b1561209e576040516001600160b81b031960b884901b166020820152602901611ea4565b6001600160481b0382108015906120bb57506001600160501b0382105b156120df576040516001600160b01b031960b084901b166020820152602a01611ea4565b6001600160501b0382108015906120fc57506001600160581b0382105b15612120576040516001600160a81b031960a884901b166020820152602b01611ea4565b6001600160581b03821080159061213d57506001600160601b0382105b15612161576040516001600160a01b031960a084901b166020820152602c01611ea4565b6001600160601b03821080159061217e57506001600160681b0382105b156121a2576040516001600160981b0319609884901b166020820152602d01611ea4565b6001600160681b0382108015906121bf57506001600160701b0382105b156121e3576040516001600160901b0319609084901b166020820152602e01611ea4565b6001600160701b03821080159061220057506001600160781b0382105b15612224576040516001600160881b0319608884901b166020820152602f01611ea4565b6001600160781b03821080159061224157506001600160801b0382105b6122875760405162461bcd60e51b81526020600482015260176024820152766f75744f66426f756e64733a205b302c20325e3132385d60481b60448201526064016103fd565b6040516001600160801b0319608084901b166020820152603001611ea4565b606080603884101561231057604080516001808252818301909252906020820181803683370190505090506122db8385613a48565b601f1a60f81b816000815181106122f4576122f461394d565b60200101906001600160f81b031916908160001a905350611214565b600060015b61231f8187613ab5565b15612345578161232e81613a60565b925061233e905061010082613c3a565b9050612315565b612350826001613a48565b6001600160401b0381111561236757612367613766565b6040519080825280601f01601f191660200182016040528015612391576020820181803683370190505b50925061239e8583613a48565b6123a9906037613a48565b601f1a60f81b836000815181106123c2576123c261394d565b60200101906001600160f81b031916908160001a905350600190505b818111612453576101006123f28284613a31565b6123fe90610100613c2e565b6124089088613ab5565b6124129190613c59565b601f1a60f81b83828151811061242a5761242a61394d565b60200101906001600160f81b031916908160001a9053508061244b81613a60565b9150506123de565b50509392505050565b6060806040519050835180825260208201818101602087015b8183101561248d578051835260209283019201612475565b50855184518101855292509050808201602086015b818310156124ba5780518352602092830192016124a2565b508651929092011591909101601f01601f191660405250905092915050565b60608151600014156124fb576040805160008082526020820190925290611123565b6000805b83518110156125425783818151811061251a5761251a61394d565b6020026020010151518261252e9190613a48565b91508061253a81613a60565b9150506124ff565b6000826001600160401b0381111561255c5761255c613766565b6040519080825280601f01601f191660200182016040528015612586576020820181803683370190505b50600092509050602081015b8551831015610fb15760008684815181106125af576125af61394d565b6020026020010151905060006020820190506125cd83828451612fb4565b8785815181106125df576125df61394d565b602002602001015151836125f39190613a48565b92505050828061260290613a60565b935050612592565b606082600060015b600183516126209190613a31565b821015612667576000612634878785613030565b90508060001914156126465750612667565b8161265081613a60565b925061265f9050816001613a48565b925050612612565b806001600160401b0381111561267f5761267f613766565b6040519080825280602002602001820160405280156126b257816020015b606081526020019060019003908161269d5790505b50935060009150600090505b600183516126cc9190613a31565b8210156127f45760006126e0878785613030565b90508060001914156126f0575082515b60006126fc8483613a31565b6001600160401b0381111561271357612713613766565b6040519080825280601f01601f19166020018201604052801561273d576020820181803683370190505b509050806000855b848110156127b45787818151811061275f5761275f61394d565b01602001516001600160f81b031916838361277981613a60565b94508151811061278b5761278b61394d565b60200101906001600160f81b031916908160001a905350806127ac81613a60565b915050612745565b506127c0846001613a48565b95508188866127ce81613a60565b9750815181106127e0576127e061394d565b6020026020010181905250505050506126be565b50505092915050565b6128056135ba565b61280d613650565b600061281884610da3565b9050600061282582610dc9565b9050612845612840826000815181106109fa576109fa61394d565b610973565b61286361285e836001815181106109fa576109fa61394d565b6130cc565b935093505050915091565b60408051600580825260c08201909252600091829190816020015b60608152602001906001900390816128895790505090506128a9846131ff565b816000815181106128bc576128bc61394d565b60200260200101819052506128d08361112a565b816001815181106128e3576128e361394d565b60200260200101819052506128fb856000015161112a565b8160028151811061290e5761290e61394d565b6020026020010181905250612926856020015161112a565b816003815181106129395761293961394d565b60200260200101819052506129626129508661320a565b604051602001610cdd91815260200190565b816004815181106129755761297561394d565b60200260200101819052506129898161121b565b805190602001209150509392505050565b60006129a7836002613c3a565b6129b2836003613c3a565b119392505050565b6000806000806129c985613293565b919450925090506001866129de83601b613c6d565b6040805160008152602081018083529390935260ff90911690820152606081018590526080810184905260a0016020604051602081039080840390855afa158015612a2d573d6000803e3d6000fd5b5050604051601f190151979650505050505050565b612a4a613663565b6000612a5583610da3565b90506000612a6282610dc9565b90506000612a7c8260018151811061132e5761132e61394d565b90506000612a9e612a998460008151811061132e5761132e61394d565b6132c2565b90506000612abb612a998560028151811061132e5761132e61394d565b9050600083516001600160401b03811115612ad857612ad8613766565b604051908082528060200260200182016040528015612b0b57816020015b6060815260200190600190039081612af65790505b50905060005b8451811015612b5f57612b2f8582815181106109fa576109fa61394d565b828281518110612b4157612b4161394d565b60200260200101819052508080612b5790613a60565b915050612b11565b5060408051606081018252938452602084019190915282015295945050505050565b612bac6040518060800160405280600081526020016000815260200160008152602001606081525090565b60006040518060800160405280600081526020016000815260200160008152602001846040015151856020015151866000015151612bea9190613a48565b612bf49190613a48565b6001600160401b03811115612c0b57612c0b613766565b604051908082528060200260200182016040528015612c4457816020015b612c31613684565b815260200190600190039081612c295790505b509052905060005b835151811015612c9857612c8684600001518281518110612c6f57612c6f61394d565b602002602001015183612f3990919063ffffffff16565b80612c9081613a60565b915050612c4c565b5060005b836020015151811015612d0e57612cfc6040518060600160405280600181526020016001815260200186602001518481518110612cdb57612cdb61394d565b60200260200101518051906020012081525083612f3990919063ffffffff16565b80612d0681613a60565b915050612c9c565b5060005b83604001515181101561112357612d3884604001518281518110612c6f57612c6f61394d565b80612d4281613a60565b915050612d12565b6000805b8251811015611d3157828181518110612d6957612d6961394d565b60200260200101516020015182612d809190613a48565b915080612d8c81613a60565b915050612d4e565b612d9c613684565b6000826040015111612db057612db0613b11565b6060820151825183612dc182613a60565b905281518110612dd357612dd361394d565b60200260200101519050816040018051809190612def90613afa565b90525060608201515182511415612e0557600082525b919050565b612e12613684565b8251612e2090600190613a31565b6001901b8360200151146040518060400160405280600a815260200169191a9d2ab735b737bbb760b11b81525090612e6b5760405162461bcd60e51b81526004016103fd9190613715565b508160200151836020015110156040518060400160405280600a815260200169191a9d2ab735b737bbb760b11b81525090612eb95760405162461bcd60e51b81526004016103fd9190613715565b50604051806060016040528084600001516001612ed69190613a48565b815260200183602001518560200151612eef9190613a48565b815260200184604001518460400151604051602001612f18929190918252602082015260400190565b60405160208183030381529060405280519060200120815250905092915050565b816060015151826040015110612f5157612f51613b11565b6060820151602083018051839291612f6882613a60565b905281518110612f7a57612f7a61394d565b602090810291909101015260408201805190612f9582613a60565b9052506060820151516020830151141561156257600060208301525050565b60208110612fec5781518352612fcb602084613a48565b9250612fd8602083613a48565b9150612fe5602082613a31565b9050612fb4565b600019811561302a576001613002836020613a31565b61300e90610100613c2e565b6130189190613a31565b83518551821682199190911617855290505b50505050565b81516000908490849060011461304857613048613b11565b835b82518110156130be57816000815181106130665761306661394d565b602001015160f81c60f81b6001600160f81b03191683828151811061308d5761308d61394d565b01602001516001600160f81b03191614156130ac579250611214915050565b806130b681613a60565b91505061304a565b506000199695505050505050565b6130d4613650565b60006130df83610da3565b905060006130ec82610dc9565b9050806000815181106131015761310161394d565b6020026020010151915061311482610dc9565b9050600081516001600160401b0381111561313157613131613766565b60405190808252806020026020018201604052801561316457816020015b606081526020019060019003908161314f5790505b50905060005b82518110156131e857600061318a848381518110610a2d57610a2d61394d565b116131a3576040805160008152602081019091526131b8565b6131b88382815181106109fa576109fa61394d565b8282815181106131ca576131ca61394d565b602002602001018190525080806131e090613a60565b91505061316a565b506040805160208101909152908152949350505050565b60606110a5826111c4565b60408051600280825260608201909252600091829190816020015b60608152602001906001900390816132255790505090506132568360400151604051602001610cdd91815260200190565b816000815181106132695761326961394d565b6020026020010181905250613280612950846133da565b81600181518110610d8057610d8061394d565b600080600083516041146132a657600080fd5b50505060208101516040820151606083015160001a9193909250565b606080600083516001600160401b038111156132e0576132e0613766565b60405190808252806020026020018201604052801561331957816020015b613306613684565b8152602001906001900390816132fe5790505b50905060005b8451811015611b0d5761333d85828151811061132e5761132e61394d565b92506040518060600160405280613368613363866000815181106109b7576109b761394d565b6133f2565b8152602001613383856000815181106109b7576109b761394d565b815260200161339e856001815181106109fa576109fa61394d565b6133a790613a7b565b8152508282815181106133bc576133bc61394d565b602002602001018190525080806133d290613a60565b91505061331f565b60006110a56133e883610c0a565b836060015161340c565b600160001982015b8015611d31576001918201911c6133fa565b600082815b8351811015611b0d5783818151811061342c5761342c61394d565b6020026020010151600001516000146134c35760408051602081018490520160405160208183030381529060405284828151811061346c5761346c61394d565b60200260200101516020015160405160200161348a91815260200190565b60408051601f19818403018152908290526134a89291602001613c92565b60405160208183030381529060405280519060200120613541565b8381815181106134d5576134d561394d565b6020026020010151602001516040516020016134f391815260200190565b60408051601f1981840301815282825260208301859052910160408051601f198184030181529082905261352a9291602001613c92565b604051602081830303815290604052805190602001205b91508061354d81613a60565b915050613411565b8280548282559060005260206000209081019282156135aa579160200282015b828111156135aa57825182546001600160a01b0319166001600160a01b03909116178255602090920191600190910190613575565b506135b69291506136a8565b5090565b604051806101600160405280600081526020016000815260200160008019168152602001606081526020016000815260200160008152602001600015158152602001600080191681526020016000815260200160008019168152602001606081525090565b604080518082019091526000808252602082015290565b604051806040016040528060008152602001600081525090565b6040518060200160405280606081525090565b60405180606001604052806060815260200160608152602001606081525090565b60405180606001604052806000815260200160008152602001600080191681525090565b5b808211156135b657600081556001016136a9565b60005b838110156136d85781810151838201526020016136c0565b8381111561302a5750506000910152565b600081518084526137018160208601602086016136bd565b601f01601f19169290920160200192915050565b60208152600061121460208301846136e9565b60006020828403121561373a57600080fd5b5035919050565b6020815281516020820152600060208301516040808401526111a160608401826136e9565b634e487b7160e01b600052604160045260246000fd5b60006001600160401b038084111561379657613796613766565b604051601f8501601f19908116603f011681019082821181831017156137be576137be613766565b816040528093508581528686860111156137d757600080fd5b858560208301376000602087830101525050509392505050565b600082601f83011261380257600080fd5b6112148383356020850161377c565b6000806000806080858703121561382757600080fd5b84356001600160401b038082111561383e57600080fd5b61384a888389016137f1565b9550602087013591508082111561386057600080fd5b61386c888389016137f1565b945060408701359350606087013591508082111561388957600080fd5b508501601f8101871361389b57600080fd5b6138aa8782356020840161377c565b91505092959194509250565b6000602080830181845280855180835260408601915060408160051b870101925083870160005b8281101561390b57603f198886030184526138f98583516136e9565b945092850192908501906001016138dd565b5092979650505050505050565b600181811c9082168061392c57607f821691505b60208210811415611d3157634e487b7160e01b600052602260045260246000fd5b634e487b7160e01b600052603260045260246000fd5b600082516139758184602087016136bd565b9190910192915050565b600080835481600182811c91508083168061399b57607f831692505b60208084108214156139bb57634e487b7160e01b86526022600452602486fd5b8180156139cf57600181146139e057613a0d565b60ff19861689528489019650613a0d565b60008a81526020902060005b86811015613a055781548b8201529085019083016139ec565b505084890196505b509498975050505050505050565b634e487b7160e01b600052601160045260246000fd5b600082821015613a4357613a43613a1b565b500390565b60008219821115613a5b57613a5b613a1b565b500190565b6000600019821415613a7457613a74613a1b565b5060010190565b80516020808301519190811015611d315760001960209190910360031b1b16919050565b634e487b7160e01b600052601260045260246000fd5b600082613ac457613ac4613a9f565b500490565b6001600160f81b0319831681528151600090613aec8160018501602087016136bd565b919091016001019392505050565b600081613b0957613b09613a1b565b506000190190565b634e487b7160e01b600052600160045260246000fd5b600060ff821660ff841680821015613b4157613b41613a1b565b90039392505050565b600181815b80851115613b85578160001904821115613b6b57613b6b613a1b565b80851615613b7857918102915b93841c9390800290613b4f565b509250929050565b600082613b9c575060016110a5565b81613ba9575060006110a5565b8160018114613bbf5760028114613bc957613be5565b60019150506110a5565b60ff841115613bda57613bda613a1b565b50506001821b6110a5565b5060208310610133831016604e8410600b8410161715613c08575081810a6110a5565b613c128383613b4a565b8060001904821115613c2657613c26613a1b565b029392505050565b60006112148383613b8d565b6000816000190483118215151615613c5457613c54613a1b565b500290565b600082613c6857613c68613a9f565b500690565b600060ff821660ff84168060ff03821115613c8a57613c8a613a1b565b019392505050565b60008351613ca48184602088016136bd565b835190830190613cb88183602088016136bd565b0194935050505056fea2646970667358221220f598032a2adebf7d3a42fe73483089ef850536e9c57772b2001b9e8ef2cdfd8764736f6c634300080c0033",
  "linkReferences": {},
  "deployedLinkReferences": {}
}