{
  "_format": "hh-sol-artifact-1",
  "contractName": "Strings",
  "sourceName": "solidity/contracts/xcall/libraries/Strings.sol",
  "abi": [
    {
      "inputs": [
        {
          "internalType": "bytes",
          "name": "buffer",
          "type": "bytes"
        }
      ],
      "name": "bytesToHex",
      "outputs": [
        {
          "internalType": "string",
          "name": "",
          "type": "string"
        }
      ],
      "stateMutability": "pure",
      "type": "function"
    }
  ],
  "bytecode": "0x61049361003a600b82828239805160001a60731461002d57634e487b7160e01b600052600060045260246000fd5b30600052607381538281f3fe73000000000000000000000000000000000000000030146080604052600436106100355760003560e01c8063451d89fa1461003a575b600080fd5b61004d610048366004610264565b610063565b60405161005a9190610344565b60405180910390f35b606081516000141561008d575050604080518082019091526002815261060f60f31b602082015290565b60008251600261009d919061038d565b6001600160401b038111156100b4576100b461024e565b6040519080825280601f01601f1916602001820160405280156100de576020820181803683370190505b5060408051808201909152601081526f181899199a1a9b1b9c1cb0b131b232b360811b602082015290915060005b84518110156102245781825186838151811061012a5761012a6103ac565b016020015161013c919060f81c6103d8565b8151811061014c5761014c6103ac565b01602001516001600160f81b0319168361016783600261038d565b81518110610177576101776103ac565b60200101906001600160f81b031916908160001a9053508182518683815181106101a3576101a36103ac565b01602001516101b5919060f81c6103ec565b815181106101c5576101c56103ac565b01602001516001600160f81b031916836101e083600261038d565b6101eb906001610400565b815181106101fb576101fb6103ac565b60200101906001600160f81b031916908160001a9053508061021c81610418565b91505061010c565b50816040516020016102369190610433565b60405160208183030381529060405292505050919050565b634e487b7160e01b600052604160045260246000fd5b60006020828403121561027657600080fd5b81356001600160401b038082111561028d57600080fd5b818401915084601f8301126102a157600080fd5b8135818111156102b3576102b361024e565b604051601f8201601f19908116603f011681019083821181831017156102db576102db61024e565b816040528281528760208487010111156102f457600080fd5b826020860160208301376000928101602001929092525095945050505050565b60005b8381101561032f578181015183820152602001610317565b8381111561033e576000848401525b50505050565b6020815260008251806020840152610363816040850160208701610314565b601f01601f19169190910160400192915050565b634e487b7160e01b600052601160045260246000fd5b60008160001904831182151516156103a7576103a7610377565b500290565b634e487b7160e01b600052603260045260246000fd5b634e487b7160e01b600052601260045260246000fd5b6000826103e7576103e76103c2565b500490565b6000826103fb576103fb6103c2565b500690565b6000821982111561041357610413610377565b500190565b600060001982141561042c5761042c610377565b5060010190565b61060f60f31b815260008251610450816002850160208701610314565b919091016002019291505056fea2646970667358221220c402f5701b82ce6505a84ac6592dc57e576529d6bfaad0a311147c85b91fd89164736f6c634300080c0033",
  "linkReferences": {},
  "deployedLinkReferences": {}
}