{
  "_format": "hh-sol-artifact-1",
  "contractName": "BMCManagement",
  "sourceName": "solidity/contracts/bmc/BMCManagement.sol",
  "abi": [
    {
      "anonymous": false,
      "inputs": [
        {
          "indexed": false,
          "internalType": "uint8",
          "name": "version",
          "type": "uint8"
        }
      ],
      "name": "Initialized",
      "type": "event"
    },
    {
      "inputs": [
        {
          "internalType": "string",
          "name": "_link",
          "type": "string"
        }
      ],
      "name": "addLink",
      "outputs": [],
      "stateMutability": "nonpayable",
      "type": "function"
    },
    {
      "inputs": [
        {
          "internalType": "address",
          "name": "_owner",
          "type": "address"
        }
      ],
      "name": "addOwner",
      "outputs": [],
      "stateMutability": "nonpayable",
      "type": "function"
    },
    {
      "inputs": [
        {
          "internalType": "string",
          "name": "_from",
          "type": "string"
        },
        {
          "internalType": "string",
          "name": "_reachable",
          "type": "string"
        }
      ],
      "name": "addReachable",
      "outputs": [],
      "stateMutability": "nonpayable",
      "type": "function"
    },
    {
      "inputs": [
        {
          "internalType": "string",
          "name": "_link",
          "type": "string"
        },
        {
          "internalType": "address",
          "name": "_addr",
          "type": "address"
        }
      ],
      "name": "addRelay",
      "outputs": [],
      "stateMutability": "nonpayable",
      "type": "function"
    },
    {
      "inputs": [
        {
          "internalType": "string",
          "name": "_dst",
          "type": "string"
        },
        {
          "internalType": "string",
          "name": "_link",
          "type": "string"
        }
      ],
      "name": "addRoute",
      "outputs": [],
      "stateMutability": "nonpayable",
      "type": "function"
    },
    {
      "inputs": [
        {
          "internalType": "string",
          "name": "_svc",
          "type": "string"
        },
        {
          "internalType": "address",
          "name": "_addr",
          "type": "address"
        }
      ],
      "name": "addService",
      "outputs": [],
      "stateMutability": "nonpayable",
      "type": "function"
    },
    {
      "inputs": [
        {
          "internalType": "string",
          "name": "_net",
          "type": "string"
        },
        {
          "internalType": "address",
          "name": "_addr",
          "type": "address"
        }
      ],
      "name": "addVerifier",
      "outputs": [],
      "stateMutability": "nonpayable",
      "type": "function"
    },
    {
      "inputs": [
        {
          "internalType": "string",
          "name": "_src",
          "type": "string"
        },
        {
          "internalType": "uint256",
          "name": "_seq",
          "type": "uint256"
        },
        {
          "internalType": "string",
          "name": "_svc",
          "type": "string"
        },
        {
          "internalType": "int256",
          "name": "_sn",
          "type": "int256"
        },
        {
          "internalType": "int256",
          "name": "_nsn",
          "type": "int256"
        },
        {
          "internalType": "string",
          "name": "_feeNetwork",
          "type": "string"
        },
        {
          "internalType": "uint256[]",
          "name": "_feeValues",
          "type": "uint256[]"
        }
      ],
      "name": "dropMessage",
      "outputs": [],
      "stateMutability": "nonpayable",
      "type": "function"
    },
    {
      "inputs": [],
      "name": "getBMCPeriphery",
      "outputs": [
        {
          "internalType": "address",
          "name": "",
          "type": "address"
        }
      ],
      "stateMutability": "view",
      "type": "function"
    },
    {
      "inputs": [],
      "name": "getBMCService",
      "outputs": [
        {
          "internalType": "address",
          "name": "",
          "type": "address"
        }
      ],
      "stateMutability": "view",
      "type": "function"
    },
    {
      "inputs": [
        {
          "internalType": "string",
          "name": "_to",
          "type": "string"
        },
        {
          "internalType": "bool",
          "name": "_response",
          "type": "bool"
        }
      ],
      "name": "getFee",
      "outputs": [
        {
          "internalType": "uint256",
          "name": "",
          "type": "uint256"
        },
        {
          "internalType": "uint256[]",
          "name": "",
          "type": "uint256[]"
        }
      ],
      "stateMutability": "view",
      "type": "function"
    },
    {
      "inputs": [],
      "name": "getFeeHandler",
      "outputs": [
        {
          "internalType": "address",
          "name": "",
          "type": "address"
        }
      ],
      "stateMutability": "view",
      "type": "function"
    },
    {
      "inputs": [
        {
          "internalType": "string[]",
          "name": "_dst",
          "type": "string[]"
        }
      ],
      "name": "getFeeTable",
      "outputs": [
        {
          "internalType": "uint256[][]",
          "name": "_feeTable",
          "type": "uint256[][]"
        }
      ],
      "stateMutability": "view",
      "type": "function"
    },
    {
      "inputs": [
        {
          "internalType": "string",
          "name": "_dst",
          "type": "string"
        }
      ],
      "name": "getHop",
      "outputs": [
        {
          "internalType": "uint256",
          "name": "",
          "type": "uint256"
        }
      ],
      "stateMutability": "view",
      "type": "function"
    },
    {
      "inputs": [],
      "name": "getLinks",
      "outputs": [
        {
          "internalType": "string[]",
          "name": "",
          "type": "string[]"
        }
      ],
      "stateMutability": "view",
      "type": "function"
    },
    {
      "inputs": [
        {
          "internalType": "string",
          "name": "_link",
          "type": "string"
        }
      ],
      "name": "getRelays",
      "outputs": [
        {
          "internalType": "address[]",
          "name": "",
          "type": "address[]"
        }
      ],
      "stateMutability": "view",
      "type": "function"
    },
    {
      "inputs": [],
      "name": "getRoutes",
      "outputs": [
        {
          "components": [
            {
              "internalType": "string",
              "name": "dst",
              "type": "string"
            },
            {
              "internalType": "string",
              "name": "next",
              "type": "string"
            }
          ],
          "internalType": "struct Types.Route[]",
          "name": "",
          "type": "tuple[]"
        }
      ],
      "stateMutability": "view",
      "type": "function"
    },
    {
      "inputs": [
        {
          "internalType": "string",
          "name": "_svc",
          "type": "string"
        }
      ],
      "name": "getService",
      "outputs": [
        {
          "internalType": "address",
          "name": "",
          "type": "address"
        }
      ],
      "stateMutability": "view",
      "type": "function"
    },
    {
      "inputs": [],
      "name": "getServices",
      "outputs": [
        {
          "components": [
            {
              "internalType": "string",
              "name": "svc",
              "type": "string"
            },
            {
              "internalType": "address",
              "name": "addr",
              "type": "address"
            }
          ],
          "internalType": "struct Types.Service[]",
          "name": "",
          "type": "tuple[]"
        }
      ],
      "stateMutability": "view",
      "type": "function"
    },
    {
      "inputs": [
        {
          "internalType": "string",
          "name": "_net",
          "type": "string"
        }
      ],
      "name": "getVerifier",
      "outputs": [
        {
          "internalType": "address",
          "name": "",
          "type": "address"
        }
      ],
      "stateMutability": "view",
      "type": "function"
    },
    {
      "inputs": [],
      "name": "getVerifiers",
      "outputs": [
        {
          "components": [
            {
              "internalType": "string",
              "name": "net",
              "type": "string"
            },
            {
              "internalType": "address",
              "name": "addr",
              "type": "address"
            }
          ],
          "internalType": "struct Types.Verifier[]",
          "name": "",
          "type": "tuple[]"
        }
      ],
      "stateMutability": "view",
      "type": "function"
    },
    {
      "inputs": [],
      "name": "initialize",
      "outputs": [],
      "stateMutability": "nonpayable",
      "type": "function"
    },
    {
      "inputs": [
        {
          "internalType": "string",
          "name": "_link",
          "type": "string"
        },
        {
          "internalType": "address",
          "name": "_addr",
          "type": "address"
        }
      ],
      "name": "isLinkRelay",
      "outputs": [
        {
          "internalType": "bool",
          "name": "",
          "type": "bool"
        }
      ],
      "stateMutability": "view",
      "type": "function"
    },
    {
      "inputs": [
        {
          "internalType": "address",
          "name": "_owner",
          "type": "address"
        }
      ],
      "name": "isOwner",
      "outputs": [
        {
          "internalType": "bool",
          "name": "",
          "type": "bool"
        }
      ],
      "stateMutability": "view",
      "type": "function"
    },
    {
      "inputs": [
        {
          "internalType": "string",
          "name": "_link",
          "type": "string"
        }
      ],
      "name": "removeLink",
      "outputs": [],
      "stateMutability": "nonpayable",
      "type": "function"
    },
    {
      "inputs": [
        {
          "internalType": "address",
          "name": "_owner",
          "type": "address"
        }
      ],
      "name": "removeOwner",
      "outputs": [],
      "stateMutability": "nonpayable",
      "type": "function"
    },
    {
      "inputs": [
        {
          "internalType": "string",
          "name": "_from",
          "type": "string"
        },
        {
          "internalType": "string",
          "name": "_reachable",
          "type": "string"
        }
      ],
      "name": "removeReachable",
      "outputs": [],
      "stateMutability": "nonpayable",
      "type": "function"
    },
    {
      "inputs": [
        {
          "internalType": "string",
          "name": "_link",
          "type": "string"
        },
        {
          "internalType": "address",
          "name": "_addr",
          "type": "address"
        }
      ],
      "name": "removeRelay",
      "outputs": [],
      "stateMutability": "nonpayable",
      "type": "function"
    },
    {
      "inputs": [
        {
          "internalType": "string",
          "name": "_dst",
          "type": "string"
        }
      ],
      "name": "removeRoute",
      "outputs": [],
      "stateMutability": "nonpayable",
      "type": "function"
    },
    {
      "inputs": [
        {
          "internalType": "string",
          "name": "_svc",
          "type": "string"
        }
      ],
      "name": "removeService",
      "outputs": [],
      "stateMutability": "nonpayable",
      "type": "function"
    },
    {
      "inputs": [
        {
          "internalType": "string",
          "name": "_net",
          "type": "string"
        }
      ],
      "name": "removeVerifier",
      "outputs": [],
      "stateMutability": "nonpayable",
      "type": "function"
    },
    {
      "inputs": [
        {
          "internalType": "string",
          "name": "_dst",
          "type": "string"
        }
      ],
      "name": "resolveNext",
      "outputs": [
        {
          "internalType": "string",
          "name": "",
          "type": "string"
        }
      ],
      "stateMutability": "view",
      "type": "function"
    },
    {
      "inputs": [
        {
          "internalType": "address",
          "name": "_addr",
          "type": "address"
        }
      ],
      "name": "setBMCPeriphery",
      "outputs": [],
      "stateMutability": "nonpayable",
      "type": "function"
    },
    {
      "inputs": [
        {
          "internalType": "address",
          "name": "_addr",
          "type": "address"
        }
      ],
      "name": "setBMCService",
      "outputs": [],
      "stateMutability": "nonpayable",
      "type": "function"
    },
    {
      "inputs": [
        {
          "internalType": "address",
          "name": "_addr",
          "type": "address"
        }
      ],
      "name": "setFeeHandler",
      "outputs": [],
      "stateMutability": "nonpayable",
      "type": "function"
    },
    {
      "inputs": [
        {
          "internalType": "string[]",
          "name": "_dst",
          "type": "string[]"
        },
        {
          "internalType": "uint256[][]",
          "name": "_value",
          "type": "uint256[][]"
        }
      ],
      "name": "setFeeTable",
      "outputs": [],
      "stateMutability": "nonpayable",
      "type": "function"
    }
  ],
  "bytecode": "0x608060405234801561001057600080fd5b506154e2806100206000396000f3fe608060405234801561001057600080fd5b50600436106101ac5760003560e01c80630207118c146101b1578063065a9e9b146101da578063173825d9146101ef57806322a618fa146102025780632f54bf6e1461021557806334b05bc0146102515780633de9554414610272578063409267341461029d578063458b3372146102bd5780634a7e83be146102d057806365b3c054146102e35780636d8c73d7146102f65780636e4060d7146103095780637065cb481461031c578063733140771461032f5780637541785114610342578063766639ce1461035757806376b503c31461036a57806376bf87671461037d57806378ad5a7d1461038e578063794758be146103ae5780637bf3f72e146103c15780637d4c4f4a146103d45780637e928072146103f55780638129fc1c1461040a578063a935e76614610412578063acc3a7a514610427578063bd0a0bb31461043a578063be81db471461044d578063bef47adf1461045e578063c265ab851461046f578063c620234c14610482578063d740945f14610495578063def59f5e146104a8578063f51acaea146104bb578063f66ddcbb146104ce575b600080fd5b6101c46101bf36600461451f565b6104e3565b6040516101d191906145ce565b60405180910390f35b6101ed6101e836600461471b565b6106b3565b005b6101ed6101fd36600461479a565b610895565b6101ed6102103660046147fd565b610986565b61024161022336600461479a565b6001600160a01b031660009081526001602052604090205460ff1690565b60405190151581526020016101d1565b61026461025f36600461483e565b610d3f565b6040519081526020016101d1565b61028561028036600461483e565b610d6d565b6040516001600160a01b0390911681526020016101d1565b6102b06102ab36600461483e565b610da7565b6040516101d19190614872565b6101ed6102cb36600461479a565b610e2a565b6101ed6102de3660046148b3565b610e5d565b6101ed6102f1366004614a08565b610f98565b6101ed6103043660046148b3565b6112a0565b6101ed6103173660046147fd565b611389565b6101ed61032a36600461479a565b6118bd565b6101ed61033d36600461479a565b61196c565b61034a611996565b6040516101d19190614b5b565b6101ed61036536600461471b565b611b41565b6101ed6103783660046148b3565b611c9d565b600e546001600160a01b0316610285565b6103a161039c36600461483e565b611d86565b6040516101d19190614bb0565b6102856103bc36600461483e565b611d91565b6101ed6103cf366004614bc3565b611dac565b6103e76103e2366004614c9c565b612049565b6040516101d1929190614cf7565b6103fd612180565b6040516101d19190614d10565b6101ed612329565b61041a612461565b6040516101d19190614d95565b6101ed61043536600461471b565b612606565b6101ed61044836600461483e565b61277e565b600f546001600160a01b0316610285565b600d546001600160a01b0316610285565b61024161047d366004614dea565b61280f565b6101ed61049036600461479a565b61286e565b6101ed6104a336600461483e565b6128a1565b6101ed6104b63660046148b3565b6128ea565b6101ed6104c936600461483e565b61297f565b6104d66129c8565b6040516101d19190614e3d565b60606000826001600160401b038111156104ff576104ff614630565b60405190808252806020026020018201604052801561053257816020015b606081526020019060019003908161051d5790505b50905060005b838110156106a9576105a185858381811061055557610555614e92565b90506020028101906105679190614ea8565b8080601f016020809104026020016040519081016040528093929190818152602001838380828437600092019190915250612aa192505050565b50600060088686848181106105b8576105b8614e92565b90506020028101906105ca9190614ea8565b6040516105d8929190614eee565b90815260405190819003602001902054111561069757600885858381811061060257610602614e92565b90506020028101906106149190614ea8565b604051610622929190614eee565b908152604080519182900360209081018320805480830285018301909352828452919083018282801561067457602002820191906000526020600020905b815481526020019060010190808311610660575b505050505082828151811061068b5761068b614e92565b60200260200101819052505b806106a181614f14565b915050610538565b5090505b92915050565b6106bb612baf565b6106c58282612c0c565b15604051806040016040528060128152602001710c4c0e925b9d985b1a59105c99dd5b595b9d60721b815250906107185760405162461bcd60e51b815260040161070f9190614bb0565b60405180910390fd5b50600360078360405161072b9190614f2f565b90815260200160405180910390206003015414156040518060400160405280601481526020017331303a416c72656164794578697374526f75746560601b8152509061078a5760405162461bcd60e51b815260040161070f9190614bb0565b5061079481612c73565b6040518060400160405280601081526020016f31383a4e6f744578697374734c696e6b60801b815250906107db5760405162461bcd60e51b815260040161070f9190614bb0565b50610891826007836040516107f09190614f2f565b9081526020016040518091039020600101805461080c90614f4b565b80601f016020809104026020016040519081016040528092919081815260200182805461083890614f4b565b80156108855780601f1061085a57610100808354040283529160200191610885565b820191906000526020600020905b81548152906001019060200180831161086857829003601f168201915b50505050506003612ca1565b5050565b61089d612baf565b6001600160a01b038116600090815260016020818152604092839020548351808501909452601184527018981d2737ba22bc34b9ba39a7bbb732b960791b9184019190915260ff161515146109055760405162461bcd60e51b815260040161070f9190614bb0565b506001600254116040518060400160405280600c81526020016b18981d2630b9ba27bbb732b960a11b8152509061094f5760405162461bcd60e51b815260040161070f9190614bb0565b506001600160a01b0381166000908152600160205260408120805460ff19169055600280549161097e83614f80565b919050555050565b61098e612baf565b60006109cf83838080601f016020809104026020016040519081016040528093929190818152602001838380828437600092019190915250612e4492505050565b90506109da81612c73565b156040518060400160405280601481526020017331373a416c72656164794578697374734c696e6b60601b81525090610a265760405162461bcd60e51b815260040161070f9190614bb0565b50610a3081612e5a565b610aae610aa96040518060400160405280604051806040016040528060048152602001634c696e6b60e01b8152508152602001610aa287878080601f016020809104026020016040519081016040528093929190818152602001838380828437600092019190915250612ea992505050565b9052612f0c565b612f3b565b60408051608081018252600481830190815263125b9a5d60e21b60608301528152600b80548351602082810282018101909552818152600094610baf949381850193610aa29392889084015b82821015610ba6578382906000526020600020018054610b1990614f4b565b80601f0160208091040260200160405190810160405280929190818152602001828054610b4590614f4b565b8015610b925780601f10610b6757610100808354040283529160200191610b92565b820191906000526020600020905b815481529060010190602001808311610b7557829003601f168201915b505050505081526020019060010190610afa565b50505050613009565b6040805160606020601f880181900402820181018352918101868152929350918291879087908190850183828082843760009201829052509385525050604080518381526020818101909252930192919050610c1b565b6060815260200190600190039081610c065790505b5081525060058585604051610c31929190614eee565b90815260200160405180910390206000820151816000019080519060200190610c5b929190614271565b506020828101518051610c7492600185019201906142f5565b5050600b8054600181018255600091909152610cb491507f0175b7a638427703f0dbe7bb9bbf987a2551717b34e79f33b5b1008d1fa01db901858561434e565b50610cf88285858080601f01602080910402602001604051908101604052809392919081815260200183838082843760009201919091525060019250612ca1915050565b610d3984848080601f01602080910402602001604051908101604052809392919081815260200183838082843760009201919091525085925061308f915050565b50505050565b60006002600883604051610d539190614f2f565b908152604051908190036020019020546106ad9190614fad565b6000610d7882612e5a565b600382604051610d889190614f2f565b908152604051908190036020019020546001600160a01b031692915050565b6060610db2826130f7565b600682604051610dc29190614f2f565b9081526040805191829003602090810183208054808302850183019093528284529190830182828015610e1e57602002820191906000526020600020905b81546001600160a01b03168152600190910190602001808311610e00575b50505050509050919050565b610e32612baf565b610e3b8161316d565b600f80546001600160a01b0319166001600160a01b0392909216919091179055565b610e65612baf565b610e6e8161316d565b610e77826130f7565b610efa81600684604051610e8b9190614f2f565b9081526040805191829003602090810183208054808302850183019093528284529190830182828015610ee757602002820191906000526020600020905b81546001600160a01b03168152600190910190602001808311610ec9575b50505050506131bd90919063ffffffff16565b1560405180604001604052806013815260200172189c9d20b63932b0b23ca2bc34b9ba39a126a960691b81525090610f455760405162461bcd60e51b815260040161070f9190614bb0565b50600682604051610f569190614f2f565b90815260405160209181900382019020805460018101825560009182529190200180546001600160a01b0319166001600160a01b039290921691909117905550565b610fa0612baf565b8051825114604051806040016040528060128152602001710c4c0e925b9d985b1a59105c99dd5b595b9d60721b81525090610fee5760405162461bcd60e51b815260040161070f9190614bb0565b5060005b825181101561129b57600082828151811061100f5761100f614e92565b602002602001015151111561126757600282828151811061103257611032614e92565b6020026020010151516110459190614fc1565b60408051808201909152601381527218981d2632b733ba3426bab9ba2132a2bb32b760691b6020820152901561108e5760405162461bcd60e51b815260040161070f9190614bb0565b5060005b8282815181106110a4576110a4614e92565b6020026020010151518110156111465760008383815181106110c8576110c8614e92565b602002602001015182815181106110e1576110e1614e92565b602002602001015110156040518060400160405280601181526020017031303a4d7573744265506f73697469766560781b815250906111335760405162461bcd60e51b815260040161070f9190614bb0565b508061113e81614f14565b915050611092565b5081818151811061115957611159614e92565b602002602001015151600214156111d95761118c83828151811061117f5761117f614e92565b6020026020010151612c73565b6040518060400160405280601081526020016f31383a4e6f744578697374734c696e6b60801b815250906111d35760405162461bcd60e51b815260040161070f9190614bb0565b506111fd565b6111fb8382815181106111ee576111ee614e92565b6020026020010151612aa1565b505b81818151811061120f5761120f614e92565b6020026020010151600884838151811061122b5761122b614e92565b60200260200101516040516112409190614f2f565b908152602001604051809103902090805190602001906112619291906143c2565b50611289565b61128983828151811061127c5761127c614e92565b6020026020010151613223565b8061129381614f14565b915050610ff2565b505050565b6112a8612baf565b6112b18161316d565b6112ba82613275565b15604051806040016040528060138152602001720626a7482d8e4cac2c8f28af0d2e6e8e684a69606b1b815250906113055760405162461bcd60e51b815260040161070f9190614bb0565b50806004836040516113179190614f2f565b9081526040516020918190038201902080546001600160a01b0319166001600160a01b039390931692909217909155600a8054600181018255600091909152835161129b927fc65a7bb8d6351c1cf70c95a316cc6a92839c986682d98bc35f958f4883f9d2a890920191850190614271565b611391612baf565b6113d082828080601f0160208091040260200160405190810160405280939291908181526020018383808284376000920191909152506130f792505050565b60005b600c5481101561158d5760036007600c83815481106113f4576113f4614e92565b9060005260206000200160405161140b9190614fd5565b908152602001604051809103902060030154148015611536575061153683838080601f01602080910402602001604051908101604052809392919081815260200183838082843760009201919091525050600c8054600793509091508590811061147757611477614e92565b9060005260206000200160405161148e9190614fd5565b908152602001604051809103902060010180546114aa90614f4b565b80601f01602080910402602001604051908101604052809291908181526020018280546114d690614f4b565b80156115235780601f106114f857610100808354040283529160200191611523565b820191906000526020600020905b81548152906001019060200180831161150657829003601f168201915b5050505050612c0c90919063ffffffff16565b1561157b57604080518082018252601281527131303a52656665727265644279526f75746560701b6020820152905162461bcd60e51b815261070f9190600401614bb0565b8061158581614f14565b9150506113d3565b506115e76115d083838080601f016020809104026020016040519081016040528093929190818152602001838380828437600092019190915250612e4492505050565b6000604051806020016040528060008152506132b2565b61162a82828080601f016020809104026020016040519081016040528093929190818152602001838380828437600092019190915250600b939250506134059050565b5060005b60058383604051611640929190614eee565b9081526040519081900360200190206001015481101561177c5761176a61172c60058585604051611672929190614eee565b9081526020016040518091039020600101838154811061169457611694614e92565b9060005260206000200180546116a990614f4b565b80601f01602080910402602001604051908101604052809291908181526020018280546116d590614f4b565b80156117225780601f106116f757610100808354040283529160200191611722565b820191906000526020600020905b81548152906001019060200180831161170557829003601f168201915b5050505050612e44565b600185858080601f0160208091040260200160405190810160405280939291908181526020018383808284376000920191909152506132b292505050565b8061177481614f14565b91505061162e565b506005828260405161178f929190614eee565b90815260405190819003602001902060006117aa82826143fc565b6117b8600183016000614436565b5050600e54604051620ce92160e51b81526001600160a01b039091169063019d2420906117eb908590859060040161509a565b600060405180830381600087803b15801561180557600080fd5b505af1158015611819573d6000803e3d6000fd5b505050506006828260405161182f929190614eee565b908152602001604051809103902060006118499190614454565b610891610aa9604051806040016040528060405180604001604052806006815260200165556e6c696e6b60d01b8152508152602001610aa286868080601f016020809104026020016040519081016040528093929190818152602001838380828437600092019190915250612ea992505050565b6118c5612baf565b6118ce8161316d565b6001600160a01b038116600090815260016020908152604091829020548251808401909352601583527418981d20b63932b0b23ca2bc34b9ba39a7bbb732b960591b9183019190915260ff16156119385760405162461bcd60e51b815260040161070f9190614bb0565b506001600160a01b03811660009081526001602081905260408220805460ff19169091179055600280549161097e83614f14565b611974612baf565b600d80546001600160a01b0319166001600160a01b0392909216919091179055565b600a546060906000906001600160401b038111156119b6576119b6614630565b6040519080825280602002602001820160405280156119fc57816020015b6040805180820190915260608152600060208201528152602001906001900390816119d45790505b50905060005b600a54811015611b3b576040518060400160405280600a8381548110611a2a57611a2a614e92565b906000526020600020018054611a3f90614f4b565b80601f0160208091040260200160405190810160405280929190818152602001828054611a6b90614f4b565b8015611ab85780601f10611a8d57610100808354040283529160200191611ab8565b820191906000526020600020905b815481529060010190602001808311611a9b57829003601f168201915b505050505081526020016004600a8481548110611ad757611ad7614e92565b90600052602060002001604051611aee9190614fd5565b908152604051908190036020019020546001600160a01b031690528251839083908110611b1d57611b1d614e92565b60200260200101819052508080611b3390614f14565b915050611a02565b50919050565b600f8054604080518082019091529182526e0c4c4e955b985d5d1a1bdc9a5e9959608a1b60208301526001600160a01b03163314611b925760405162461bcd60e51b815260040161070f9190614bb0565b50611bdf816005600785604051611ba99190614f2f565b9081526020016040518091039020600101604051611bc79190614fd5565b90815260405190819003602001902060010190613405565b50610891611bec82612e44565b6001600785604051611bfe9190614f2f565b90815260200160405180910390206001018054611c1a90614f4b565b80601f0160208091040260200160405190810160405280929190818152602001828054611c4690614f4b565b8015611c935780601f10611c6857610100808354040283529160200191611c93565b820191906000526020600020905b815481529060010190602001808311611c7657829003601f168201915b50505050506132b2565b611ca5612baf565b611cae8161316d565b611cb782613503565b156040518060400160405280601381526020017218999d20b63932b0b23ca2bc34b9ba39a126ab60691b81525090611d025760405162461bcd60e51b815260040161070f9190614bb0565b5080600383604051611d149190614f2f565b9081526040516020918190038201902080546001600160a01b0319166001600160a01b03939093169290921790915560098054600181018255600091909152835161129b927f6e1540171b6c0c960b71a7020d9f60077f6af931a8bbf590da0223dacf75c7af90920191850190614271565b60606106ad82612aa1565b6000611d9c8261351f565b600482604051610d889190614f2f565b611db4612baf565b6000611df58b8b8080601f016020809104026020016040519081016040528093929190818152602001838380828437600092019190915250612aa192505050565b9050611e3688888080601f01602080910402602001604051908101604052809392919081815260200183838082843760009201919091525061351f92505050565b841580611e4e5750600085138015611e4e5750600086125b80611e645750600085128015611e645750600086135b156040518060400160405280600c81526020016b18991d24b73b30b634b229b760a11b81525090611ea85760405162461bcd60e51b815260040161070f9190614bb0565b50604080516101006020601f8e01819004028201810190925260e081018c81526000928291908f908f9081908501838280828437600092018290525093855250506040805160208181018352938152838501528051601f8e0184900484028101840182528d8152930192918d91508c9081908401838280828437600092018290525093855250505060208083018b9052604080518381529182018152909201919050815260208101889052600f546040805163672e77ad60e11b81529201916001600160a01b039091169063ce5cef5a90611f8b908a908a908a906004016150ae565b6000604051808303816000875af1158015611faa573d6000803e3d6000fd5b505050506040513d6000823e601f3d908101601f19168201604052611fd29190810190615139565b9052600e546040516339ff9dc160e01b81529192506001600160a01b0316906339ff9dc1906120099085908e908690600401615202565b600060405180830381600087803b15801561202357600080fd5b505af1158015612037573d6000803e3d6000fd5b50505050505050505050505050505050565b60006060600060088686604051612061929190614eee565b9081526040519081900360200190205490508361208657612083600282614fad565b90505b600080826001600160401b038111156120a1576120a1614630565b6040519080825280602002602001820160405280156120ca578160200160208202803683370190505b50905082156121735760005b8381101561217157600889896040516120f0929190614eee565b9081526020016040518091039020818154811061210f5761210f614e92565b906000526020600020015482828151811061212c5761212c614e92565b60200260200101818152505081818151811061214a5761214a614e92565b60200260200101518361215d91906152e3565b92508061216981614f14565b9150506120d6565b505b9097909650945050505050565b600c546060906000906001600160401b038111156121a0576121a0614630565b6040519080825280602002602001820160405280156121e557816020015b60408051808201909152606080825260208201528152602001906001900390816121be5790505b50905060005b600c54811015611b3b576040518060400160405280600c838154811061221357612213614e92565b90600052602060002001805461222890614f4b565b80601f016020809104026020016040519081016040528092919081815260200182805461225490614f4b565b80156122a15780601f10612276576101008083540402835291602001916122a1565b820191906000526020600020905b81548152906001019060200180831161228457829003601f168201915b505050505081526020016122f66007600c85815481106122c3576122c3614e92565b906000526020600020016040516122da9190614fd5565b908152602001604051809103902060010180546116a990614f4b565b81525082828151811061230b5761230b614e92565b6020026020010181905250808061232190614f14565b9150506121eb565b600054610100900460ff16158080156123495750600054600160ff909116105b806123635750303b158015612363575060005460ff166001145b6123c65760405162461bcd60e51b815260206004820152602e60248201527f496e697469616c697a61626c653a20636f6e747261637420697320616c72656160448201526d191e481a5b9a5d1a585b1a5e995960921b606482015260840161070f565b6000805460ff1916600117905580156123e9576000805461ff0019166101001790555b3360009081526001602081905260408220805460ff19169091179055600280549161241383614f14565b9190505550801561245e576000805461ff0019169055604051600181527f7f26b83ff96e1f2b6a682f133852f6798a09c465da95921460cefb38474024989060200160405180910390a15b50565b6009546060906000906001600160401b0381111561248157612481614630565b6040519080825280602002602001820160405280156124c757816020015b60408051808201909152606081526000602082015281526020019060019003908161249f5790505b50905060005b600954811015611b3b576040518060400160405280600983815481106124f5576124f5614e92565b90600052602060002001805461250a90614f4b565b80601f016020809104026020016040519081016040528092919081815260200182805461253690614f4b565b80156125835780601f1061255857610100808354040283529160200191612583565b820191906000526020600020905b81548152906001019060200180831161256657829003601f168201915b505050505081526020016003600984815481106125a2576125a2614e92565b906000526020600020016040516125b99190614fd5565b908152604051908190036020019020546001600160a01b0316905282518390839081106125e8576125e8614e92565b602002602001018190525080806125fe90614f14565b9150506124cd565b600f8054604080518082019091529182526e0c4c4e955b985d5d1a1bdc9a5e9959608a1b60208301526001600160a01b031633146126575760405162461bcd60e51b815260040161070f9190614bb0565b50600560078360405161266a9190614f2f565b90815260200160405180910390206001016040516126889190614fd5565b90815260405160209181900382019020600190810180549182018155600090815282902083516126c093919092019190840190614271565b506108916126cd82612e44565b6007846040516126dd9190614f2f565b908152602001604051809103902060010180546126f990614f4b565b80601f016020809104026020016040519081016040528092919081815260200182805461272590614f4b565b80156127725780601f1061274757610100808354040283529160200191612772565b820191906000526020600020905b81548152906001019060200180831161275557829003601f168201915b50505050506002612ca1565b612786612baf565b60036007826040516127989190614f2f565b908152602001604051809103902060030154146040518060400160405280601181526020017031303a4e6f74457869737473526f75746560781b815250906127f35760405162461bcd60e51b815260040161070f9190614bb0565b5061245e816000604051806020016040528060008152506132b2565b600061285084848080601f0160208091040260200160405190810160405280939291908181526020018383808284376000920191909152506130f792505050565b6128668260068686604051610e8b929190614eee565b949350505050565b612876612baf565b61287f8161316d565b600e80546001600160a01b0319166001600160a01b0392909216919091179055565b6128a9612baf565b6128b281612e5a565b6003816040516128c29190614f2f565b90815260405190819003602001902080546001600160a01b0319169055610891600982613405565b6128f2612baf565b6128fb826130f7565b61290f81600684604051610e8b9190614f2f565b6040518060400160405280600f81526020016e19181d2737ba22bc34b9ba39a126a960891b815250906129555760405162461bcd60e51b815260040161070f9190614bb0565b506108918160068460405161296a9190614f2f565b9081526040519081900360200190209061356e565b612987612baf565b6129908161351f565b6004816040516129a09190614f2f565b90815260405190819003602001902080546001600160a01b0319169055610891600a82613405565b6060600b805480602002602001604051908101604052809291908181526020016000905b82821015612a98578382906000526020600020018054612a0b90614f4b565b80601f0160208091040260200160405190810160405280929190818152602001828054612a3790614f4b565b8015612a845780601f10612a5957610100808354040283529160200191612a84565b820191906000526020600020905b815481529060010190602001808311612a6757829003601f168201915b5050505050815260200190600101906129ec565b50505050905090565b60606000600783604051612ab59190614f2f565b90815260200160405180910390206003015414612b7357600782604051612adc9190614f2f565b90815260200160405180910390206001018054612af890614f4b565b80601f0160208091040260200160405190810160405280929190818152602001828054612b2490614f4b565b8015610e1e5780601f10612b4657610100808354040283529160200191610e1e565b820191906000526020600020905b815481529060010190602001808311612b545750939695505050505050565b604080518082018252600e81526d32313a556e726561636861626c6560901b6020820152905162461bcd60e51b815261070f9190600401614bb0565b33600090815260016020818152604092839020548351808501909452600f84526e0c4c4e955b985d5d1a1bdc9a5e9959608a1b9184019190915260ff1615151461245e5760405162461bcd60e51b815260040161070f9190614bb0565b600081604051602001612c1f9190614f2f565b6040516020818303038152906040528051906020012083604051602001612c469190614f2f565b604051602081830303815290604052805190602001201415612c6a575060016106ad565b50600092915050565b60006001600783604051612c879190614f2f565b908152602001604051809103902060030154149050919050565b6000600784604051612cb39190614f2f565b9081526020016040518091039020600301541415612d9c5760405180608001604052808481526020018381526020016000815260200182815250600784604051612cfd9190614f2f565b90815260200160405180910390206000820151816000019080519060200190612d27929190614271565b506020828101518051612d409260018501920190614271565b5060408201516002820155606090910151600390910155600c80546001810182556000919091528351612d9a917fdf6966c971051c3d54ec59162606531493a51404a002842f56009d7e5cf4a8c701906020860190614271565b505b6002811415612ddf57600783604051612db59190614f2f565b9081526040519081900360200190206002018054906000612dd583614f14565b9190505550505050565b600381141561129b576003600784604051612dfa9190614f2f565b90815260200160405180910390206003018190555081600784604051612e209190614f2f565b90815260200160405180910390206001019080519060200190610d39929190614271565b60606106ad826006612e5585613684565b613858565b612e6381613503565b6040518060400160405280600f81526020016e189a1d2737ba22bc34b9ba39a126ab60891b815250906108915760405162461bcd60e51b815260040161070f9190614bb0565b60606000612eb683613927565b604051602001612ec69190614f2f565b6040516020818303038152906040529050612ee381516000613932565b81604051602001612ef59291906152fb565b604051602081830303815290604052915050919050565b60606000612f1d8360000151613927565b612f2a8460200151613a00565b604051602001612ec69291906152fb565b60005b600b5481101561089157612ff7600b8281548110612f5e57612f5e614e92565b906000526020600020018054612f7390614f4b565b80601f0160208091040260200160405190810160405280929190818152602001828054612f9f90614f4b565b8015612fec5780601f10612fc157610100808354040283529160200191612fec565b820191906000526020600020905b815481529060010190602001808311612fcf57829003601f168201915b50505050508361308f565b8061300181614f14565b915050612f3e565b60608060005b8351811015613070578161303b85838151811061302e5761302e614e92565b6020026020010151613927565b60405160200161304c9291906152fb565b6040516020818303038152906040529150808061306890614f14565b91505061300f565b5061307d81516000613932565b81604051602001612ec69291906152fb565b600e54604051630df9ccb160e41b81526001600160a01b039091169063df9ccb10906130c1908590859060040161532a565b600060405180830381600087803b1580156130db57600080fd5b505af11580156130ef573d6000803e3d6000fd5b505050505050565b60006005826040516131099190614f2f565b908152604051908190036020019020805461312390614f4b565b9050116040518060400160405280601081526020016f31383a4e6f744578697374734c696e6b60801b815250906108915760405162461bcd60e51b815260040161070f9190614bb0565b6040805180820190915260128152710c4c0e925b9d985b1a59105c99dd5b595b9d60721b60208201526001600160a01b0382166108915760405162461bcd60e51b815260040161070f9190614bb0565b6000805b835181101561321957826001600160a01b03168482815181106131e6576131e6614e92565b60200260200101516001600160a01b031614156132075760019150506106ad565b8061321181614f14565b9150506131c1565b5060009392505050565b60006008826040516132359190614f2f565b90815260405190819003602001902054111561245e5760088160405161325b9190614f2f565b9081526020016040518091039020600061245e9190614454565b6000806001600160a01b03166004836040516132919190614f2f565b908152604051908190036020019020546001600160a01b0316141592915050565b81156132ee576007836040516132c89190614f2f565b90815260405190819003602001902060020180549060006132e883614f80565b91905055505b60006007846040516133009190614f2f565b90815260200160405180910390206002015411156133a75781158061333457506133348160078560405161148e9190614f2f565b156133785761334283613a57565b6007846040516133529190614f2f565b90815260200160405180910390206001019080519060200190613376929190614271565b505b8161129b57600260078460405161338f9190614f2f565b90815260405190819003602001902060030155505050565b6133b2600c84613405565b506007836040516133c39190614f2f565b90815260405190819003602001902060006133de82826143fc565b6133ec6001830160006143fc565b5060006002820181905560039091015561129b83613223565b8154600090819061341890600190615358565b905060005b8181116134f85761344f8486838154811061343a5761343a614e92565b9060005260206000200180546114aa90614f4b565b156134e657818110156134ad5784828154811061346e5761346e614e92565b9060005260206000200185828154811061348a5761348a614e92565b906000526020600020019080546134a090614f4b565b6134ab929190614472565b505b848054806134bd576134bd61536f565b6001900381819060005260206000200160006134d991906143fc565b90556001925050506106ad565b806134f081614f14565b91505061341d565b506000949350505050565b6000806001600160a01b03166003836040516132919190614f2f565b61352881613275565b6040518060400160405280600f81526020016e0626c749cdee88af0d2e6e8e684a69608b1b815250906108915760405162461bcd60e51b815260040161070f9190614bb0565b815460009061357f90600190615358565b905060005b818111610d3957826001600160a01b03168482815481106135a7576135a7614e92565b6000918252602090912001546001600160a01b03161415613672578181101561363b578382815481106135dc576135dc614e92565b9060005260206000200160009054906101000a90046001600160a01b031684828154811061360c5761360c614e92565b9060005260206000200160006101000a8154816001600160a01b0302191690836001600160a01b031602179055505b8380548061364b5761364b61536f565b600082815260209020810160001990810180546001600160a01b0319169055019055610d39565b8061367c81614f14565b915050613584565b600081815b600681101561374e57604051806040016040528060068152602001656274703a2f2f60d01b81525081815181106136c2576136c2614e92565b602001015160f81c60f81b6001600160f81b0319168282815181106136e9576136e9614e92565b01602001516001600160f81b0319161461373c576040805180820182526011815270696e76616c69644254504164647265737360781b6020820152905162461bcd60e51b815261070f9190600401614bb0565b8061374681614f14565b915050613689565b8151811015613819576040805180820190915260018152602f60f81b6020909101819052825183908390811061378657613786614e92565b01602001516001600160f81b0319161415613807576006811180156137b75750600182516137b49190615358565b81105b60405180604001604052806011815260200170696e76616c69644254504164647265737360781b815250906137ff5760405162461bcd60e51b815260040161070f9190614bb0565b509392505050565b8061381181614f14565b91505061374e565b6040805180820182526011815270696e76616c69644254504164647265737360781b6020820152905162461bcd60e51b815261070f9190600401614bb0565b60608360006138678585615358565b6001600160401b0381111561387e5761387e614630565b6040519080825280601f01601f1916602001820160405280156138a8576020820181803683370190505b5090508460005b825181101561391b5783826138c381614f14565b9350815181106138d5576138d5614e92565b602001015160f81c60f81b8382815181106138f2576138f2614e92565b60200101906001600160f81b031916908160001a9053508061391381614f14565b9150506138af565b50909695505050505050565b60606106ad82613a00565b6060603783118015613942575081155b1561398957600061395284613c20565b905061396081516001613932565b816040516020016139729291906152fb565b6040516020818303038152906040529150506106ad565b60378311158015613998575081155b156139ce576139a88360c06152e3565b6040516020016139b89190615385565b60405160208183030381529060405290506106ad565b6139d98360f76152e3565b6040516020016139e99190615385565b604051602081830303815290604052905092915050565b60608082516001148015613a2f5750608083600081518110613a2457613a24614e92565b016020015160f81c11155b15613a3b5750816106ad565b613a50613a4a8451608061403e565b846141f4565b9392505050565b606060005b600b54811015613be35760005b6005600b8381548110613a7e57613a7e614e92565b90600052602060002001604051613a959190614fd5565b90815260405190819003602001902060010154811015613bd057613b0a84613b046005600b8681548110613acb57613acb614e92565b90600052602060002001604051613ae29190614fd5565b9081526020016040518091039020600101848154811061169457611694614e92565b90612c0c565b15613bbe57600b8281548110613b2257613b22614e92565b906000526020600020018054613b3790614f4b565b80601f0160208091040260200160405190810160405280929190818152602001828054613b6390614f4b565b8015613bb05780601f10613b8557610100808354040283529160200191613bb0565b820191906000526020600020905b815481529060010190602001808311613b9357829003601f168201915b505050505092505050919050565b80613bc881614f14565b915050613a69565b5080613bdb81614f14565b915050613a5c565b50604080518082018252600e81526d32313a556e726561636861626c6560901b6020820152905162461bcd60e51b815261070f9190600401614bb0565b606060ff821015613c525781604051602001613c3c9190615385565b6040516020818303038152906040529050919050565b60ff8210801590613c64575061ffff82105b15613c88576040516001600160f01b031960f084901b166020820152602201613c3c565b61ffff8210801590613c9c575062ffffff82105b15613cc0576040516001600160e81b031960e884901b166020820152602301613c3c565b62ffffff8210801590613cd6575063ffffffff82105b15613cfa576040516001600160e01b031960e084901b166020820152602401613c3c565b63ffffffff8210801590613d12575064ffffffffff82105b15613d36576040516001600160d81b031960d884901b166020820152602501613c3c565b64ffffffffff8210801590613d50575065ffffffffffff82105b15613d74576040516001600160d01b031960d084901b166020820152602601613c3c565b65ffffffffffff8210801590613d90575066ffffffffffffff82105b15613db4576040516001600160c81b031960c884901b166020820152602701613c3c565b66ffffffffffffff8210801590613dd157506001600160401b0382105b15613df5576040516001600160c01b031960c084901b166020820152602801613c3c565b6001600160401b038210801590613e1257506001600160481b0382105b15613e36576040516001600160b81b031960b884901b166020820152602901613c3c565b6001600160481b038210801590613e5357506001600160501b0382105b15613e77576040516001600160b01b031960b084901b166020820152602a01613c3c565b6001600160501b038210801590613e9457506001600160581b0382105b15613eb8576040516001600160a81b031960a884901b166020820152602b01613c3c565b6001600160581b038210801590613ed557506001600160601b0382105b15613ef9576040516001600160a01b031960a084901b166020820152602c01613c3c565b6001600160601b038210801590613f1657506001600160681b0382105b15613f3a576040516001600160981b0319609884901b166020820152602d01613c3c565b6001600160681b038210801590613f5757506001600160701b0382105b15613f7b576040516001600160901b0319609084901b166020820152602e01613c3c565b6001600160701b038210801590613f9857506001600160781b0382105b15613fbc576040516001600160881b0319608884901b166020820152602f01613c3c565b6001600160781b038210801590613fd957506001600160801b0382105b61401f5760405162461bcd60e51b81526020600482015260176024820152766f75744f66426f756e64733a205b302c20325e3132385d60481b604482015260640161070f565b6040516001600160801b0319608084901b166020820152603001613c3c565b60608060388410156140a8576040805160018082528183019092529060208201818036833701905050905061407383856152e3565b601f1a60f81b8160008151811061408c5761408c614e92565b60200101906001600160f81b031916908160001a905350613a50565b600060015b6140b78187614fad565b156140dd57816140c681614f14565b92506140d690506101008261539d565b90506140ad565b6140e88260016152e3565b6001600160401b038111156140ff576140ff614630565b6040519080825280601f01601f191660200182016040528015614129576020820181803683370190505b50925061413685836152e3565b6141419060376152e3565b601f1a60f81b8360008151811061415a5761415a614e92565b60200101906001600160f81b031916908160001a905350600190505b8181116141eb5761010061418a8284615358565b614196906101006154a0565b6141a09088614fad565b6141aa9190614fc1565b601f1a60f81b8382815181106141c2576141c2614e92565b60200101906001600160f81b031916908160001a905350806141e381614f14565b915050614176565b50509392505050565b6060806040519050835180825260208201818101602087015b8183101561422557805183526020928301920161420d565b50855184518101855292509050808201602086015b8183101561425257805183526020928301920161423a565b508651929092011591909101601f01601f191660405250905092915050565b82805461427d90614f4b565b90600052602060002090601f01602090048101928261429f57600085556142e5565b82601f106142b857805160ff19168380011785556142e5565b828001600101855582156142e5579182015b828111156142e55782518255916020019190600101906142ca565b506142f19291506144ed565b5090565b828054828255906000526020600020908101928215614342579160200282015b828111156143425782518051614332918491602090910190614271565b5091602001919060010190614315565b506142f1929150614502565b82805461435a90614f4b565b90600052602060002090601f01602090048101928261437c57600085556142e5565b82601f106143955782800160ff198235161785556142e5565b828001600101855582156142e5579182015b828111156142e55782358255916020019190600101906143a7565b8280548282559060005260206000209081019282156142e557916020028201828111156142e55782518255916020019190600101906142ca565b50805461440890614f4b565b6000825580601f10614418575050565b601f01602090049060005260206000209081019061245e91906144ed565b508054600082559060005260206000209081019061245e9190614502565b508054600082559060005260206000209081019061245e91906144ed565b82805461447e90614f4b565b90600052602060002090601f0160209004810192826144a057600085556142e5565b82601f106144b157805485556142e5565b828001600101855582156142e557600052602060002091601f016020900482015b828111156142e55782548255916001019190600101906144d2565b5b808211156142f157600081556001016144ee565b808211156142f157600061451682826143fc565b50600101614502565b6000806020838503121561453257600080fd5b82356001600160401b038082111561454957600080fd5b818501915085601f83011261455d57600080fd5b81358181111561456c57600080fd5b8660208260051b850101111561458157600080fd5b60209290920196919550909350505050565b600081518084526020808501945080840160005b838110156145c3578151875295820195908201906001016145a7565b509495945050505050565b6000602080830181845280855180835260408601915060408160051b870101925083870160005b8281101561462357603f19888603018452614611858351614593565b945092850192908501906001016145f5565b5092979650505050505050565b634e487b7160e01b600052604160045260246000fd5b604080519081016001600160401b038111828210171561466857614668614630565b60405290565b604051601f8201601f191681016001600160401b038111828210171561469657614696614630565b604052919050565b60006001600160401b038211156146b7576146b7614630565b50601f01601f191660200190565b600082601f8301126146d657600080fd5b81356146e96146e48261469e565b61466e565b8181528460208386010111156146fe57600080fd5b816020850160208301376000918101602001919091529392505050565b6000806040838503121561472e57600080fd5b82356001600160401b038082111561474557600080fd5b614751868387016146c5565b9350602085013591508082111561476757600080fd5b50614774858286016146c5565b9150509250929050565b80356001600160a01b038116811461479557600080fd5b919050565b6000602082840312156147ac57600080fd5b613a508261477e565b60008083601f8401126147c757600080fd5b5081356001600160401b038111156147de57600080fd5b6020830191508360208285010111156147f657600080fd5b9250929050565b6000806020838503121561481057600080fd5b82356001600160401b0381111561482657600080fd5b614832858286016147b5565b90969095509350505050565b60006020828403121561485057600080fd5b81356001600160401b0381111561486657600080fd5b612866848285016146c5565b6020808252825182820181905260009190848201906040850190845b8181101561391b5783516001600160a01b03168352928401929184019160010161488e565b600080604083850312156148c657600080fd5b82356001600160401b038111156148dc57600080fd5b6148e8858286016146c5565b9250506148f76020840161477e565b90509250929050565b60006001600160401b0382111561491957614919614630565b5060051b60200190565b600082601f83011261493457600080fd5b813560206149446146e483614900565b82815260059290921b8401810191818101908684111561496357600080fd5b8286015b8481101561497e5780358352918301918301614967565b509695505050505050565b600082601f83011261499a57600080fd5b813560206149aa6146e483614900565b82815260059290921b840181019181810190868411156149c957600080fd5b8286015b8481101561497e5780356001600160401b038111156149ec5760008081fd5b6149fa8986838b0101614923565b8452509183019183016149cd565b60008060408385031215614a1b57600080fd5b82356001600160401b0380821115614a3257600080fd5b818501915085601f830112614a4657600080fd5b81356020614a566146e483614900565b82815260059290921b84018101918181019089841115614a7557600080fd5b8286015b84811015614aad57803586811115614a915760008081fd5b614a9f8c86838b01016146c5565b845250918301918301614a79565b5096505086013592505080821115614ac457600080fd5b5061477485828601614989565b60005b83811015614aec578181015183820152602001614ad4565b83811115610d395750506000910152565b60008151808452614b15816020860160208601614ad1565b601f01601f19169290920160200192915050565b6000815160408452614b3e6040850182614afd565b6020938401516001600160a01b0316949093019390935250919050565b6000602080830181845280855180835260408601915060408160051b870101925083870160005b8281101561462357603f19888603018452614b9e858351614b29565b94509285019290850190600101614b82565b602081526000613a506020830184614afd565b60008060008060008060008060008060e08b8d031215614be257600080fd5b8a356001600160401b0380821115614bf957600080fd5b614c058e838f016147b5565b909c509a5060208d0135995060408d0135915080821115614c2557600080fd5b614c318e838f016147b5565b909950975060608d0135965060808d0135955060a08d0135915080821115614c5857600080fd5b614c648e838f016147b5565b909550935060c08d0135915080821115614c7d57600080fd5b50614c8a8d828e01614923565b9150509295989b9194979a5092959850565b600080600060408486031215614cb157600080fd5b83356001600160401b03811115614cc757600080fd5b614cd3868287016147b5565b90945092505060208401358015158114614cec57600080fd5b809150509250925092565b8281526040602082015260006128666040830184614593565b60006020808301818452808551808352604092508286019150828160051b87010184880160005b83811015614d8757888303603f1901855281518051878552614d5b88860182614afd565b91890151858303868b0152919050614d738183614afd565b968901969450505090860190600101614d37565b509098975050505050505050565b6000602080830181845280855180835260408601915060408160051b870101925083870160005b8281101561462357603f19888603018452614dd8858351614b29565b94509285019290850190600101614dbc565b600080600060408486031215614dff57600080fd5b83356001600160401b03811115614e1557600080fd5b614e21868287016147b5565b9094509250614e3490506020850161477e565b90509250925092565b6000602080830181845280855180835260408601915060408160051b870101925083870160005b8281101561462357603f19888603018452614e80858351614afd565b94509285019290850190600101614e64565b634e487b7160e01b600052603260045260246000fd5b6000808335601e19843603018112614ebf57600080fd5b8301803591506001600160401b03821115614ed957600080fd5b6020019150368190038213156147f657600080fd5b8183823760009101908152919050565b634e487b7160e01b600052601160045260246000fd5b6000600019821415614f2857614f28614efe565b5060010190565b60008251614f41818460208701614ad1565b9190910192915050565b600181811c90821680614f5f57607f821691505b60208210811415611b3b57634e487b7160e01b600052602260045260246000fd5b600081614f8f57614f8f614efe565b506000190190565b634e487b7160e01b600052601260045260246000fd5b600082614fbc57614fbc614f97565b500490565b600082614fd057614fd0614f97565b500690565b600080835481600182811c915080831680614ff157607f831692505b602080841082141561501157634e487b7160e01b86526022600452602486fd5b818015615025576001811461503657615063565b60ff19861689528489019650615063565b60008a81526020902060005b8681101561505b5781548b820152908501908301615042565b505084890196505b509498975050505050505050565b81835281816020850137506000828201602090810191909152601f909101601f19169091010190565b602081526000612866602083018486615071565b6040815260006150c2604083018587615071565b82810360208401526150d48185614593565b9695505050505050565b600082601f8301126150ef57600080fd5b815160206150ff6146e483614900565b82815260059290921b8401810191818101908684111561511e57600080fd5b8286015b8481101561497e5780518352918301918301615122565b6000602080838503121561514c57600080fd5b82516001600160401b038082111561516357600080fd5b908401906040828703121561517757600080fd5b61517f614646565b82518281111561518e57600080fd5b8301601f8101881361519f57600080fd5b80516151ad6146e48261469e565b81815289878385010111156151c157600080fd5b6151d082888301898601614ad1565b8352505082840151828111156151e557600080fd5b6151f1888286016150de565b948201949094529695505050505050565b6060815260006152156060830186614afd565b8460208401528281036040840152835160e0825261523660e0830182614afd565b90506020850151828203602084015261524f8282614afd565b915050604085015182820360408401526152698282614afd565b915050606085015160608301526080850151828203608084015261528d8282614afd565b91505060a085015160a083015260c085015182820360c084015280519250604082526152bc6040830184614afd565b92506020810151905081830360208301526152d78382614593565b98975050505050505050565b600082198211156152f6576152f6614efe565b500190565b6000835161530d818460208801614ad1565b835190830190615321818360208801614ad1565b01949350505050565b60408152600061533d6040830185614afd565b828103602084015261534f8185614afd565b95945050505050565b60008282101561536a5761536a614efe565b500390565b634e487b7160e01b600052603160045260246000fd5b60f89190911b6001600160f81b031916815260010190565b60008160001904831182151516156153b7576153b7614efe565b500290565b600181815b808511156153f75781600019048211156153dd576153dd614efe565b808516156153ea57918102915b93841c93908002906153c1565b509250929050565b60008261540e575060016106ad565b8161541b575060006106ad565b8160018114615431576002811461543b57615457565b60019150506106ad565b60ff84111561544c5761544c614efe565b50506001821b6106ad565b5060208310610133831016604e8410600b841016171561547a575081810a6106ad565b61548483836153bc565b806000190482111561549857615498614efe565b029392505050565b6000613a5083836153ff56fea2646970667358221220fd5896ab35d23afa73c08eafe6f034bf8b57cb613a9329959bd03b859fe26ced64736f6c634300080c0033",
  "linkReferences": {},
  "deployedLinkReferences": {}
}