{
  "_format": "hh-sol-artifact-1",
  "contractName": "BMV",
  "sourceName": "solidity/contracts/bmv-bridge/BMV.sol",
  "abi": [
    {
      "inputs": [
        {
          "internalType": "address",
          "name": "_bmcAddr",
          "type": "address"
        },
        {
          "internalType": "string",
          "name": "_netAddr",
          "type": "string"
        },
        {
          "internalType": "uint256",
          "name": "_height",
          "type": "uint256"
        }
      ],
      "stateMutability": "nonpayable",
      "type": "constructor"
    },
    {
      "inputs": [],
      "name": "getConnectedBMC",
      "outputs": [
        {
          "internalType": "address",
          "name": "",
          "type": "address"
        }
      ],
      "stateMutability": "view",
      "type": "function"
    },
    {
      "inputs": [],
      "name": "getStatus",
      "outputs": [
        {
          "components": [
            {
              "internalType": "uint256",
              "name": "height",
              "type": "uint256"
            },
            {
              "internalType": "bytes",
              "name": "extra",
              "type": "bytes"
            }
          ],
          "internalType": "struct IBMV.VerifierStatus",
          "name": "",
          "type": "tuple"
        }
      ],
      "stateMutability": "view",
      "type": "function"
    },
    {
      "inputs": [
        {
          "internalType": "string",
          "name": "_bmc",
          "type": "string"
        },
        {
          "internalType": "string",
          "name": "_prev",
          "type": "string"
        },
        {
          "internalType": "uint256",
          "name": "_seq",
          "type": "uint256"
        },
        {
          "internalType": "bytes",
          "name": "_msg",
          "type": "bytes"
        }
      ],
      "name": "handleRelayMessage",
      "outputs": [
        {
          "internalType": "bytes[]",
          "name": "",
          "type": "bytes[]"
        }
      ],
      "stateMutability": "nonpayable",
      "type": "function"
    }
  ],
  "bytecode": "0x60806040523480156200001157600080fd5b5060405162001dd338038062001dd383398101604081905262000034916200012d565b600080546001600160a01b0319166001600160a01b03851617905581516200006490600190602085019062000071565b5060025550620002739050565b8280546200007f9062000236565b90600052602060002090601f016020900481019282620000a35760008555620000ee565b82601f10620000be57805160ff1916838001178555620000ee565b82800160010185558215620000ee579182015b82811115620000ee578251825591602001919060010190620000d1565b50620000fc92915062000100565b5090565b5b80821115620000fc576000815560010162000101565b634e487b7160e01b600052604160045260246000fd5b6000806000606084860312156200014357600080fd5b83516001600160a01b03811681146200015b57600080fd5b602085810151919450906001600160401b03808211156200017b57600080fd5b818701915087601f8301126200019057600080fd5b815181811115620001a557620001a562000117565b604051601f8201601f19908116603f01168101908382118183101715620001d057620001d062000117565b816040528281528a86848701011115620001e957600080fd5b600093505b828410156200020d5784840186015181850187015292850192620001ee565b828411156200021f5760008684830101525b809750505050505050604084015190509250925092565b600181811c908216806200024b57607f821691505b602082108114156200026d57634e487b7160e01b600052602260045260246000fd5b50919050565b611b5080620002836000396000f3fe608060405234801561001057600080fd5b50600436106100415760003560e01c80634e69d5601461004657806355272d2f1461008b578063eb59858d146100ab575b600080fd5b604080518082018252600080825260606020928301528251808401845260025481528351808401855291825291820152905161008291906116b6565b60405180910390f35b61009e610099366004611785565b6100c6565b6040516100829190611847565b6000546040516001600160a01b039091168152602001610082565b60606100d28686610398565b600061011384848080601f01602080910402602001604051908101604052809392919081815260200183838082843760009201919091525061058192505050565b905061011d6114f1565b610125611512565b60006101328860016118bf565b600354909150156101495761014960036000611533565b60005b8451518110156102b657845180518290811061016a5761016a6118d7565b6020026020010151935060025484604001511015610187576102a4565b604084015160025560005b8460200151518110156102a257846020015181815181106101b5576101b56118d7565b6020026020010151935082846020015110156101d057610290565b828460200151111561022357604080518082018252601081526f32363a4e6f7456657269666961626c6560801b6020820152905162461bcd60e51b815261021a91906004016118ed565b60405180910390fd5b835161022f908d6106e1565b61023857610290565b6040840151600380546001810182556000919091528151610281927fc2575a0e9e593c00f959f8c92f12db2869c3395a3b0502d05e2516446f71f85b9092019160200190611554565b508261028c81611900565b9350505b8061029a81611900565b915050610192565b505b806102ae81611900565b91505061014c565b506003805480602002602001604051908101604052809291908181526020016000905b828210156103855783829060005260206000200180546102f89061191b565b80601f01602080910402602001604051908101604052809291908181526020018280546103249061191b565b80156103715780601f1061034657610100808354040283529160200191610371565b820191906000526020600020905b81548152906001019060200180831161035457829003601f168201915b5050505050815260200190600101906102d9565b5050505094505050505095945050505050565b61043d6103a482610749565b600180546103b19061191b565b80601f01602080910402602001604051908101604052809291908181526020018280546103dd9061191b565b801561042a5780601f106103ff5761010080835404028352916020019161042a565b820191906000526020600020905b81548152906001019060200180831161040d57829003601f168201915b50505050506106e190919063ffffffff16565b60405180604001604052806012815260200171191a9d24b73b30b634b2283932bb20b2323960711b815250906104865760405162461bcd60e51b815260040161021a91906118ed565b5060005460408051808201909152600f81526e0c8d4e955b985d5d1a1bdc9a5e9959608a1b6020820152906001600160a01b031633146104d95760405162461bcd60e51b815260040161021a91906118ed565b5060006104e58361075f565b600054604080518082019091526011815270191a9d24b73b30b634b22126a1a0b2323960791b60208201529193506001600160a01b0316915061052990839061079b565b6001600160a01b03161460405180604001604052806011815260200170191a9d24b73b30b634b22126a1a0b2323960791b8152509061057b5760405162461bcd60e51b815260040161021a91906118ed565b50505050565b60408051602081019091526060815260006105a361059e84610a7e565b610aa4565b905060606105ca826000815181106105bd576105bd6118d7565b6020026020010151610be1565b51156106cc576105f3826000815181106105e6576105e66118d7565b6020026020010151610aa4565b516001600160401b0381111561060b5761060b6116e3565b60405190808252806020026020018201604052801561064457816020015b6106316114f1565b8152602001906001900390816106295790505b50905060005b610660836000815181106105e6576105e66118d7565b518110156106ca5761069a610695610684856000815181106105e6576105e66118d7565b83815181106105bd576105bd6118d7565b610cba565b8282815181106106ac576106ac6118d7565b602002602001018190525080806106c290611900565b91505061064a565b505b60408051602081019091529081529392505050565b6000816040516020016106f49190611950565b604051602081830303815290604052805190602001208360405160200161071b9190611950565b60405160208183030381529060405280519060200120141561073f57506001610743565b5060005b92915050565b606061074382600661075a85610e3f565b611013565b606080600061076d84610e3f565b905061077b84600683611013565b6107918561078a8460016118bf565b8751611013565b9250925050915091565b81516000908390602a1480156107df5750600360fc1b6001600160f81b031916816000815181106107ce576107ce6118d7565b01602001516001600160f81b031916145b80156108195750600f60fb1b6001600160f81b03191681600181518110610808576108086118d7565b01602001516001600160f81b031916145b83906108385760405162461bcd60e51b815260040161021a91906118ed565b5060408051601480825281830190925260009160208201818036833701905050905060008080805b60288110156109cf57856108758260026118bf565b81518110610885576108856118d7565b016020015160f81c93506001603085101561089e575060005b8460ff1660391080156108b4575060418560ff16105b156108bd575060005b8460ff1660461080156108d3575060618560ff16105b156108dc575060005b8460ff16606610156108ec575060005b8061090b578860405162461bcd60e51b815260040161021a91906118ed565b60418560ff161015610920576030925061093a565b8460ff1660461015610935576057925061093a565b603792505b610945600283611982565b61095a576109538386611996565b93506109bc565b6109648386611996565b61096f8560106119b9565b61097991906119e2565b60f81b86600261098a600186611a07565b6109949190611a1e565b815181106109a4576109a46118d7565b60200101906001600160f81b031916908160001a9053505b50806109c781611900565b915050610860565b506000846040516020016109e39190611950565b60408051601f198184030181529190526014810151975090506001600160a01b038716610a725760025b8651811015610a7057868181518110610a2857610a286118d7565b60209101015189906001600160f81b031916600360fc1b14610a5d5760405162461bcd60e51b815260040161021a91906118ed565b5080610a6881611900565b915050610a0d565b505b50505050505092915050565b610a866115d8565b50604080518082019091528151815260209182019181019190915290565b6060610aaf826110e2565b610aec5760405162461bcd60e51b815260206004820152600e60248201526d135d5cdd0818994818481b1a5cdd60921b604482015260640161021a565b6000610af78361111b565b90506000816001600160401b03811115610b1357610b136116e3565b604051908082528060200260200182016040528015610b4c57816020015b610b396115d8565b815260200190600190039081610b315790505b5090506000610b5e856020015161119e565b8560200151610b6d91906118bf565b90506000805b84811015610bd657610b8483611226565b9150604051806040016040528083815260200184815250848281518110610bad57610bad6118d7565b6020908102919091010152610bc282846118bf565b925080610bce81611900565b915050610b73565b509195945050505050565b8051606090610c235760405162461bcd60e51b815260206004820152600e60248201526d092dcecc2d8d2c840d8cadccee8d60931b604482015260640161021a565b6000610c32836020015161119e565b90506000818460000151610c469190611a07565b90506000816001600160401b03811115610c6257610c626116e3565b6040519080825280601f01601f191660200182016040528015610c8c576020820181803683370190505b5090506000816020019050610cb1848760200151610caa91906118bf565b82856112cf565b50949350505050565b610cc26114f1565b6000610cd061059e84610a7e565b90506000610cf561059e610cf0846001815181106105bd576105bd6118d7565b610a7e565b516001600160401b03811115610d0d57610d0d6116e3565b604051908082528060200260200182016040528015610d4657816020015b610d33611512565b815260200190600190039081610d2b5790505b50905060005b610d6861059e610cf0856001815181106105bd576105bd6118d7565b51811015610de557610db5610db0610d9261059e610cf0876001815181106105bd576105bd6118d7565b8381518110610da357610da36118d7565b602002602001015161134f565b6113c7565b828281518110610dc757610dc76118d7565b60200260200101819052508080610ddd90611900565b915050610d4c565b506040518060600160405280610e1484600081518110610e0757610e076118d7565b602002602001015161143f565b8152602001828152602001610e3584600281518110610e0757610e076118d7565b9052949350505050565b600081815b6006811015610f0957604051806040016040528060068152602001656274703a2f2f60d01b8152508181518110610e7d57610e7d6118d7565b602001015160f81c60f81b6001600160f81b031916828281518110610ea457610ea46118d7565b01602001516001600160f81b03191614610ef7576040805180820182526011815270696e76616c69644254504164647265737360781b6020820152905162461bcd60e51b815261021a91906004016118ed565b80610f0181611900565b915050610e44565b8151811015610fd4576040805180820190915260018152602f60f81b60209091018190528251839083908110610f4157610f416118d7565b01602001516001600160f81b0319161415610fc257600681118015610f72575060018251610f6f9190611a07565b81105b60405180604001604052806011815260200170696e76616c69644254504164647265737360781b81525090610fba5760405162461bcd60e51b815260040161021a91906118ed565b509392505050565b80610fcc81611900565b915050610f09565b6040805180820182526011815270696e76616c69644254504164647265737360781b6020820152905162461bcd60e51b815261021a91906004016118ed565b60608360006110228585611a07565b6001600160401b03811115611039576110396116e3565b6040519080825280601f01601f191660200182016040528015611063576020820181803683370190505b5090508460005b82518110156110d657838261107e81611900565b935081518110611090576110906118d7565b602001015160f81c60f81b8382815181106110ad576110ad6118d7565b60200101906001600160f81b031916908160001a905350806110ce81611900565b91505061106a565b50909695505050505050565b80516000906110f357506000919050565b6020820151805160001a9060c0821015611111575060009392505050565b5060019392505050565b805160009061112c57506000919050565b60008061113c846020015161119e565b846020015161114b91906118bf565b905060008460000151856020015161116391906118bf565b90505b808210156111955761117782611226565b61118190836118bf565b91508261118d81611900565b935050611166565b50909392505050565b8051600090811a60808110156111b75750600092915050565b60b88110806111d2575060c081108015906111d2575060f881105b156111e05750600192915050565b60c0811015611214576111f5600160b8611996565b6112029060ff1682611a07565b61120d9060016118bf565b9392505050565b6111f5600160f8611996565b50919050565b80516000908190811a608081101561124157600191506112c8565b60b881101561126757611255608082611a07565b6112609060016118bf565b91506112c8565b60c08110156112945760b78103600185019450806020036101000a855104600182018101935050506112c8565b60f88110156112a85761125560c082611a07565b60f78103600185019450806020036101000a855104600182018101935050505b5092915050565b806112d957505050565b6020811061131157825182526112f06020846118bf565b92506112fd6020836118bf565b915061130a602082611a07565b90506112d9565b801561134a5760006001611326836020611a07565b61133290610100611b0e565b61133c9190611a07565b845184518216911916178352505b505050565b6060600082600001516001600160401b0381111561136f5761136f6116e3565b6040519080825280601f01601f191660200182016040528015611399576020820181803683370190505b5090508051600014156113ac5792915050565b60008160200190506112c884602001518286600001516112cf565b6113cf611512565b60006113dd61059e84610a7e565b90506040518060600160405280611400836000815181106105bd576105bd6118d7565b815260200161141b83600181518110610e0757610e076118d7565b8152602001611436836002815181106105bd576105bd6118d7565b90529392505050565b80516000901580159061145457508151602110155b6114965760405162461bcd60e51b815260206004820152601360248201527224b73b30b634b2103ab4b73a10373ab6b132b960691b604482015260640161021a565b60006114a5836020015161119e565b905060008184600001516114b99190611a07565b90506000808386602001516114ce91906118bf565b9050805191506020831015610cb157506020919091036101000a90049392505050565b60405180606001604052806000815260200160608152602001600081525090565b60405180606001604052806060815260200160008152602001606081525090565b508054600082559060005260206000209081019061155191906115f2565b50565b8280546115609061191b565b90600052602060002090601f01602090048101928261158257600085556115c8565b82601f1061159b57805160ff19168380011785556115c8565b828001600101855582156115c8579182015b828111156115c85782518255916020019190600101906115ad565b506115d492915061160f565b5090565b604051806040016040528060008152602001600081525090565b808211156115d45760006116068282611624565b506001016115f2565b5b808211156115d45760008155600101611610565b5080546116309061191b565b6000825580601f10611640575050565b601f016020900490600052602060002090810190611551919061160f565b60005b83811015611679578181015183820152602001611661565b8381111561057b5750506000910152565b600081518084526116a281602086016020860161165e565b601f01601f19169290920160200192915050565b6020815281516020820152600060208301516040808401526116db606084018261168a565b949350505050565b634e487b7160e01b600052604160045260246000fd5b600082601f83011261170a57600080fd5b81356001600160401b0380821115611724576117246116e3565b604051601f8301601f19908116603f0116810190828211818310171561174c5761174c6116e3565b8160405283815286602085880101111561176557600080fd5b836020870160208301376000602085830101528094505050505092915050565b60008060008060006080868803121561179d57600080fd5b85356001600160401b03808211156117b457600080fd5b6117c089838a016116f9565b965060208801359150808211156117d657600080fd5b6117e289838a016116f9565b95506040880135945060608801359150808211156117ff57600080fd5b818801915088601f83011261181357600080fd5b81358181111561182257600080fd5b89602082850101111561183457600080fd5b9699959850939650602001949392505050565b6000602080830181845280855180835260408601915060408160051b870101925083870160005b8281101561189c57603f1988860301845261188a85835161168a565b9450928501929085019060010161186e565b5092979650505050505050565b634e487b7160e01b600052601160045260246000fd5b600082198211156118d2576118d26118a9565b500190565b634e487b7160e01b600052603260045260246000fd5b60208152600061120d602083018461168a565b6000600019821415611914576119146118a9565b5060010190565b600181811c9082168061192f57607f821691505b6020821081141561122057634e487b7160e01b600052602260045260246000fd5b6000825161196281846020870161165e565b9190910192915050565b634e487b7160e01b600052601260045260246000fd5b6000826119915761199161196c565b500690565b600060ff821660ff8416808210156119b0576119b06118a9565b90039392505050565b600060ff821660ff84168160ff04811182151516156119da576119da6118a9565b029392505050565b600060ff821660ff84168060ff038211156119ff576119ff6118a9565b019392505050565b600082821015611a1957611a196118a9565b500390565b600082611a2d57611a2d61196c565b500490565b600181815b80851115611a6d578160001904821115611a5357611a536118a9565b80851615611a6057918102915b93841c9390800290611a37565b509250929050565b600082611a8457506001610743565b81611a9157506000610743565b8160018114611aa75760028114611ab157611acd565b6001915050610743565b60ff841115611ac257611ac26118a9565b50506001821b610743565b5060208310610133831016604e8410600b8410161715611af0575081810a610743565b611afa8383611a32565b80600019048211156119da576119da6118a9565b600061120d8383611a7556fea26469706673582212209264410e226d201a4978b37f290ea4b8478f220f90be66747f6223e301597f5264736f6c634300080c0033",
  "linkReferences": {},
  "deployedLinkReferences": {}
}