{
  "_format": "hh-sol-artifact-1",
  "contractName": "CallService",
  "sourceName": "solidity/contracts/xcall/CallService.sol",
  "abi": [
    {
      "anonymous": false,
      "inputs": [
        {
          "indexed": true,
          "internalType": "uint256",
          "name": "_reqId",
          "type": "uint256"
        },
        {
          "indexed": false,
          "internalType": "int256",
          "name": "_code",
          "type": "int256"
        },
        {
          "indexed": false,
          "internalType": "string",
          "name": "_msg",
          "type": "string"
        }
      ],
      "name": "CallExecuted",
      "type": "event"
    },
    {
      "anonymous": false,
      "inputs": [
        {
          "indexed": true,
          "internalType": "string",
          "name": "_from",
          "type": "string"
        },
        {
          "indexed": true,
          "internalType": "string",
          "name": "_to",
          "type": "string"
        },
        {
          "indexed": true,
          "internalType": "uint256",
          "name": "_sn",
          "type": "uint256"
        },
        {
          "indexed": false,
          "internalType": "uint256",
          "name": "_reqId",
          "type": "uint256"
        }
      ],
      "name": "CallMessage",
      "type": "event"
    },
    {
      "anonymous": false,
      "inputs": [
        {
          "indexed": true,
          "internalType": "address",
          "name": "_from",
          "type": "address"
        },
        {
          "indexed": true,
          "internalType": "string",
          "name": "_to",
          "type": "string"
        },
        {
          "indexed": true,
          "internalType": "uint256",
          "name": "_sn",
          "type": "uint256"
        },
        {
          "indexed": false,
          "internalType": "int256",
          "name": "_nsn",
          "type": "int256"
        }
      ],
      "name": "CallMessageSent",
      "type": "event"
    },
    {
      "anonymous": false,
      "inputs": [
        {
          "indexed": false,
          "internalType": "uint8",
          "name": "version",
          "type": "uint8"
        }
      ],
      "name": "Initialized",
      "type": "event"
    },
    {
      "anonymous": false,
      "inputs": [
        {
          "indexed": true,
          "internalType": "uint256",
          "name": "_sn",
          "type": "uint256"
        },
        {
          "indexed": false,
          "internalType": "int256",
          "name": "_code",
          "type": "int256"
        },
        {
          "indexed": false,
          "internalType": "string",
          "name": "_msg",
          "type": "string"
        }
      ],
      "name": "ResponseMessage",
      "type": "event"
    },
    {
      "anonymous": false,
      "inputs": [
        {
          "indexed": true,
          "internalType": "uint256",
          "name": "_sn",
          "type": "uint256"
        },
        {
          "indexed": false,
          "internalType": "int256",
          "name": "_code",
          "type": "int256"
        },
        {
          "indexed": false,
          "internalType": "string",
          "name": "_msg",
          "type": "string"
        }
      ],
      "name": "RollbackExecuted",
      "type": "event"
    },
    {
      "anonymous": false,
      "inputs": [
        {
          "indexed": true,
          "internalType": "uint256",
          "name": "_sn",
          "type": "uint256"
        }
      ],
      "name": "RollbackMessage",
      "type": "event"
    },
    {
      "inputs": [],
      "name": "admin",
      "outputs": [
        {
          "internalType": "address",
          "name": "",
          "type": "address"
        }
      ],
      "stateMutability": "view",
      "type": "function"
    },
    {
      "inputs": [
        {
          "internalType": "uint256",
          "name": "_reqId",
          "type": "uint256"
        }
      ],
      "name": "executeCall",
      "outputs": [],
      "stateMutability": "nonpayable",
      "type": "function"
    },
    {
      "inputs": [
        {
          "internalType": "uint256",
          "name": "_sn",
          "type": "uint256"
        }
      ],
      "name": "executeRollback",
      "outputs": [],
      "stateMutability": "nonpayable",
      "type": "function"
    },
    {
      "inputs": [],
      "name": "getBtpAddress",
      "outputs": [
        {
          "internalType": "string",
          "name": "",
          "type": "string"
        }
      ],
      "stateMutability": "view",
      "type": "function"
    },
    {
      "inputs": [
        {
          "internalType": "string",
          "name": "_net",
          "type": "string"
        },
        {
          "internalType": "bool",
          "name": "_rollback",
          "type": "bool"
        }
      ],
      "name": "getFee",
      "outputs": [
        {
          "internalType": "uint256",
          "name": "",
          "type": "uint256"
        }
      ],
      "stateMutability": "view",
      "type": "function"
    },
    {
      "inputs": [],
      "name": "getProtocolFee",
      "outputs": [
        {
          "internalType": "uint256",
          "name": "",
          "type": "uint256"
        }
      ],
      "stateMutability": "view",
      "type": "function"
    },
    {
      "inputs": [],
      "name": "getProtocolFeeHandler",
      "outputs": [
        {
          "internalType": "address",
          "name": "",
          "type": "address"
        }
      ],
      "stateMutability": "view",
      "type": "function"
    },
    {
      "inputs": [
        {
          "internalType": "string",
          "name": "_src",
          "type": "string"
        },
        {
          "internalType": "string",
          "name": "_svc",
          "type": "string"
        },
        {
          "internalType": "uint256",
          "name": "_sn",
          "type": "uint256"
        },
        {
          "internalType": "uint256",
          "name": "_code",
          "type": "uint256"
        },
        {
          "internalType": "string",
          "name": "_msg",
          "type": "string"
        }
      ],
      "name": "handleBTPError",
      "outputs": [],
      "stateMutability": "nonpayable",
      "type": "function"
    },
    {
      "inputs": [
        {
          "internalType": "string",
          "name": "_from",
          "type": "string"
        },
        {
          "internalType": "string",
          "name": "_svc",
          "type": "string"
        },
        {
          "internalType": "uint256",
          "name": "_sn",
          "type": "uint256"
        },
        {
          "internalType": "bytes",
          "name": "_msg",
          "type": "bytes"
        }
      ],
      "name": "handleBTPMessage",
      "outputs": [],
      "stateMutability": "nonpayable",
      "type": "function"
    },
    {
      "inputs": [
        {
          "internalType": "address",
          "name": "_bmc",
          "type": "address"
        }
      ],
      "name": "initialize",
      "outputs": [],
      "stateMutability": "nonpayable",
      "type": "function"
    },
    {
      "inputs": [
        {
          "internalType": "string",
          "name": "_to",
          "type": "string"
        },
        {
          "internalType": "bytes",
          "name": "_data",
          "type": "bytes"
        },
        {
          "internalType": "bytes",
          "name": "_rollback",
          "type": "bytes"
        }
      ],
      "name": "sendCallMessage",
      "outputs": [
        {
          "internalType": "uint256",
          "name": "",
          "type": "uint256"
        }
      ],
      "stateMutability": "payable",
      "type": "function"
    },
    {
      "inputs": [
        {
          "internalType": "address",
          "name": "_address",
          "type": "address"
        }
      ],
      "name": "setAdmin",
      "outputs": [],
      "stateMutability": "nonpayable",
      "type": "function"
    },
    {
      "inputs": [
        {
          "internalType": "uint256",
          "name": "_value",
          "type": "uint256"
        }
      ],
      "name": "setProtocolFee",
      "outputs": [],
      "stateMutability": "nonpayable",
      "type": "function"
    },
    {
      "inputs": [
        {
          "internalType": "address",
          "name": "_addr",
          "type": "address"
        }
      ],
      "name": "setProtocolFeeHandler",
      "outputs": [],
      "stateMutability": "nonpayable",
      "type": "function"
    },
    {
      "inputs": [
        {
          "internalType": "address",
          "name": "toAddr",
          "type": "address"
        },
        {
          "internalType": "string",
          "name": "to",
          "type": "string"
        },
        {
          "internalType": "string",
          "name": "from",
          "type": "string"
        },
        {
          "internalType": "bytes",
          "name": "data",
          "type": "bytes"
        }
      ],
      "name": "tryHandleCallMessage",
      "outputs": [],
      "stateMutability": "nonpayable",
      "type": "function"
    }
  ],
  "bytecode": "0x608060405234801561001057600080fd5b50615459806100206000396000f3fe6080604052600436106100b85760003560e01c80630a823dea146100bd5780632a84e1b0146100df5780632eb71414146100ff5780634342f10d146101365780634f63a21d14610156578063502bf8e014610178578063704b6c0214610198578063787dce3d146101b85780637d4c4f4a146101d85780638ef378b814610206578063a5a4103114610219578063b70eeb8d1461022e578063b822da231461024e578063c4d66de81461026e578063f851a4401461028e575b600080fd5b3480156100c957600080fd5b506100dd6100d836600461412f565b6102a3565b005b3480156100eb57600080fd5b506100dd6100fa3660046141db565b6103cd565b34801561010b57600080fd5b506009546001600160a01b03165b6040516001600160a01b0390911681526020015b60405180910390f35b34801561014257600080fd5b506100dd6101513660046141db565b61076c565b34801561016257600080fd5b5061016b610be2565b60405161012d919061424c565b34801561018457600080fd5b506100dd61019336600461427b565b610c74565b3480156101a457600080fd5b506100dd6101b336600461427b565b610d17565b3480156101c457600080fd5b506100dd6101d33660046141db565b610d7f565b3480156101e457600080fd5b506101f86101f336600461435b565b610dbc565b60405190815260200161012d565b6101f86102143660046143b1565b610dd1565b34801561022557600080fd5b506004546101f8565b34801561023a57600080fd5b506100dd610249366004614438565b6110e8565b34801561025a57600080fd5b506100dd6102693660046144db565b61125a565b34801561027a57600080fd5b506100dd61028936600461427b565b611336565b34801561029a57600080fd5b5061011961150f565b6000546201000090046001600160a01b031633146102dc5760405162461bcd60e51b81526004016102d390614573565b60405180910390fd5b6102e6868661151e565b600061039b604051806040016040528060018152602001607d60f81b81525061039585858080601f016020809104026020016040519081016040528093929190818152602001838380828437600092019190915250506040805180820190915260068152652c206d73673d60d01b6020820152610395925090508161036a8b6115bb565b60408051808201909152600e81526d4254504572726f727b636f64653d60901b602082015290611732565b90611732565b90506103c2604051806060016040528087815260200160011981526020018381525061175e565b505050505050505050565b600081815260056020908152604080832081516080810190925280546001600160a01b03168252600181018054929391929184019161040b90614594565b80601f016020809104026020016040519081016040528092919081815260200182805461043790614594565b80156104845780601f1061045957610100808354040283529160200191610484565b820191906000526020600020905b81548152906001019060200180831161046757829003601f168201915b5050505050815260200160028201805461049d90614594565b80601f01602080910402602001604051908101604052809291908181526020018280546104c990614594565b80156105165780601f106104eb57610100808354040283529160200191610516565b820191906000526020600020905b8154815290600101906020018083116104f957829003601f168201915b50505091835250506003919091015460ff16151560209091015280519091506001600160a01b031661057d5760405162461bcd60e51b815260206004820152601060248201526f496e76616c696453657269616c4e756d60801b60448201526064016102d3565b80606001516105c35760405162461bcd60e51b8152602060048201526012602482015271149bdb1b189858dad39bdd115b98589b195960721b60448201526064016102d3565b6105cc82611a32565b6105d4613fba565b8151604080840151905163b822da2360e01b8152309263b822da239261060092600191906004016145c9565b600060405180830381600087803b15801561061a57600080fd5b505af192505050801561062b575060015b6106f7576106376146a5565b806308c379a0141561067c575061064c6146c1565b80610657575061067e565b6040518060600160405280858152602001600019815260200182815250915050610725565b505b3d8080156106a8576040519150601f19603f3d011682016040523d82523d6000602084013e6106ad565b606091505b50604051806060016040528085815260200160001981526020016040518060400160405280600c81526020016b3ab735b737bbb722b93937b960a11b815250815250915050610725565b6040518060600160405280848152602001600081526020016040518060200160405280600081525081525090505b827fa624620c8bd50b7672875f280750fffe1cfe3bed0d3c4a1454ac11e6567435e68260200151836040015160405161075f92919061474a565b60405180910390a2505050565b600081815260066020526040808220815160a0810190925280548290829061079390614594565b80601f01602080910402602001604051908101604052809291908181526020018280546107bf90614594565b801561080c5780601f106107e15761010080835404028352916020019161080c565b820191906000526020600020905b8154815290600101906020018083116107ef57829003601f168201915b5050505050815260200160018201805461082590614594565b80601f016020809104026020016040519081016040528092919081815260200182805461085190614594565b801561089e5780601f106108735761010080835404028352916020019161089e565b820191906000526020600020905b81548152906001019060200180831161088157829003601f168201915b505050918352505060028201546020820152600382015460ff16151560408201526004820180546060909201916108d490614594565b80601f016020809104026020016040519081016040528092919081815260200182805461090090614594565b801561094d5780601f106109225761010080835404028352916020019161094d565b820191906000526020600020905b81548152906001019060200180831161093057829003601f168201915b50505050508152505090506000816000015151116109a05760405162461bcd60e51b815260206004820152601060248201526f125b9d985b1a5914995c5d595cdd125960821b60448201526064016102d3565b6000828152600660205260408120906109b98282613fdb565b6109c7600183016000613fdb565b60006002830181905560038301805460ff191690556109ea906004840190613fdb565b505060006109fb8260000151611a79565b9050610a05613fba565b60208301518351608085015160405163b822da2360e01b8152309363b822da2393610a3593600093600401614763565b600060405180830381600087803b158015610a4f57600080fd5b505af1925050508015610a60575060015b610b3457610a6c6146a5565b806308c379a01415610ab55750610a816146c1565b80610a8c5750610ab7565b604051806060016040528085604001518152602001600019815260200182815250915050610b66565b505b3d808015610ae1576040519150601f19603f3d011682016040523d82523d6000602084013e610ae6565b606091505b5060405180606001604052808560400151815260200160001981526020016040518060400160405280600c81526020016b3ab735b737bbb722b93937b960a11b815250815250915050610b66565b604051806060016040528084604001518152602001600081526020016040518060200160405280600081525081525090505b837fc7391e04887f8b3c16fa20877e028e8163139a478c8447e7d449eba1905caa5182602001518360400151604051610ba092919061474a565b60405180910390a2826060015115610bdc57610bda60008360028660400151600019610bcc91906147ce565b610bd586611a8f565b611b12565b505b50505050565b606060018054610bf190614594565b80601f0160208091040260200160405190810160405280929190818152602001828054610c1d90614594565b8015610c6a5780601f10610c3f57610100808354040283529160200191610c6a565b820191906000526020600020905b815481529060010190602001808311610c4d57829003601f168201915b5050505050905090565b610c7c611be1565b6001600160a01b0316336001600160a01b031614610cac5760405162461bcd60e51b81526004016102d390614853565b600980546001600160a01b0319166001600160a01b03831690811790915515610d1457478015610d12576009546040516001600160a01b039091169082156108fc029083906000818181858888f19350505050158015610d10573d6000803e3d6000fd5b505b505b50565b6007546001600160a01b03163314610d5d5760405162461bcd60e51b815260206004820152600960248201526827b7363ca7bbb732b960b91b60448201526064016102d3565b600880546001600160a01b0319166001600160a01b0392909216919091179055565b610d87611be1565b6001600160a01b0316336001600160a01b031614610db75760405162461bcd60e51b81526004016102d390614853565b600455565b6000610dc88383611c14565b90505b92915050565b6000333b151580610de157508151155b610e235760405162461bcd60e51b8152602060048201526013602482015272526f6c6c6261636b4e6f74506f737369626c6560681b60448201526064016102d3565b61080083511115610e6c5760405162461bcd60e51b815260206004820152601360248201527213585e11185d1854da5e99515e18d959591959606a1b60448201526064016102d3565b61040082511115610eb95760405162461bcd60e51b815260206004820152601760248201527613585e149bdb1b189858dad4da5e99515e18d959591959604a1b60448201526064016102d3565b81511515600080610ec987611c9a565b915091506000610ed98385611c14565b905080341015610f1d5760405162461bcd60e51b815260206004820152600f60248201526e496e73756666696369656e7446656560881b60448201526064016102d3565b6009546001600160a01b031615801590610f3957506000600454115b15610f7c576009546004546040516001600160a01b039092169181156108fc0291906000818181858888f19350505050158015610f7a573d6000803e3d6000fd5b505b6000610f86611cd6565b90506000851561102d576040805160808101825233815260208082018d81528284018c90526000606084018190528681526005835293909320825181546001600160a01b0319166001600160a01b0390911617815592518051929392610ff29260018501920190614015565b506040820151805161100e916002840191602090910190614015565b50606091909101516003909101805460ff191691151591909117905550805b60006040518060a0016040528061104c336001600160a01b0316611cf1565b815260200186815260200184815260200188151581526020018b8152509050600061108b6004543461107e9190614876565b88600186610bd587611cfc565b9050838c60405161109c919061488d565b6040519081900381208382529033907f30bd7b24c8b4484378d242d4b94ef187d71ef050444e6b1bd9b18d1b75a294389060200160405180910390a450919a9950505050505050505050565b6000546201000090046001600160a01b031633146111185760405162461bcd60e51b81526004016102d390614573565b611122858561151e565b600061116383838080601f016020809104026020016040519081016040528093929190818152602001838380828437600092019190915250611d5792505050565b8051909150600114156111ba576111b588888080601f01602080910402602001604051908101604052809392919081815260200183838082843760009201919091525050506020840151879150611de0565b611250565b8051600214156111d9576111b56111d48260200151611f2f565b61175e565b6000611234604051806040016040528060018152602001602960f81b81525061039561120885600001516115bb565b60408051808201909152600f81526e0aadcd6dcdeeedc9ae6cea8f2e0ca5608b1b602082015290611732565b90508060405162461bcd60e51b81526004016102d3919061424c565b5050505050505050565b3330146112985760405162461bcd60e51b815260206004820152600c60248201526b13db9b1e525b9d195c9b985b60a21b60448201526064016102d3565b6001600160a01b0384166112da5760408051808201909152600f81526e125b1b1959d85b105c99dd5b595b9d608a1b60208201526112d7908490611fab565b93505b6040516325ecfc2360e11b81526001600160a01b03851690634bd9f8469061130890859085906004016148a9565b600060405180830381600087803b15801561132257600080fd5b505af1158015611250573d6000803e3d6000fd5b600054610100900460ff16158080156113565750600054600160ff909116105b806113705750303b158015611370575060005460ff166001145b6113d35760405162461bcd60e51b815260206004820152602e60248201527f496e697469616c697a61626c653a20636f6e747261637420697320616c72656160448201526d191e481a5b9a5d1a585b1a5e995960921b60648201526084016102d3565b6000805460ff1916600117905580156113f6576000805461ff0019166101001790555b60078054336001600160a01b03199091161790556000805462010000600160b01b031916620100006001600160a01b0385811682029290921780845560408051636bf459cb60e01b815290519290910490921691636bf459cb91600480830192869291908290030181865afa158015611473573d6000803e3d6000fd5b505050506040513d6000823e601f3d908101601f1916820160405261149b91908101906148d7565b90506114b06114a930611cf1565b829061228e565b80516114c491600191602090910190614015565b50508015610d12576000805461ff0019169055604051600181527f7f26b83ff96e1f2b6a682f133852f6798a09c465da95921460cefb38474024989060200160405180910390a15050565b6000611519611be1565b905090565b61157a82828080601f016020809104026020016040519081016040528093929190818152602001838380828437600092019190915250506040805180820190915260058152641e18d85b1b60da1b6020820152929150506122de565b610d125760405162461bcd60e51b8152602060048201526012602482015271496e76616c6964536572766963654e616d6560701b60448201526064016102d3565b6060816115df5750506040805180820190915260018152600360fc1b602082015290565b60408051602080825281830190925260009160208201818036833701905050905060005b831561166a57611614600a85614964565b61161f906030614978565b60f81b82828151811061163457611634614990565b60200101906001600160f81b031916908160001a905350611656600a856149a6565b935080611662816149ba565b915050611603565b600081611676816149d5565b92506001600160401b0381111561168f5761168f614296565b6040519080825280601f01601f1916602001820160405280156116b9576020820181803683370190505b50905060005b815181101561172957836116d38285614876565b815181106116e3576116e3614990565b602001015160f81c60f81b82828151811061170057611700614990565b60200101906001600160f81b031916908160001a90535080611721816149ba565b9150506116bf565b50949350505050565b606082826040516020016117479291906149ec565b604051602081830303815290604052905092915050565b8051600090815260056020908152604080832081516080810190925280546001600160a01b03168252600181018054929391929184019161179e90614594565b80601f01602080910402602001604051908101604052809291908181526020018280546117ca90614594565b80156118175780601f106117ec57610100808354040283529160200191611817565b820191906000526020600020905b8154815290600101906020018083116117fa57829003601f168201915b5050505050815260200160028201805461183090614594565b80601f016020809104026020016040519081016040528092919081815260200182805461185c90614594565b80156118a95780601f1061187e576101008083540402835291602001916118a9565b820191906000526020600020905b81548152906001019060200180831161188c57829003601f168201915b50505091835250506003919091015460ff16151560209091015280519091506001600160a01b031615610d125781600001517fe1280b9ed2814cffdf5af58c3dae53306da235dbbe85ab3d9911672a0a09bb6d8360200151846040015160405161191492919061474a565b60405180910390a2602082015161193557815161193090611a32565b610d12565b60008160400151511161197b5760405162461bcd60e51b815260206004820152600e60248201526d4e6f526f6c6c6261636b4461746160901b60448201526064016102d3565b60016060820181905282516000908152600560209081526040909120835181546001600160a01b0319166001600160a01b03909116178155818401518051859492936119cb938501920190614015565b50604082015180516119e7916002840191602090910190614015565b50606091909101516003909101805460ff191691151591909117905581516040517f38934ab923f985814047679ba041577b8203ddd15fe9910d3fc6a7aa6001e9c790600090a25050565b600081815260056020526040812080546001600160a01b031916815590611a5c6001830182613fdb565b611a6a600283016000613fdb565b50600301805460ff1916905550565b6060610dcb826006611a8a85612345565b612519565b60606000611aa083600001516125e8565b611aad8460200151612667565b611aba856040015161267a565b604051602001611acc93929190614a1b565b6040516020818303038152906040529050611ae981516000612685565b81604051602001611afb9291906149ec565b604051602081830303815290604052915050919050565b60008060029054906101000a90046001600160a01b03166001600160a01b031663522a901e8787604051806040016040528060058152602001641e18d85b1b60da1b81525087611b7560405180604001604052808c81526020018a81525061273c565b6040518663ffffffff1660e01b8152600401611b949493929190614a5e565b60206040518083038185885af1158015611bb2573d6000803e3d6000fd5b50505050506040513d601f19601f82011682018060405250810190611bd79190614a9d565b9695505050505050565b6008546000906001600160a01b0316611c0457506007546001600160a01b031690565b506008546001600160a01b031690565b60008054604051633ea627a560e11b8152620100009091046001600160a01b031690637d4c4f4a90611c4c9086908690600401614ab6565b602060405180830381865afa158015611c69573d6000803e3d6000fd5b505050506040513d601f19601f82011682018060405250810190611c8d9190614a9d565b600454610dc89190614978565b6060806000611ca884612345565b9050611cb684600683612519565b611ccc85611cc5846001614978565b8751612519565b9250925050915091565b60006002546001611ce79190614978565b6002819055919050565b6060610dcb8261276b565b60606000611d0d836000015161267a565b611d1a846020015161267a565b611d2785604001516125e8565b611d3686606001511515612940565b611d4387608001516129a7565b604051602001611acc959493929190614ada565b6040805180820190915260008152606060208201526000611d7f611d7a846129f7565b612a1d565b90506040518060400160405280611daf83600081518110611da257611da2614990565b6020026020010151612b5a565b8152602001611dd783600181518110611dca57611dca614990565b6020026020010151612bc6565b90529392505050565b6000611deb82612c96565b8051909150600090611dfe90869061228e565b90506000611e0a612d76565b6040805160a08101825284815260208681015181830152868301518284015260608088015115159083015260808088015190830152600084815260068252929092208151805194955091939092611e65928492910190614015565b506020828101518051611e7e9260018501920190614015565b5060408201516002820155606082015160038201805460ff191691151591909117905560808201518051611ebc916004840191602090910190614015565b5090505082604001518360200151604051611ed7919061488d565b604051809103902083604051611eed919061488d565b604051908190038120848252907fe47534aac445893e076f52327e0af29b70dc064167daf94b1e1083ad09c5b7899060200160405180910390a4505050505050565b611f37613fba565b6000611f45611d7a846129f7565b90506040518060600160405280611f7583600081518110611f6857611f68614990565b6020026020010151612d91565b8152602001611f9083600181518110611da257611da2614990565b8152602001611dd783600281518110611dca57611dca614990565b81516000908390602a148015611fef5750600360fc1b6001600160f81b03191681600081518110611fde57611fde614990565b01602001516001600160f81b031916145b80156120295750600f60fb1b6001600160f81b0319168160018151811061201857612018614990565b01602001516001600160f81b031916145b83906120485760405162461bcd60e51b81526004016102d3919061424c565b5060408051601480825281830190925260009160208201818036833701905050905060008080805b60288110156121df5785612085826002614978565b8151811061209557612095614990565b016020015160f81c9350600160308510156120ae575060005b8460ff1660391080156120c4575060418560ff16105b156120cd575060005b8460ff1660461080156120e3575060618560ff16105b156120ec575060005b8460ff16606610156120fc575060005b8061211b578860405162461bcd60e51b81526004016102d3919061424c565b60418560ff161015612130576030925061214a565b8460ff1660461015612145576057925061214a565b603792505b612155600283614964565b61216a576121638386614b45565b93506121cc565b6121748386614b45565b61217f856010614b68565b6121899190614b91565b60f81b86600261219a600186614876565b6121a491906149a6565b815181106121b4576121b4614990565b60200101906001600160f81b031916908160001a9053505b50806121d7816149ba565b915050612070565b506000846040516020016121f3919061488d565b60408051601f198184030181529190526014810151975090506001600160a01b0387166122825760025b86518110156122805786818151811061223857612238614990565b60209101015189906001600160f81b031916600360fc1b1461226d5760405162461bcd60e51b81526004016102d3919061424c565b5080612278816149ba565b91505061221d565b505b50505050505092915050565b6060604051806040016040528060068152602001656274703a2f2f60d01b81525083604051806040016040528060018152602001602f60f81b815250846040516020016117479493929190614bb6565b6000816040516020016122f1919061488d565b6040516020818303038152906040528051906020012083604051602001612318919061488d565b60405160208183030381529060405280519060200120141561233c57506001610dcb565b50600092915050565b600081815b600681101561240f57604051806040016040528060068152602001656274703a2f2f60d01b815250818151811061238357612383614990565b602001015160f81c60f81b6001600160f81b0319168282815181106123aa576123aa614990565b01602001516001600160f81b031916146123fd576040805180820182526011815270696e76616c69644254504164647265737360781b6020820152905162461bcd60e51b81526102d3919060040161424c565b80612407816149ba565b91505061234a565b81518110156124da576040805180820190915260018152602f60f81b6020909101819052825183908390811061244757612447614990565b01602001516001600160f81b03191614156124c8576006811180156124785750600182516124759190614876565b81105b60405180604001604052806011815260200170696e76616c69644254504164647265737360781b815250906124c05760405162461bcd60e51b81526004016102d3919061424c565b509392505050565b806124d2816149ba565b91505061240f565b6040805180820182526011815270696e76616c69644254504164647265737360781b6020820152905162461bcd60e51b81526102d3919060040161424c565b60608360006125288585614876565b6001600160401b0381111561253f5761253f614296565b6040519080825280601f01601f191660200182016040528015612569576020820181803683370190505b5090508460005b82518110156125dc578382612584816149ba565b93508151811061259657612596614990565b602001015160f81c60f81b8382815181106125b3576125b3614990565b60200101906001600160f81b031916908160001a905350806125d4816149ba565b915050612570565b50909695505050505050565b6060600060086125f784612e43565b61260191906149a6565b61260c906001614978565b9050600061261984612e66565b9050600081518361262a9190614876565b111561265657604051612644906000908390602001614c0d565b60405160208183030381529060405290505b61265f816129a7565b949350505050565b6060610dcb61267583613284565b6129a7565b6060610dcb826129a7565b6060603783118015612695575081155b156126dc5760006126a584612e66565b90506126b381516001612685565b816040516020016126c59291906149ec565b604051602081830303815290604052915050610dcb565b603783111580156126eb575081155b15612721576126fb8360c0614978565b60405160200161270b9190614c3e565b6040516020818303038152906040529050610dcb565b61272c8360f7614978565b6040516020016117479190614c3e565b6060600061274d8360000151612667565b61275a84602001516129a7565b604051602001611acc9291906149ec565b604080516028808252606082810190935283831b9160009160208201818036833701905050905060008060008060008060006127a68b613793565b905060005b601481101561290f576127bf816013614876565b6127ca906008614c56565b6127d5906002614d51565b6127e39060608c901c6149a6565b97506127f0601089614d5d565b96506127fd876010614b68565b6128079089614b45565b955081612815826002614c56565b6028811061282557612825614990565b6020020151945081612838826002614c56565b612843906001614978565b6028811061285357612853614990565b602002015193506128648786613924565b92506128708388614b91565b60f81b8961287f836002614c56565b8151811061288f5761288f614990565b60200101906001600160f81b031916908160001a9053506128b08685613924565b92506128bc8387614b91565b60f81b896128cb836002614c56565b6128d6906001614978565b815181106128e6576128e6614990565b60200101906001600160f81b031916908160001a90535080612907816149ba565b9150506127ab565b50876040516020016129219190614d7f565b6040516020818303038152906040529950505050505050505050919050565b6040805160018082528183019092526060916000919060208201818036833701905050905082612971576000612977565b600160f81b5b8160008151811061298a5761298a614990565b60200101906001600160f81b031916908160001a90535092915050565b606080825160011480156129d657506080836000815181106129cb576129cb614990565b016020015160f81c11155b156129e2575081610dcb565b610dc86129f184516080613951565b84613b07565b6129ff614099565b50604080518082019091528151815260209182019181019190915290565b6060612a2882613b84565b612a655760405162461bcd60e51b815260206004820152600e60248201526d135d5cdd0818994818481b1a5cdd60921b60448201526064016102d3565b6000612a7083613bbd565b90506000816001600160401b03811115612a8c57612a8c614296565b604051908082528060200260200182016040528015612ac557816020015b612ab2614099565b815260200190600190039081612aaa5790505b5090506000612ad78560200151613c40565b8560200151612ae69190614978565b90506000805b84811015612b4f57612afd83613cc8565b9150604051806040016040528083815260200184815250848281518110612b2657612b26614990565b6020908102919091010152612b3b8284614978565b925080612b47816149ba565b915050612aec565b509195945050505050565b6000612b6582612bc6565b600081518110612b7757612b77614990565b0160200151600160ff1b9081161415612bbd57612b9382612bc6565b51612b9f906008614c56565b612baa906002614d51565b612bb383612d91565b610dcb9190614da9565b610dcb82612d91565b8051606090612c085760405162461bcd60e51b815260206004820152600e60248201526d092dcecc2d8d2c840d8cadccee8d60931b60448201526064016102d3565b6000612c178360200151613c40565b90506000818460000151612c2b9190614876565b90506000816001600160401b03811115612c4757612c47614296565b6040519080825280601f01601f191660200182016040528015612c71576020820181803683370190505b5090506000816020019050611729848760200151612c8f9190614978565b8285613d71565b612cca6040518060a00160405280606081526020016060815260200160008152602001600015158152602001606081525090565b6000612cd8611d7a846129f7565b90506040518060a00160405280612cfb83600081518110611dca57611dca614990565b8152602001612d1683600181518110611dca57611dca614990565b8152602001612d3183600281518110611f6857611f68614990565b8152602001612d5983600381518110612d4c57612d4c614990565b6020026020010151613df0565b15158152602001611dd783600481518110611dca57611dca614990565b60006003546001612d879190614978565b6003819055919050565b805160009015801590612da657508151602110155b612de85760405162461bcd60e51b815260206004820152601360248201527224b73b30b634b2103ab4b73a10373ab6b132b960691b60448201526064016102d3565b6000612df78360200151613c40565b90506000818460000151612e0b9190614876565b9050600080838660200151612e209190614978565b905080519150602083101561172957506020919091036101000a90049392505050565b6000805b8215610dcb57612e58600182614978565b9050600183901c9250612e47565b606060ff821015612e985781604051602001612e829190614c3e565b6040516020818303038152906040529050919050565b60ff8210801590612eaa575061ffff82105b15612ece576040516001600160f01b031960f084901b166020820152602201612e82565b61ffff8210801590612ee2575062ffffff82105b15612f06576040516001600160e81b031960e884901b166020820152602301612e82565b62ffffff8210801590612f1c575063ffffffff82105b15612f40576040516001600160e01b031960e084901b166020820152602401612e82565b63ffffffff8210801590612f58575064ffffffffff82105b15612f7c576040516001600160d81b031960d884901b166020820152602501612e82565b64ffffffffff8210801590612f96575065ffffffffffff82105b15612fba576040516001600160d01b031960d084901b166020820152602601612e82565b65ffffffffffff8210801590612fd6575066ffffffffffffff82105b15612ffa576040516001600160c81b031960c884901b166020820152602701612e82565b66ffffffffffffff821080159061301757506001600160401b0382105b1561303b576040516001600160c01b031960c084901b166020820152602801612e82565b6001600160401b03821080159061305857506001600160481b0382105b1561307c576040516001600160b81b031960b884901b166020820152602901612e82565b6001600160481b03821080159061309957506001600160501b0382105b156130bd576040516001600160b01b031960b084901b166020820152602a01612e82565b6001600160501b0382108015906130da57506001600160581b0382105b156130fe576040516001600160a81b031960a884901b166020820152602b01612e82565b6001600160581b03821080159061311b57506001600160601b0382105b1561313f576040516001600160a01b031960a084901b166020820152602c01612e82565b6001600160601b03821080159061315c57506001600160681b0382105b15613180576040516001600160981b0319609884901b166020820152602d01612e82565b6001600160681b03821080159061319d57506001600160701b0382105b156131c1576040516001600160901b0319609084901b166020820152602e01612e82565b6001600160701b0382108015906131de57506001600160781b0382105b15613202576040516001600160881b0319608884901b166020820152602f01612e82565b6001600160781b03821080159061321f57506001600160801b0382105b6132655760405162461bcd60e51b81526020600482015260176024820152766f75744f66426f756e64733a205b302c20325e3132385d60481b60448201526064016102d3565b6040516001600160801b0319608084901b166020820152603001612e82565b6060816001613293607f614de8565b61329d9190614e08565b60000b131580156132af5750607f8213155b156132c95760405160f883901b6020820152602101612e82565b8160016132d7617fff614e49565b6132e19190614e62565b60010b131580156132f45750617fff8213155b1561330e5760405160f083901b6020820152602201612e82565b81600161331d627fffff614e9e565b6133279190614eb8565b60020b1315801561333b5750627fffff8213155b156133555760405160e883901b6020820152602301612e82565b816001613365637fffffff614ef6565b61336f9190614f11565b60030b131580156133845750637fffffff8213155b1561339e5760405160e083901b6020820152602401612e82565b8160016133af647fffffffff614f51565b6133b99190614f6d565b60040b131580156133cf5750647fffffffff8213155b156133e95760405160d883901b6020820152602501612e82565b8160016133fb657fffffffffff614faf565b6134059190614fcc565b60050b1315801561341c5750657fffffffffff8213155b156134365760405160d083901b6020820152602601612e82565b816001613449667fffffffffffff615010565b613453919061502e565b60060b1315801561346b5750667fffffffffffff8213155b156134855760405160c883901b6020820152602701612e82565b81600161349860016001603f1b03615074565b6134a29190615093565b60070b131580156134ba575060016001603f1b038213155b156134d45760405160c083901b6020820152602801612e82565b8160016134e76001600160471b036150d9565b6134f191906150f8565b60080b1315801561350957506001600160471b038213155b156135235760405160b883901b6020820152602901612e82565b81600161353660016001604f1b0361513e565b613540919061515d565b60090b13158015613558575060016001604f1b038213155b156135725760405160b083901b6020820152602a01612e82565b8160016135856001600160571b036151a3565b61358f91906151c2565b600a0b131580156135a757506001600160571b038213155b156135c15760405160a883901b6020820152602b01612e82565b8160016135d460016001605f1b03615208565b6135de9190615227565b600b0b131580156135f6575060016001605f1b038213155b156136105760405160a083901b6020820152602c01612e82565b8160016136236001600160671b0361526d565b61362d919061528c565b600c0b1315801561364557506001600160671b038213155b1561365f57604051609883901b6020820152602d01612e82565b81600161367260016001606f1b036152d2565b61367c91906152f1565b600d0b13158015613694575060016001606f1b038213155b156136ae57604051609083901b6020820152602e01612e82565b8160016136c16001600160771b03615337565b6136cb9190615356565b600e0b131580156136e357506001600160771b038213155b156136fd57604051608883901b6020820152602f01612e82565b81600161371060016001607f1b0361539c565b61371a91906153bb565b600f0b13158015613732575060016001607f1b038213155b61377e5760405162461bcd60e51b815260206004820152601e60248201527f6f75744f66426f756e64733a205b2d325e3132382d312c20325e3132385d000060448201526064016102d3565b604051608083901b6020820152603001612e82565b61379b6140b3565b606082901b60006137ab82613e60565b6040516020016137bb919061488d565b60405160208183030381529060405280519060200120905060008060008060005b60148110156139185760108782601481106137f9576137f9614990565b6138059291901a615401565b935060108488836014811061381c5761381c614990565b6138289291901a614b45565b6138329190614d5d565b9450601086826020811061384857613848614990565b6138549291901a615401565b915060108287836020811061386b5761386b614990565b6138779291901a614b45565b6138819190614d5d565b925060098560ff16118015613899575060078360ff16115b886138a5836002614c56565b602881106138b5576138b5614990565b91151560209092020152600960ff85161180156138d5575060078260ff16115b886138e1836002614c56565b6138ec906001614978565b602881106138fc576138fc614990565b9115156020909202015280613910816149ba565b9150506137dc565b50505050505050919050565b6000600a8360ff16101561393a57506030610dcb565b811561394857506037610dcb565b50605792915050565b60608060388410156139bb57604080516001808252818301909252906020820181803683370190505090506139868385614978565b601f1a60f81b8160008151811061399f5761399f614990565b60200101906001600160f81b031916908160001a905350610dc8565b600060015b6139ca81876149a6565b156139f057816139d9816149ba565b92506139e9905061010082614c56565b90506139c0565b6139fb826001614978565b6001600160401b03811115613a1257613a12614296565b6040519080825280601f01601f191660200182016040528015613a3c576020820181803683370190505b509250613a498583614978565b613a54906037614978565b601f1a60f81b83600081518110613a6d57613a6d614990565b60200101906001600160f81b031916908160001a905350600190505b818111613afe57610100613a9d8284614876565b613aa990610100614d51565b613ab390886149a6565b613abd9190614964565b601f1a60f81b838281518110613ad557613ad5614990565b60200101906001600160f81b031916908160001a90535080613af6816149ba565b915050613a89565b50509392505050565b6060806040519050835180825260208201818101602087015b81831015613b38578051835260209283019201613b20565b50855184518101855292509050808201602086015b81831015613b65578051835260209283019201613b4d565b508651929092011591909101601f01601f191660405250905092915050565b8051600090613b9557506000919050565b6020820151805160001a9060c0821015613bb3575060009392505050565b5060019392505050565b8051600090613bce57506000919050565b600080613bde8460200151613c40565b8460200151613bed9190614978565b9050600084600001518560200151613c059190614978565b90505b80821015613c3757613c1982613cc8565b613c239083614978565b915082613c2f816149ba565b935050613c08565b50909392505050565b8051600090811a6080811015613c595750600092915050565b60b8811080613c74575060c08110801590613c74575060f881105b15613c825750600192915050565b60c0811015613cb657613c97600160b8614b45565b613ca49060ff1682614876565b613caf906001614978565b9392505050565b613c97600160f8614b45565b50919050565b80516000908190811a6080811015613ce35760019150613d6a565b60b8811015613d0957613cf7608082614876565b613d02906001614978565b9150613d6a565b60c0811015613d365760b78103600185019450806020036101000a85510460018201810193505050613d6a565b60f8811015613d4a57613cf760c082614876565b60f78103600185019450806020036101000a855104600182018101935050505b5092915050565b80613d7b57505050565b60208110613db35782518252613d92602084614978565b9250613d9f602083614978565b9150613dac602082614876565b9050613d7b565b8015610d105760006001613dc8836020614876565b613dd490610100614d51565b613dde9190614876565b84518451821691191617835250505050565b8051600090600114613e395760405162461bcd60e51b81526020600482015260126024820152714d7573742068617665206c656e677468203160701b60448201526064016102d3565b6020820151805160001a90811580613e515750608082145b15613bb3575060009392505050565b60408051602880825260608281019093526000919060208201818036833701905050905060008080805b6014811015613faf57613e9e816013614876565b613ea9906008614c56565b613eb4906002614d51565b613ec290606089901c6149a6565b9350613ecf601085614d5d565b9250613edc836010614b68565b613ee69085614b45565b9150600a8360ff1610613efa576057613efd565b60305b613f079084614b91565b60f81b85613f16836002614c56565b81518110613f2657613f26614990565b60200101906001600160f81b031916908160001a905350600a8260ff1610613f4f576057613f52565b60305b613f5c9083614b91565b60f81b85613f6b836002614c56565b613f76906001614978565b81518110613f8657613f86614990565b60200101906001600160f81b031916908160001a90535080613fa7816149ba565b915050613e8a565b509295945050505050565b60405180606001604052806000815260200160008152602001606081525090565b508054613fe790614594565b6000825580601f10613ff7575050565b601f016020900490600052602060002090810190610d1491906140d2565b82805461402190614594565b90600052602060002090601f0160209004810192826140435760008555614089565b82601f1061405c57805160ff1916838001178555614089565b82800160010185558215614089579182015b8281111561408957825182559160200191906001019061406e565b506140959291506140d2565b5090565b604051806040016040528060008152602001600081525090565b6040518061050001604052806028906020820280368337509192915050565b5b8082111561409557600081556001016140d3565b60008083601f8401126140f957600080fd5b5081356001600160401b0381111561411057600080fd5b60208301915083602082850101111561412857600080fd5b9250929050565b60008060008060008060008060a0898b03121561414b57600080fd5b88356001600160401b038082111561416257600080fd5b61416e8c838d016140e7565b909a50985060208b013591508082111561418757600080fd5b6141938c838d016140e7565b909850965060408b0135955060608b0135945060808b01359150808211156141ba57600080fd5b506141c78b828c016140e7565b999c989b5096995094979396929594505050565b6000602082840312156141ed57600080fd5b5035919050565b60005b8381101561420f5781810151838201526020016141f7565b83811115610bdc5750506000910152565b600081518084526142388160208601602086016141f4565b601f01601f19169290920160200192915050565b602081526000610dc86020830184614220565b80356001600160a01b038116811461427657600080fd5b919050565b60006020828403121561428d57600080fd5b610dc88261425f565b634e487b7160e01b600052604160045260246000fd5b601f8201601f191681016001600160401b03811182821017156142d1576142d1614296565b6040525050565b60006001600160401b038211156142f1576142f1614296565b50601f01601f191660200190565b600082601f83011261431057600080fd5b813561431b816142d8565b60405161432882826142ac565b82815285602084870101111561433d57600080fd5b82602086016020830137600092810160200192909252509392505050565b6000806040838503121561436e57600080fd5b82356001600160401b0381111561438457600080fd5b614390858286016142ff565b925050602083013580151581146143a657600080fd5b809150509250929050565b6000806000606084860312156143c657600080fd5b83356001600160401b03808211156143dd57600080fd5b6143e9878388016142ff565b945060208601359150808211156143ff57600080fd5b61440b878388016142ff565b9350604086013591508082111561442157600080fd5b5061442e868287016142ff565b9150509250925092565b60008060008060008060006080888a03121561445357600080fd5b87356001600160401b038082111561446a57600080fd5b6144768b838c016140e7565b909950975060208a013591508082111561448f57600080fd5b61449b8b838c016140e7565b909750955060408a0135945060608a01359150808211156144bb57600080fd5b506144c88a828b016140e7565b989b979a50959850939692959293505050565b600080600080608085870312156144f157600080fd5b6144fa8561425f565b935060208501356001600160401b038082111561451657600080fd5b614522888389016142ff565b9450604087013591508082111561453857600080fd5b614544888389016142ff565b9350606087013591508082111561455a57600080fd5b50614567878288016142ff565b91505092959194509250565b6020808252600790820152664f6e6c79424d4360c81b604082015260600190565b600181811c908216806145a857607f821691505b60208210811415613cc257634e487b7160e01b600052602260045260246000fd5b6001600160a01b038416815260806020808301829052600091830182905260a06040840152845482908190600181811c908281168061460957607f831692505b86831081141561462757634e487b7160e01b86526022600452602486fd5b60a0890183905260c08901818015614646576001811461465757614681565b60ff19861682528882019650614681565b60008d815260209020885b8681101561467b57815484820152908501908a01614662565b83019750505b50505050505084810360608601526146998187614220565b98975050505050505050565b600060033d11156146be5760046000803e5060005160e01c5b90565b600060443d10156146cf5790565b6040516003193d81016004833e81513d6001600160401b0380831160248401831017156146fe57505050505090565b82850191508151818111156147165750505050505090565b843d87010160208285010111156147305750505050505090565b61473f602082860101876142ac565b509095945050505050565b82815260406020820152600061265f6040830184614220565b6001600160a01b038516815260806020820181905260009061478790830186614220565b82810360408401526147998186614220565b905082810360608401526147ad8185614220565b979650505050505050565b634e487b7160e01b600052601160045260246000fd5b60006001600160ff1b03818413828413808216868404861116156147f4576147f46147b8565b600160ff1b6000871282811687830589121615614813576148136147b8565b6000871292508782058712848416161561482f5761482f6147b8565b87850587128184161615614845576148456147b8565b505050929093029392505050565b60208082526009908201526827b7363ca0b236b4b760b91b604082015260600190565b600082821015614888576148886147b8565b500390565b6000825161489f8184602087016141f4565b9190910192915050565b6040815260006148bc6040830185614220565b82810360208401526148ce8185614220565b95945050505050565b6000602082840312156148e957600080fd5b81516001600160401b038111156148ff57600080fd5b8201601f8101841361491057600080fd5b805161491b816142d8565b60405161492882826142ac565b82815286602084860101111561493d57600080fd5b611bd78360208301602087016141f4565b634e487b7160e01b600052601260045260246000fd5b6000826149735761497361494e565b500690565b6000821982111561498b5761498b6147b8565b500190565b634e487b7160e01b600052603260045260246000fd5b6000826149b5576149b561494e565b500490565b60006000198214156149ce576149ce6147b8565b5060010190565b6000816149e4576149e46147b8565b506000190190565b600083516149fe8184602088016141f4565b835190830190614a128183602088016141f4565b01949350505050565b60008451614a2d8184602089016141f4565b845190830190614a418183602089016141f4565b8451910190614a548183602088016141f4565b0195945050505050565b608081526000614a716080830187614220565b8281036020840152614a838187614220565b905084604084015282810360608401526147ad8185614220565b600060208284031215614aaf57600080fd5b5051919050565b604081526000614ac96040830185614220565b905082151560208301529392505050565b60008651614aec818460208b016141f4565b865190830190614b00818360208b016141f4565b8651910190614b13818360208a016141f4565b8551910190614b268183602089016141f4565b8451910190614b398183602088016141f4565b01979650505050505050565b600060ff821660ff841680821015614b5f57614b5f6147b8565b90039392505050565b600060ff821660ff84168160ff0481118215151615614b8957614b896147b8565b029392505050565b600060ff821660ff84168060ff03821115614bae57614bae6147b8565b019392505050565b60008551614bc8818460208a016141f4565b855190830190614bdc818360208a016141f4565b8551910190614bef8183602089016141f4565b8451910190614c028183602088016141f4565b019695505050505050565b6001600160f81b0319831681528151600090614c308160018501602087016141f4565b919091016001019392505050565b60f89190911b6001600160f81b031916815260010190565b6000816000190483118215151615614c7057614c706147b8565b500290565b600181815b80851115614cb0578160001904821115614c9657614c966147b8565b80851615614ca357918102915b93841c9390800290614c7a565b509250929050565b600082614cc757506001610dcb565b81614cd457506000610dcb565b8160018114614cea5760028114614cf457614d10565b6001915050610dcb565b60ff841115614d0557614d056147b8565b50506001821b610dcb565b5060208310610133831016604e8410600b8410161715614d33575081810a610dcb565b614d3d8383614c75565b8060001904821115614b8957614b896147b8565b6000610dc88383614cb8565b600060ff831680614d7057614d7061494e565b8060ff84160491505092915050565b61060f60f31b815260008251614d9c8160028501602087016141f4565b9190910160020192915050565b60008083128015600160ff1b850184121615614dc757614dc76147b8565b6001600160ff1b0384018313811615614de257614de26147b8565b50500390565b600081810b607f19811415614dff57614dff6147b8565b60000392915050565b600081810b83820b8281128015607f19830184121615614e2a57614e2a6147b8565b81607f018313811615614e3f57614e3f6147b8565b5090039392505050565b60008160010b617fff19811415614dff57614dff6147b8565b60008160010b8360010b6000811281617fff1901831281151615614e8857614e886147b8565b81617fff018313811615614e3f57614e3f6147b8565b60008160020b627fffff19811415614dff57614dff6147b8565b60008160020b8360020b6000811281627fffff1901831281151615614edf57614edf6147b8565b81627fffff018313811615614e3f57614e3f6147b8565b60008160030b637fffffff19811415614dff57614dff6147b8565b60008160030b8360030b6000811281637fffffff1901831281151615614f3957614f396147b8565b81637fffffff018313811615614e3f57614e3f6147b8565b60008160040b647fffffffff19811415614dff57614dff6147b8565b60008160040b8360040b6000811281647fffffffff1901831281151615614f9657614f966147b8565b81647fffffffff018313811615614e3f57614e3f6147b8565b60008160050b657fffffffffff19811415614dff57614dff6147b8565b60008160050b8360050b6000811281657fffffffffff1901831281151615614ff657614ff66147b8565b81657fffffffffff018313811615614e3f57614e3f6147b8565b60008160060b667fffffffffffff19811415614dff57614dff6147b8565b60008160060b8360060b6000811281667fffffffffffff1901831281151615615059576150596147b8565b81667fffffffffffff018313811615614e3f57614e3f6147b8565b6000600782900b60016001603f1b0319811415614dff57614dff6147b8565b6000600782810b9084900b828112801560016001603f1b03198301841216156150be576150be6147b8565b60016001603f1b0382018313811615614e3f57614e3f6147b8565b6000600882900b6001600160471b0319811415614dff57614dff6147b8565b6000600882810b9084900b82811280156001600160471b0319830184121615615123576151236147b8565b6001600160471b0382018313811615614e3f57614e3f6147b8565b6000600982900b60016001604f1b0319811415614dff57614dff6147b8565b6000600982810b9084900b828112801560016001604f1b0319830184121615615188576151886147b8565b60016001604f1b0382018313811615614e3f57614e3f6147b8565b6000600a82900b6001600160571b0319811415614dff57614dff6147b8565b6000600a82810b9084900b82811280156001600160571b03198301841216156151ed576151ed6147b8565b6001600160571b0382018313811615614e3f57614e3f6147b8565b6000600b82900b60016001605f1b0319811415614dff57614dff6147b8565b6000600b82810b9084900b828112801560016001605f1b0319830184121615615252576152526147b8565b60016001605f1b0382018313811615614e3f57614e3f6147b8565b6000600c82900b6001600160671b0319811415614dff57614dff6147b8565b6000600c82810b9084900b82811280156001600160671b03198301841216156152b7576152b76147b8565b6001600160671b0382018313811615614e3f57614e3f6147b8565b6000600d82900b60016001606f1b0319811415614dff57614dff6147b8565b6000600d82810b9084900b828112801560016001606f1b031983018412161561531c5761531c6147b8565b60016001606f1b0382018313811615614e3f57614e3f6147b8565b6000600e82900b6001600160771b0319811415614dff57614dff6147b8565b6000600e82810b9084900b82811280156001600160771b0319830184121615615381576153816147b8565b6001600160771b0382018313811615614e3f57614e3f6147b8565b6000600f82900b60016001607f1b0319811415614dff57614dff6147b8565b6000600f82810b9084900b828112801560016001607f1b03198301841216156153e6576153e66147b8565b60016001607f1b0382018313811615614e3f57614e3f6147b8565b600060ff8316806154145761541461494e565b8060ff8416069150509291505056fea26469706673582212209147fd5e762e4f5db2f080b78b804219b730ee202f06490d969d890084d25b0d64736f6c634300080c0033",
  "linkReferences": {},
  "deployedLinkReferences": {}
}